:020000040000FA
:060000000A128A110C280F
:10000800FE00030EF0000A08F1000A128A118B2A7A
:100018000A128A110F280A128A113F240A128A1119
:10002800B2000A128A1140240A128A11B3000A1275
:100038008A1141240A128A11B4000A128A11422430
:100048000A128A11B500A001A101A201A301A4010D
:10005800A501A601A701A801FA01FB0183010A1263
:100068008A11BE2A831203139F183B283C283D2877
:100078009F140C1D4028412861282608031D452887
:10008800462850281930B0003008A6000A128A11F4
:10009800F0220A128A1152280130A6028312031391
:1000A8000E08503EB0000F080318013EC33EB100D1
:1000B80030089500310896000C112308803AFF009B
:1000C80083307F02031D6A2885302202031C6D28B5
:1000D8006E287C287A080319722873281F29013092
:1000E800FB021E300A128A1120210A128A111F29C6
:1000F800831203132308803AFF0080307F02031D18
:1001080087286430220203188A288B289D287A08B9
:1001180003198F2890281F29013083120313B00078
:100128003008FB071E300A128A1120210A128A1190
:100138001F29831203132308803AFF0082307F02AD
:10014800031DA82859302202031CAB28AC28BA2862
:100158007A080319B028B1281F290130FB023C3066
:100168000A128A1120210A128A111F2983120313E5
:100178002308803AFF0081307F02031DC528903094
:1001880022020318C828C928DB287A080319CD28B1
:10019800CE281F29013083120313B0003008FB0753
:1001A8003C300A128A1120210A128A111F2983124F
:1001B80003132108803AFF0082307F02031DE628DE
:1001C800BD302002031CE928EA28FC287A08031914
:1001D800EE28EF281F29403083120313B00030089F
:1001E800FB063E300A128A1120210A128A111F29A1
:1001F800831203132108803AFF0081307F02031D18
:1002080007292C30200203180A290B291D297A08EE
:1002180003190F2910291F29403083120313B00036
:100228003008FB063E300A128A1120210A128A1170
:100238001F29FA01FA0A080083120313AF00FA0112
:100248002F08AD002D08A5003A29FB0150294030A0
:10025800AD002D08FB0050290F30AD002D08FB0024
:1002680050294F30AD002D08FB0050297B08AD0008
:10027800AE012E08003A0319422950292D08103AD8
:10028800031929292F3A031935296F3A03192B29FC
:10029800AF3A0319302950290830A9000030AA00C4
:1002A80028080A128A110D240A128A1108308312AA
:1002B8000313A9000030AA007B080A128A11C2237E
:1002C8000A128A110A128A111E230A128A1183122B
:1002D80003132703031D7129722988290830A900EF
:1002E8000030AA00FF300A128A110D240A128A115E
:1002F800083083120313A9000030AA007B080A12F1
:100308008A11C2230A128A11080083120313AE004D
:100318000A128A111F240A128A1108308312031341
:10032800A9000030AA000A128A11DE230A128A11D3
:10033800083083120313A9000030AA0012300A12F1
:100348008A114A230A128A11083083120313A9005A
:100358000030AA0040300A128A11C2230A128A11F8
:10036800083083120313A9000030AA0001300A12D2
:100378008A114A230A128A11831203132E08AD0028
:100388002D08FB00A7010A128A111E230A128A11DE
:1003980083120313A601FA01FA0A0830A9000030F3
:1003A800AA007B080A128A11C2230A128A11FF3096
:1003B80083120313AD002D08A500FA30831603132A
:1003C8009200831203138C10831603138C14563077
:1003D80083120313920008000A128A1137240A12A2
:1003E8008A11831203132B08840083172C1C831390
:1003F80080010F30F2000030F3000A128A11F62350
:100408000A128A11283083120313AD002D08F40054
:100418002B08F5002C08F60000300A128A11422237
:100428000A128A110C3083120313AD002D08F40050
:100438002B08F5002C08F60000300A128A11422217
:100448000A128A11831203132B08A9002C08AA0088
:100458000A128A11DE230A128A1106308312031344
:10046800AD002D08F4002B08F5002C08F60000302C
:100478000A128A1142220A128A110800F900740825
:10048800F70004300310F70CFF3E031D462A7708D7
:10049800203E7904F800750884008317761C8313BE
:1004A800780880000A128A112B240A128A1175080A
:1004B80084008317761C83130008DF39F70075085A
:1004C80084008317761C83137708800074080F391B
:1004D800203E7904F700750884008317761C83137F
:1004E800770880000A128A112B240A128A117508CB
:1004F80084008317761C83130008DF39F70075081A
:1005080084008317761C8313770880000800831201
:1005180003130C1F902A912AA92A9F1D942A952A11
:100528009F2A1E08A300831603131E0883120313B1
:10053800A2009F11A82A1E08A100831603131E08F3
:1005480083120313A0009F150C138C1CAC2AAD2A30
:10055800B72A0130A5022508031DB32AB42AB62AF2
:10056800FA01FA0A8C1071088A00700E8300FE0ED8
:100578007E0E0900831603130F1088018501831668
:1005880003178801083083120313AB000030AC0056
:100598000A128A11F0210A128A11053083120313F4
:1005A800AB000030AC000A128A11F0210A128A113D
:1005B8000A128A119D230A128A1145300A128A11D9
:1005C80089210A128A110A128A1136200A128A11FE
:1005D800E72A0A128A110C28831203132708031D1D
:1005E800F62AF72A062B0830A9000030AA00FF30A7
:1005F8000A128A110D240A128A1183120313A70101
:10060800A70A132B0830A9000030AA0028080A12EC
:100618008A110D240A128A1183120313A7010830C4
:10062800A9000030AA007B080A128A11C2230A1204
:100638008A1108007B08F20004300310F20CFF3E18
:10064800031D212B04307206031D2B2B2C2B3B2B57
:100658007B080F39013E84000A128A1175230A1299
:100668008A11F200720883120313A800492B7B0831
:100678000F39123E84000A128A1175230A128A1150
:10068800F200720883120313A800080083120313F0
:10069800AC00682B2C0884000A128A1175230A12F0
:1006A8008A11AB002B08F4002908F5002A08F60087
:1006B80010300A128A1142220A128A11013083125A
:1006C8000313AB002B08AC072C0884000A128A110C
:1006D80075230A128A11003A031D732B742B4E2BB3
:1006E800080003308A000408840A8207003454345E
:1006F8004834493453342034493453342034523440
:100708004F345734203432342E342E342E340034BF
:100718003034313432343334343435343634373495
:10072800383439344134423443344434453446341B
:100738000034003083120313A2000230A3000030FB
:10074800A0000230A1008601831603138113203014
:100758009500383086000A308316031789008B17F6
:100768000B17831203130C13831603130C17803013
:100778009F00A530831203139F0008008312031300
:10078800AC002C08803EAB002B08F4002908F500CB
:100798002A08F60000300A128A1142220A128A1127
:1007A8000230F2000030F3000A128A11F6230A120E
:1007B8008A110800F401F40A831203132908F500CA
:1007C8002A08F60000300A128A1142220A128A11F7
:1007D8000230F2000030F3000A128A11F6230A12DE
:1007E8008A110800062C64308312031381000B1150
:1007F8000B1DFF2B002CFC2B0130F2020030031CD8
:10080800F303F30272087304031D0B2C0C2CF72B53
:10081800080083120313AC002C08AB002B08F4006B
:100828002908F5002A08F60010300A128A11422217
:100838000A128A11080083120313971517119714C7
:100848001710901010129012101310140800F301D2
:100858000130F2007208F30708307302031C352CCC
:10086800362C2C2C0800C030F200720883160313B3
:0E0878008105011508000534003408340034F1
:04400E00F2E0FFFEDF
:00000001FF
