:020000040000FA
:060000000A128A110C280F
:10000800FE00030EF0000A08F1000A128A112E2BD6
:100018000A128A110F280A128A11A6230A128A11B3
:10002800AF000A128A11A7230A128A11B0000A1215
:100038008A11A8230A128A11B1000A128A11A92367
:100048000A128A11B200AB01AC01AD01AE01FB018D
:1000580083010A128A11D429831203139F14FA30D8
:10006800F2000030F3000A128A1169230A128A1179
:10007800083083120313A0000030A1000A128A116D
:1000880051230A128A11083083120313A800003082
:10009800A900E830A0000330A1002E08A3002D0815
:1000A800A2000A128A116B210A128A118312031301
:1000B8002008303E0A128A1180230A128A11083059
:1000C80083120313A8000030A9006430A000003098
:1000D800A1002E08F5002D08F400E830F2000330E6
:1000E800F3000A128A113A220A128A11730883123B
:1000F8000313A3007208A2000A128A116B210A12C4
:100108008A11831203132008303E0A128A118023B1
:100118000A128A11083083120313A8000030A900BC
:100128000A30A0000030A1002E08F5002D08F400C8
:100138006430F2000030F3000A128A113A220A12DF
:100148008A11730883120313A3007208A2000A120B
:100158008A116B210A128A11831203132008303E78
:100168000A128A1180230A128A1108308312031393
:10017800A8000030A9000A30F2000030F3002E0871
:10018800F5002D08F4000A128A113A220A128A117F
:100198007208303E0A128A1180230A128A11053029
:1001A80083120313A0000030A1000A128A11512300
:1001B8000A128A11053083120313A8000030A9001F
:1001C800E830A0000330A1002E08A3002D08A200EB
:1001D8000A128A116B210A128A118312031320084A
:1001E800303E0A128A1180230A128A1105308312BE
:1001F8000313A8000030A9006430A0000030A1005B
:100208002E08F5002D08F400E830F2000330F30062
:100218000A128A113A220A128A11730883120313E6
:10022800A3007208A2000A128A116B210A128A110D
:10023800831203132008303E0A128A1180230A12FF
:100248008A11053083120313A8000030A9000A3070
:10025800A0000030A1002E08F5002D08F40064303D
:10026800F2000030F3000A128A113A220A128A11A7
:10027800730883120313A3007208A2000A128A11DA
:100288006B210A128A11831203132008303E0A12C6
:100298008A1180230A128A11053083120313A800D9
:1002A8000030A9000A30F2000030F3002E08F500F3
:1002B8002D08F4000A128A113A220A128A117208C9
:1002C800303E0A128A1180230A128A11080083120A
:1002D8000313A501A11F712972297929A009A10970
:1002E800A00A0319A10AA501A50AA31F7C297D2933
:1002F8008629A209A309A20A0319A30A0130F90051
:100308007908A506A601A7012008210403198D294B
:100318008E29C529A401A40A9C2901300310A00D27
:10032800A10DFF3E031D92290130F9007908A407A9
:10033800A11F9F29A029912901300310A60DA70DFF
:10034800FF3E031DA12921082302031DAD29200812
:100358002202031CB029B129B8292008A2022108C9
:10036800031CA303A302261401300310A10CA00C44
:10037800FF3E031DB9290130A402031DC429C52964
:10038800A02925080319C929CA29CF29A609A70917
:10039800A60A0319A70A2708A1002608A000080032
:1003A800831603130F10880185018316031788012C
:1003B800083083120313A2000030A3000A128A1126
:1003C80093220A128A11053083120313A200003007
:1003D800A3000A128A1193220A128A1183120313A4
:1003E800860183160313811331309500313086005E
:1003F8001830831603178900A530831203139F0052
:100408008030831603139F008B170B178312031377
:100418000C13831603130C17083083120313A80058
:100428000030A90058300A128A1180230A128A1152
:10043800053083120313A8000030A90058300A12AF
:100448008A1180230A128A11E830F2000330F3007F
:100458000A128A1169230A128A110A128A11302093
:100468000A128A11312A0A128A110C28F801F51F7A
:100478003E2A3F2A462AF409F509F40A0319F50A1F
:10048800F801F80AF31F492A4A2A4F2AF209F30900
:10049800F20A0319F30A720873040319542A552A35
:1004A800842AF701F70A632A01300310F20DF30DCD
:1004B800FF3E031D592A0130F6007608F707F31F9F
:1004C800662A672A582A73087502031D6D2A72085E
:1004D8007402031C702A712A772A7208F4027308BE
:1004E800031CF503F50201300310F30CF20CFF3E78
:1004F800031D782A0130F702031D832A842A672AFC
:1005080078080319882A892A8E2AF409F509F40A31
:100518000319F50A7508F3007408F20008000A12B6
:100528008A119E230A128A11831203132208840057
:100538008317231C831380010F30F2000030F3006F
:100548000A128A1169230A128A112830FA007A08D5
:10055800F400831203132208F5002308F600003084
:100568000A128A11E5220A128A110C30FA007A0856
:10057800F400831203132208F5002308F600003064
:100588000A128A11E5220A128A1183120313220819
:10059800A0002308A1000A128A1151230A128A1105
:1005A8000630FA007A08F400831203132208F500D3
:1005B8002308F60000300A128A11E5220A128A116D
:1005C8000800F9007408F70004300310F70CFF3E28
:1005D800031DE92A7708203E7904F800750884008D
:1005E8008317761C8313780880000A128A119223D5
:1005F8000A128A11750884008317761C8313000871
:10060800DF39F700750884008317761C8313770891
:10061800800074080F39203E7904F70075088400BB
:100628008317761C8313770880000A128A11922395
:100638000A128A11750884008317761C8313000830
:10064800DF39F700750884008317761C8313770851
:1006580080000800831203130C1F332B342B4A2B02
:100668009F1D372B382B412B1E08AE008316031312
:100678001E0883120313AD00492B1E08AC00831615
:1006880003131E0883120313AB000C1371088A00AE
:10069800700E8300FE0E7E0E0900F401F40A831228
:1006A80003132008F5002108F60000300A128A1109
:1006B800E5220A128A110230F2000030F3000A1211
:1006C8008A1169230A128A110800792B643083126F
:1006D800031381000B110B1D722B732B6F2B013031
:1006E800F2020030031CF303F30272087304031DC3
:1006F8007E2B7F2B6A2B080083120313AA002A087B
:10070800FA007A08F4002808F5002908F6001030E5
:100718000A128A11E5220A128A110800F30101302F
:10072800F2007208F30708307302031C9C2B9D2B00
:10073800932B0800C030F20072088316031381055A
:0C074800011508000534003408340034AA
:04400E00F2E0FFFEDF
:00000001FF
