:020000040000FA
:060000000A128A110C280F
:10000800FE00030EF0000A08F1000A128A15CD2F2F
:100018000A128A110F280A128A15CB260A128A1187
:10002800DD000A128A15CC260A128A11DE000A128D
:100038008A15CD260A128A11DF000A128A15CE26E1
:100048000A128A11E0000A128A15CF260A128A11AA
:10005800E100831790308400B0300A128A15D82640
:100068000A128A118313A0308400E0300A128A151C
:10007800D8260A128A114F3084005D300A128A1578
:10008800D8260A128A11FA01FB0183010A128A1181
:10009800BD2F831203139F185228532854289F14E6
:1000A800861A57285828AE285403031D5C285D2853
:1000B800AE280630F2000030F3000A128A151A271B
:1000C8000A128A1183120313D4015C080A128A15D2
:1000D800E0260A128A11A03E84008313000A031D39
:1000E80076287728B428831203135C080A128A1525
:1000F800E0260A128A11C03E840083130008831286
:100108000313B0005C080A128A15E0260A128A1145
:10011800A03E8400831203133008831380005C0818
:100128000A128A15E0260A128A11C03E8400831337
:10013800000883120313B0003008DB0000300A12F5
:100148008A1192240A128A110A128A1178270A122D
:100158008A11B428861EB128B228B428D401D40A3A
:10016800831203130C1DB928BA28DA285908031D6D
:10017800BE28BF28C9281930B0003008D9000A1293
:100188008A159F270A128A11CB280130D9028312B7
:1001980003130E08503EB0000F080318013EC33E7B
:1001A800B10030089500310896000C115208803AC9
:1001B800FF0083307F02031DE32885305102031CB2
:1001C800E628E728F9288312031357080319ED28AE
:1001D800EE288B290230B0003008AC001E300A121D
:1001E8008A1153220A128A118B2983120313520887
:1001F800803AFF0080307F02031D042964305102D9
:100208000318072908291A29831203135708031901
:100218000E290F298B290330B0003008AC001E309E
:100228000A128A1153220A128A118B298312031384
:100238005208803AFF0083307F02031D25292130B0
:100248005102031C282929293B2983120313570823
:1002580003192F2930298B290230B0003008AC004F
:100268003C300A128A1153220A128A118B298312EE
:1002780003135208803AFF0080307F02031D46298D
:10028800C8305102031849294A295C2983120313EB
:1002980057080319502951298B290330B000300819
:1002A800AC003C300A128A1153220A128A118B2997
:1002B800FD30831203134F06033003195006031D44
:1002C800662967297529570803196B296C298B2911
:1002D800AC01AC0A3E300A128A1153220A128A1162
:1002E8008B294F085004031D7A297B29892957082F
:1002F80003197F2980298B29AC01AC0A3E300A12E8
:100308008A1153220A128A118B29D701D70A0800A9
:10031800083083120313A0000030A1006F300A12C6
:100328008A1574270A128A11083083120313A00051
:100338000030A10040300A128A1531270A128A11AA
:10034800083083120313A0000030A10082300A1283
:100358008A1574270A128A11083083120313A80019
:100368000030A9000A30A0000030A1007B08AC00D2
:10037800AD012C08F4002D08F5006430F2000030BF
:10038800F3000A128A1132260A128A11730883129C
:100398000313A3007208A2000A128A110A250A127E
:1003A8008A11831203132008303E0A128A1508277F
:1003B8000A128A11083083120313A8000030A9001A
:1003C8000A30F2000030F3007B08AC00AD012C08C5
:1003D800F4002D08F5000A128A1132260A128A1131
:1003E8007208303E0A128A1508270A128A11083044
:1003F80083120313A0000030A1007B300A128A1573
:1004080074270A128A11083083120313A8000030D7
:10041800A9000A30A0000030A1005508AC00AD01C9
:100428002C08F4002D08F5006430F2000030F300C9
:100438000A128A1132260A128A11730883120313C8
:10044800A3007208A2000A128A110A250A128A1148
:10045800831203132008303E0A128A1508270A124D
:100468008A11083083120313A8000030A9000A304B
:10047800F2000030F3005508AC00AD012C08F40080
:100488002D08F5000A128A1132260A128A117208FA
:10049800303E0A128A1508270A128A1108008312A8
:1004A8000313AF00D7012F08AD002D08D8009A2AF2
:1004B8004030AD002D08DC06AD2A0F30AD002D0808
:1004C800DC00AD2A4F30AD002D08DC00AD2A01302C
:1004D800DC02AD2A5C08AD00AE012E08003A031913
:1004E800762A6B2A2D08003A0319612A403A031923
:1004F800662A6B2ADC01AD2A4030AD002D08DC00ED
:10050800AD2A0130AD002D08DC07AD2A5C08AD002E
:10051800AE012E08003A0319922A852A2D080F3AAF
:1005280003197E2A403A0319802A852A2C08AD002F
:10053800AE012E08003A0319A22AAD2A2D08013A65
:1005480003195C2A033A03196E2A013A03198A2A05
:10055800AD2A0530A8000030A9005B080A128A15E8
:1005680008270A128A11053083120313A0000030ED
:10057800A1005C080A128A1531270A128A110A1288
:100588008A15F6260A128A11831203135A03031DC9
:10059800CE2ACF2AE52A0530A8000030A90020304D
:1005A8000A128A1508270A128A11053083120313C2
:1005B800A0000030A1005C080A128A1531270A122F
:1005C8008A110800F401F40A831203132008F500C5
:1005D8002108F60000300A128A112F270A128A1100
:1005E8000230F2000030F3000A128A151A270A12A4
:0405F8008A1108005C
:1006000003308A000408840A82070034183418343E
:100610001434043404340334023403341C341434E6
:100620001834143400340534073405340E341534CA
:1006300015341F340A340E340E34003400340E34B2
:100640000E341F341F341F3404340E340034043489
:100650000E341F341F340E3404340E34003400348E
:100660000A341F341F340E3404340034003404348C
:100670000E341F340E3404340034003400340A3491
:100680000A340034153411340E34003450347234CA
:1006900065347334733420347434683465342034EE
:1006A00062347534743474346F346E3400342034EE
:1006B00043346F346E34633465346E34743472345E
:1006C0006134743469346F346E342134003420342E
:1006D00020342034203474346F3420347334743430
:1006E00061347234743400342034203420342034A3
:1006F0002034533463346F34723465343A34003404
:1007000020342034503432343A342034003420340D
:10071000503431343A34203400340530831203131A
:10072000A0000030A1000A128A11E6220A128A11E2
:10073000083083120313A0000030A1000A128A11AE
:10074000E6220A128A11083083120313A000003037
:10075000A10052300A128A1574270A128A11053034
:1007600083120313A0000030A10041300A128A1541
:1007700074270A128A11053083120313A000003077
:10078000A10040300A128A1531270A128A11053059
:1007900083120313A0000030A10062300A128A15F0
:1007A00074270A128A1183120313861AD82BD92BA5
:1007B000D32B0830F2000030F3000A128A151A27F2
:1007C0000A128A1183120313861EE72BE82BE22BF1
:1007D0000830F2000030F3000A128A151A270A12B4
:1007E0008A11053083120313A0000030A1000A1201
:1007F0008A11E6220A128A11083083120313A0001C
:100800000030A1000A128A11E6220A128A11FB01A5
:1008100083120313D5010A128A118C210A128A113C
:100820000A128A1178270A128A1108008312031308
:10083000A0010530A1000030A20039300A128A114F
:10084000DD260A128A1183120313A001A00A0530C3
:10085000A1000030A20031300A128A11DD260A12EE
:100860008A11023083120313A7002708A000053065
:10087000A1000030A20029300A128A11DD260A12D6
:100880008A11033083120313A7002708A000053044
:10089000A1000030A20021300A128A11DD260A12BE
:1008A0008A11043083120313A7002708A000053023
:1008B000A1000030A20019300A128A11DD260A12A6
:1008C0008A11053083120313A7002708A000053002
:1008D000A1000030A20011300A128A11DD260A128E
:1008E0008A11063083120313A7002708A0000530E1
:1008F000A1000030A20009300A128A11DD260A1276
:100900008A11073083120313A7002708A0000530BF
:10091000A1000030A20001300A128A11DD260A125D
:100920008A11080083120313AF007A0A031D992C61
:100930009A2C9F2C5C08AE002E08FA00092D5C084A
:100940000A128A15E0260A128A11C03E8400831317
:10095000000883120313AE007A080A128A15E026F3
:100960000A128A11C03E8400831300088312031305
:100970002E06031DBC2CBD2CD12C2F08031DC12C11
:10098000C22CC72C0130AE002E08FB07CB2C013047
:10099000AE002E08D5070A128A118C210A128A117C
:1009A000032D0A128A1178270A128A11E830F20000
:1009B0000330F3000A128A151A270A128A11FF302F
:1009C00083120313AE007A080A128A15E0260A126F
:1009D0008A11A03E8400831203132E088313800023
:1009E000FF30AE005C080A128A15E0260A128A114E
:1009F000A03E8400831203132E0883138000FF306F
:100A0000AE002E08DB00FF3083120313AE002E0869
:100A1000FA00080083120313A501A11F102D112D48
:100A2000182DA009A109A00A0319A10AA501A50A68
:100A3000A31F1B2D1C2D252DA209A309A20A0319F2
:100A4000A30A0130F9007908A506A601A70120082C
:100A5000210403192C2D2D2D642DA401A40A3B2D56
:100A600001300310A00DA10DFF3E031D312D0130FB
:100A7000F9007908A407A11F3E2D3F2D302D01302C
:100A80000310A60DA70DFF3E031D402D21082302D4
:100A9000031D4C2D20082202031C4F2D502D572DD5
:100AA0002008A2022108031CA303A302261401307C
:100AB0000310A10CA00CFF3E031D582D0130A40211
:100AC000031D632D642D3F2D25080319682D692D05
:100AD0006E2DA609A709A60A0319A70A2708A100CF
:100AE0002608A0000800FF3083120313CD004D0834
:100AF000FA000A128A11F3270A128A110A128A11BD
:100B000016240A128A1183120313CE01FF30CD007E
:100B10004E08A03E84004D08831380000130CD00B4
:100B20004D08CE0720304E02031C972D982D862DA0
:100B30000530A0000030A1000A128A11E6220A1234
:100B40008A1183120313DC01DA010A128A15F626D0
:100B50000A128A1183120313D901D701D70A05306B
:100B6000A0000030A1005C080A128A1531270A1281
:100B70008A11FF3083120313CD004D08D800FA30DC
:100B8000831603139200831203138C10831603132E
:100B90008C1456308312031392000A128A11D32543
:100BA0000A128A1108002B3084002030FF008313C2
:100BB0008001840AFF0BD72D83120313CB012B2E48
:100BC0001108A8000E080339023E013EE92D03106A
:100BD000A80CFF3E031DE72D2808A900AA0129083B
:100BE000F2002A08F3000A128A151A270A128A113B
:100BF000831203130E081F39A8002808CC004C08E4
:100C00002B3E840083130008031D072E082E2B2E75
:100C10004C082B3E84008001800A0430A000003084
:100C2000A1004B08A800A9012808A2002908A300D8
:100C30000A128A110A250A128A1183120313200844
:100C4000AA004C08C03E84002A08831380000130AB
:100C5000A8002808CB0720304B06031D302E312E6C
:100C6000E02D0800F801F51F362E372E3E2EF40930
:100C7000F509F40A0319F50AF801F80AF31F412EE1
:100C8000422E472EF209F309F20A0319F30A7208F9
:100C9000730403194C2E4D2E7C2EF701F70A5B2EA0
:100CA00001300310F20DF30DFF3E031D512E0130F4
:100CB000F6007608F707F31F5E2E5F2E502E73089E
:100CC0007502031D652E72087402031C682E692EBE
:100CD0006F2E7208F4027308031CF503F50201304D
:100CE0000310F30CF20CFF3E031D702E0130F702CF
:100CF000031D7B2E7C2E5F2E78080319802E812EFB
:100D0000862EF409F509F40A0319F50A7508F300AB
:100D10007408F20008000A128A15D0260A128A11F5
:100D200083120313220884008317231C831380017A
:100D30000F30F2000030F3000A128A151A270A1247
:100D40008A11283083120313A4002408F400220817
:100D5000F5002308F60000300A128A112F270A1224
:100D60008A110C3083120313A4002408F400220813
:100D7000F5002308F60000300A128A112F270A1204
:100D80008A11831203132208A0002308A1000A126B
:100D90008A11E6220A128A11063083120313A40074
:100DA0002408F4002208F5002308F60000300A1297
:100DB0008A112F270A128A11080083120313A60032
:100DC000A5012008A30002300310A30DFF3E031D60
:100DD000E42E0310230D25044038A4002408F40059
:100DE0002108F5002208F60000300A128A112F2788
:100DF0000A128A1183120313260884000A128A1128
:100E000000230A128A11A3002308F4002108F50028
:100E10002208F60010300A128A112F270A128A11AE
:100E2000013083120313A3002308A6070130A30097
:100E30002308A50708302502031C1F2F202FE12EB1
:100E40008030A3002308F4002108F5002208F600F2
:100E500000300A128A112F270A128A110800F9009D
:100E60007408F70004300310F70CFF3E031D332F06
:100E70007708203E7904F800750884008317761CF3
:100E80008313780880000A128A15EA260A128A114A
:100E9000750884008317761C83130008DF39F70078
:100EA000750884008317761C831377088000740804
:100EB0000F39203E7904F700750884008317761CEB
:100EC0008313770880000A128A15EA260A128A110B
:100ED000750884008317761C83130008DF39F70038
:100EE000750884008317761C831377088000080038
:100EF000053083120313A0000030A1000A128A11EA
:100F0000E6220A128A1183120313AD0110302D0656
:100F1000031D8B2F8C2F962F0530A0000030A100D1
:100F200040300A128A1531270A128A1105308312BD
:100F30000313A8000030A9002D08A03E84008313ED
:100F400000080A128A1508270A128A110130831232
:100F50000313AC002C08AD0720302D02031CB12F69
:100F6000B22F862F0530A0000030A1005C080A12C5
:100F70008A1531270A128A110800831603130F10ED
:100F80008801850183160317880105308312031336
:100F9000A2000030A3000A128A118B260A128A11BD
:100FA000083083120313A2000030A3000A128A1132
:100FB0008B260A128A110A128A154D270A128A11E3
:100FC0000A128A1173250A128A110A128A118D23B4
:100FD0000A128A110A128A114D200A128A11EA2F66
:100FE0000A128A110C2883120313971517119714EC
:0E0FF000171090101012901210131014080019
:101D960008340034053400340134C030F2007208CF
:101DA6008316031381050115080064008001840A67
:101DB6000406031900340406D92EF200721FE42E1D
:101DC600E52EE82E7208D03EE92E72080800F301CF
:101DD6000130F2007208F30708307302031CF42E78
:101DE600F52EEB2E0800831203135C080A128A15DF
:101DF600E0260A128A15A03E840083130008F30029
:101E0600730883120313DB00080083120313AB006D
:101E16002B08AA002A08F4002808F5002908F6006D
:101E260010300A128A112F270A128A1508002A2F43
:101E360064308312031381000B110B1D232F242FF3
:101E4600202F0130F2020030031CF303F302720864
:101E56007304031D2F2F302F1B2F0800831203132B
:101E6600A3002308803EA2002208F4002008F50003
:101E76002108F60000300A128A112F270A128A1545
:101E86000230F2000030F3000A128A151A270A12ED
:101E96008A150800003083120313D1000230D200E5
:101EA6000030CF000230D000860183160313811361
:101EB60020309500383086000A30831603178900D3
:101EC6008B170B17831203130C13831603130C17AC
:101ED60080309F00A530831203139F00D401D40ADB
:101EE600080083120313A300922F230884000A120A
:101EF6008A1100230A128A15A2002208F40020087B
:101F0600F5002108F60010300A128A112F270A124E
:101F16008A15013083120313A2002208A30723089F
:101F260084000A128A1100230A128A15003A031D38
:101F36009D2F9E2F782F0800831203135A08031D26
:101F4600A52FA62FB52F0530A8000030A9002030F8
:101F56000A128A1508270A128A1583120313DA0150
:101F6600DA0AC22F0530A8000030A9005B080A1261
:101F76008A1508270A128A1583120313DA01053017
:101F8600A0000030A1005C080A128A1531270A1247
:101F96008A150800831203130C1FD22FD32FEB2FA1
:101FA6009F1DD62FD72FE12F1E08D20083160313AD
:101FB6001E0883120313D1009F11EA2F1E08D000BA
:101FC600831603131E0883120313CF009F150C13E9
:101FD6008C1CEE2FEF2FF92F0130D8025808031D65
:101FE600F52FF62FF82FD701D70A8C1071088A0023
:0A1FF600700E8300FE0E7E0E09003F
:04400E00F2E0FFFEDF
:00000001FF
