:020000040000FA
:060000000A128A1110280B
:10000800FE00030E83120313A1000408A2000A08CD
:10001800A3000A128A118E2F0A128A1113280A12B3
:100028008A1549260A128A11E7000A128A154A26F1
:100038000A128A11E8000A128A154B260A128A1136
:10004800E9000A128A154C260A128A11EA00831757
:1000580090308400B0300A128A154D260A128A118F
:100068008313A0308400E0300A128A154D260A1244
:100078008A115B30840067300A128A154D260A12ED
:100088008A11FC01FD0183010A128A15802F83124F
:1000980003139F185028512852289F14861A552850
:1000A800562894280A128A155F260A128A11A03E39
:1000B80084008313000A031D6228632894280A1207
:1000C8008A155F260A128A11C03E8400831300082D
:1000D80083120313C3000A128A155F260A128A11B3
:1000E800A03E8400831203134308831380000A127E
:1000F8008A155F260A128A11C03E840083130008FD
:1001080083120313C3004308E50000300A128A1162
:1001180011240A128A110A128A15BB270A128A1197
:10012800831203130C1D99289A28BA286308031D03
:100138009E289F28A9281930C3004308E3000A1203
:100148008A1552270A128A11AB280130E30283125A
:1001580003130E08503EC3000F080318013EC33EA8
:10016800C40043089500440896000C115E08803AC4
:10017800FF0083307F02031DC32885305D02031C06
:10018800C628C728D9288312031362080319CD2863
:10019800CE286B290230C3004308B8001E300A126B
:1001A8008A116C210A128A116B29831203135E08C3
:1001B800803AFF0080307F02031DE42864305D022E
:1001C8000318E728E828FA2883120313620803199A
:1001D800EE28EF286B290330C3004308B8001E300F
:1001E8000A128A116C210A128A116B2983120313CD
:1001F8005E08803AFF0082307F02031D05295930CE
:100208005D02031C082909291B29831203136208AC
:1002180003190F2910296B290230C3004308B800BD
:100228003C300A128A116C210A128A116B29831236
:1002380003135E08803AFF0081307F02031D2629E0
:1002480090305D02031829292A293C2983120313B7
:1002580062080319302931296B290330C300430888
:10026800B8003C300A128A116C210A128A116B29D3
:10027800FD30831203135B06033003195C06031D6C
:10028800462947295529620803194B294C296B2906
:10029800B801B80A3E300A128A116C210A128A1172
:1002A8006B295B085C04031D5A295B2969296208CC
:1002B80003195F2960296B29B801B80A3E300A1270
:1002C8008A116C210A128A116B29E201E20A0800DC
:1002D80083120313BB00E2013B08B9003908FD0093
:1002E800B3294030B9003908E606C6290F30B900ED
:1002F8003908E600C6294F30B9003908E600C62992
:100308000130E602C6296608B900BA013A08003A7F
:1003180003198F2984293908003A03197A29403AA0
:1003280003197F298429E601C6294030B900390814
:10033800E600C6290130B9003908E607C62966086B
:10034800B900BA013A08003A0319AB299E293908BD
:100358000F3A03199729403A031999299E29380811
:10036800B900BA013A08003A0319BB29C629390865
:10037800013A03197529033A03198729013A031920
:10038800A329C6296908B4006A08B50065080A12D5
:100398008A15AF260A128A11831203136908AC0062
:1003A8006A08AD0066080A128A150F270A128A1110
:1003B8000A128A1590260A128A11831203136403FB
:1003C800031DE729E829FE296908B4006A08B50071
:1003D80020300A128A15AF260A128A1183120313D3
:1003E8006908AC006A08AD0066080A128A150F276A
:0603F8000A128A11080040
:1004000002308A000408840A820700341834183441
:100410001434043404340334023403341C341434E8
:100420001834143400340534073405340E341534CC
:1004300015341F340A340E340E34003400340E34B4
:100440000E341F341F341F3404340E34003404348B
:100450000E341F341F340E3404340E340034003490
:100460000A341F341F340E3404340034003404348E
:100470000E341F340E3404340034003400340A3493
:100480000A340034153411340E34003450347234CC
:1004900065347334733420347434683465342034F0
:1004A00062347534743474346F346E3400342034F0
:1004B00043346F346E34633465346E347434723460
:1004C0006134743469346F346E3421340034203430
:1004D00020342034203474346F3420347334743432
:1004E00061347234743400342034203420342034A5
:1004F0002034533463346F34723465343A34003406
:1005000020342034503432343A342034003420340F
:10051000503431343A3420340034831203136908E0
:10052000AC006A08AD000A128A15DA260A128A118E
:10053000083083120313AC000030AD000A128A1594
:10054000DA260A128A11083083120313AC00003035
:10055000AD0052300A128A11D5270A128A1183126D
:1005600003136908AC006A08AD0041300A128A1111
:10057000D5270A128A11831203136908AC006A088E
:10058000AD0040300A128A150F270A128A11831211
:1005900003136908AC006A08AD0062300A128A11C0
:1005A000D5270A128A1183120313861AD82AD92A48
:1005B000D32A0830A4000030A5000A128A15C126EB
:1005C0000A128A1183120313861EE72AE82AE22AF6
:1005D0000830A4000030A5000A128A15C1260A12AC
:1005E0008A11831203136908AC006A08AD000A126D
:1005F0008A15DA260A128A11083083120313AC0016
:100600000030AD000A128A15DA260A128A11831206
:100610000313E101E0010A128A11A5260A128A11C8
:100620000A128A15BB270A128A11080083120313C3
:10063000BD0003303802031C1E2B1F2B3C2B390836
:10064000B4003A08B5006430AB000030AC003D089F
:10065000BB00BC013B08AD003C08AE000A128A1189
:100660007E240A128A11831203132B08303E0A12C9
:100670008A15AF260A128A11023083120313380238
:10068000031C432B442B702B3908B4003A08B500E7
:100690000A30AB000030AC003D08BB00BC013B0899
:1006A000A6003C08A7006430A4000030A5000A1290
:1006B0008A11A6250A128A11831203132508AE0097
:1006C0002408AD000A128A117E240A128A118312AC
:1006D00003132B08303E0A128A15AF260A128A111C
:1006E0008312031338080319762B772B942B3908C0
:1006F000B4003A08B5000A30A4000030A5003D0857
:10070000BB00BC013B08A6003C08A7000A128A11E6
:10071000A6250A128A11831203132408303E0A12F6
:100720008A15AF260A128A11080083120313AC013E
:100730006908AD006A08AE0039300A128A115326E2
:100740000A128A1183120313AC01AC0A6908AD00C6
:100750006A08AE0031300A128A1153260A128A1131
:10076000023083120313B3003308AC006908AD00F4
:100770006A08AE0029300A128A1153260A128A1119
:10078000033083120313B3003308AC006908AD00D3
:100790006A08AE0021300A128A1153260A128A1101
:1007A000043083120313B3003308AC006908AD00B2
:1007B0006A08AE0019300A128A1153260A128A11E9
:1007C000053083120313B3003308AC006908AD0091
:1007D0006A08AE0011300A128A1153260A128A11D1
:1007E000063083120313B3003308AC006908AD0070
:1007F0006A08AE0009300A128A1153260A128A11B9
:10080000073083120313B3003308AC006908AD004E
:100810006A08AE0001300A128A1153260A128A11A0
:10082000080083120313C0006608A03E84008313EF
:10083000000A03191C2C1D2C7D2C5F0A031D212C82
:10084000222C272C6608BF003F08DF007D2C66089D
:10085000BF003F08C2000A128A155F260A128A11D9
:10086000C03E84008313000883120313BF003F08B7
:10087000C1005F08BF003F08E6000A128A155F2624
:100880000A128A11C03E84008313000883120313E6
:100890004106031D4C2C4D2C602C4008031D512C8F
:1008A000522C572C0130BF003F08E1075B2C013070
:1008B000BF003F08E0070A128A11A5260A128A1112
:1008C000FF3083120313BF005F08A03E84003F087F
:1008D00083138000FF30BF004208A03E84003F0821
:1008E0008000FF30BF003F08E500FF30BF003F0839
:1008F000DF004208BF003F08E60008008312031330
:10090000B101AC1F842C852C8C2CAB09AC09AB0A33
:100910000319AC0AB101B10AAE1F8F2C902C992C8F
:10092000AD09AE09AD0A0319AE0A0130AF002F08B8
:10093000B106B201B3012B082C040319A02CA12C81
:10094000D82CB001B00AAF2C01300310AB0DAC0DA8
:10095000FF3E031DA52C0130AF002F08B007AC1FD0
:10096000B22CB32CA42C01300310B20DB30DFF3EFA
:10097000031DB42C2C082E02031DC02C2B082D02A5
:10098000031CC32CC42CCB2C2B08AD022C08031C3D
:10099000AE03AE02321401300310AC0CAB0CFF3EC0
:1009A000031DCC2C0130B002031DD72CD82CB32C46
:1009B00031080319DC2CDD2CE22CB209B309B20A90
:1009C0000319B30A3308AC003208AB000800FF304B
:1009D00083120313D9005908DF000A128A157626FC
:1009E0000A128A110A128A1195230A128A11831295
:1009F0000313DA01FF30D9005A08A03E84005908D9
:100A0000831380000130D9005908DA0720305A02D8
:100A1000031C0B2D0C2DFA2C6908AC006A08AD00E4
:100A20000A128A15DA260A128A1183120313E601C2
:100A3000E4010A128A1590260A128A1183120313FE
:100A4000E301E201E20A6908AC006A08AD00660849
:100A50000A128A150F270A128A11FF308312031314
:100A6000D9005908FD00FA3083160313920083124F
:100A700003138C10831603138C1456308312031344
:100A800092000A128A1147250A128A11080037308B
:100A900084002030FF0083138001840AFF0B4B2D5C
:100AA00083120313D7019F2D1108B4000E080339D8
:100AB000023E013E5D2D0310B40CFF3E031D5B2D75
:100AC0003408B500B6013508A4003608A5000A129E
:100AD0008A15C1260A128A11831203130E081F39C0
:100AE000B4003408D8005808373E84008313000847
:100AF000031D7B2D7C2D9F2D5808373E84008001DF
:100B0000800A0430AB000030AC005708B400B501D7
:100B10003408AD003508AE000A128A117E240A128C
:100B20008A11831203132B08B6005808C03E8400B4
:100B30003608831380000130B4003408D707203012
:100B40005706031DA42DA52D542D08008312031351
:100B5000AA01A71FAC2DAD2DB42DA609A709A60A81
:100B60000319A70AAA01AA0AA51FB72DB82DBD2DE2
:100B7000A409A509A40A0319A50A24082504031930
:100B8000C22DC32DF22DA901A90AD12D01300310C8
:100B9000A40DA50DFF3E031DC72D0130A800280898
:100BA000A907A51FD42DD52DC62D25082702031D65
:100BB000DB2D24082602031CDE2DDF2DE52D240865
:100BC000A6022508031CA703A70201300310A50CE9
:100BD000A40CFF3E031DE62D0130A902031DF12DDB
:100BE000F22DD52D2A080319F62DF72DFC2DA60977
:100BF000A709A60A0319A70A2708A5002608A40022
:100C000008000A128A1555260A128A118312031344
:100C10002E08840083172F1C831380010F30A4003B
:100C20000030A5000A128A15C1260A128A1128303E
:100C300083120313B0003008A6002E08A7002F0867
:100C4000A80000300A128A11F6260A128A110C3006
:100C500083120313B0003008A6002E08A7002F0847
:100C6000A80000300A128A11F6260A128A1183128D
:100C700003132E08AC002F08AD000A128A15DA26DD
:100C80000A128A11063083120313B0003008A6003E
:100C90002E08A7002F08A80000300A128A11F62695
:100CA0000A128A11080083120313B200B1012C0842
:100CB000AF0002300310AF0DFF3E031D5A2E03108C
:100CC0002F0D31044038B0003008A6002D08A700D1
:100CD0002E08A80000300A128A11F6260A128A117C
:100CE00083120313320884000A128A1100220A12A6
:100CF0008A11AF002F08A6002D08A7002E08A80013
:100D000010300A128A11F6260A128A110130831253
:100D10000313AF002F08B2070130AF002F08B1074F
:100D200008303102031C952E962E572E8030AF00CE
:100D30002F08A6002D08A7002E08A80000300A12D0
:100D40008A11F6260A128A1108000830831203134A
:100D5000AC000030AD006F300A128A11D5270A129C
:100D60008A11083083120313AC000030AD0040300C
:100D70000A128A150F270A128A11083083120313E8
:100D8000AC000030AD0082300A128A11D5270A1259
:100D90008A11023083120313BE003E08B8000830E7
:100DA000B9000030BA0061080A128A1116230A122B
:100DB0008A11083083120313AC000030AD007B3081
:100DC0000A128A11D5270A128A11023083120313DC
:100DD000BE003E08B8000830B9000030BA00600814
:100DE0000A128A1116230A128A11080083120313A9
:100DF000AB002608A90004300310A90CFF3E031D18
:100E0000FC2E2908203E2B04AA0027088400831703
:100E1000281C83132A0880000A128A1582260A12C7
:100E20008A1183120313270884008317281C831355
:100E30000008DF39A900270884008317281C8313C2
:100E40002908800026080F39203E2B04A900270816
:100E500084008317281C8313290880000A128A152E
:100E600082260A128A11831203132708840083172B
:100E7000281C83130008DF39A90027088400831782
:100E8000281C8313290880000800F7007208F50069
:100E900004300310F50CFF3E031D492F7508203E5A
:100EA0007704F600730884008317741C8313760894
:100EB00080000A128A156A260A128A1173088400B1
:100EC0008317741C83130008DF39F500730884004E
:100ED0008317741C83137508800072080F39203E35
:100EE0007704F500730884008317741C8313750856
:100EF00080000A128A156A260A128A117308840071
:100F00008317741C83130008DF39F500730884000D
:100F10008317741C83137508800008000C1F912F21
:100F2000922FAA2F9F1D952F962FA02F1E08DE000F
:100F3000831603131E0883120313DD009F11A92FCC
:100F40001E08DC00831603131E0883120313DB0044
:100F50009F150C138C1CAD2FAE2FB82F0130FD0246
:100F60007D08031DB42FB52FB72FE201E20A8C10C4
:100F70008C1EBB2FBC2FCA2F1A08A0002008FC0013
:100F80006908F8006A08F9007C080A128A159F2689
:100F90000A128A118312031323088A00220884008C
:100FA000210E8300FE0E7E0E090083120313AF0094
:100FB000F32F2F0884000A128A1100220A128A11C4
:100FC000AE002E08A6002C08A7002D08A80010309F
:100FD0000A128A11F6260A128A11013083120313AB
:100FE000AE002E08AF072F0884000A128A110022D3
:100FF0000A128A11003A031DFE2FFF2FD92F080075
:101C9200083400340534003464008001840A0406E8
:101CA2000319003404064E2EC03083120313A4001D
:101CB20024088316031381050115080083120313F8
:101CC200661F642E652E682E6608D03E692E660851
:101CD2000800F1010130F0007008F10708307102CC
:101CE200031C742E752E6B2E080083120313971596
:101CF200171197141710901010129012101310143D
:101D0200080083120313A5010130A4002408A507CB
:101D120008302502031C8E2E8F2E852E08000A12F3
:101D22008A155F260A128A15A03E840083130008D2
:101D320083120313A4002408E5000800FB007B08BB
:101D4200FA007A08F2007808F3007908F4001030FB
:101D52000A128A1145270A128A15080083120313F0
:101D6200B7003708B6003608A6003408A7003508C1
:101D7200A80010300A128A11F6260A128A150800E3
:101D8200D12E643081000B110B1DC82EC92EC52E19
:101D9200013083120313A4020030031CA503A50221
:101DA2008312031324082504031DD82ED92EC22E14
:101DB200080083120313A601A60A2C08A7002D0807
:101DC200A80000300A128A11F6260A128A15023079
:101DD20083120313A4000030A5000A128A15C1263B
:101DE2000A128A150800FC0180308316031387004B
:101DF200981618178312031318161817831603134D
:101E02008C16181218158316031787110A308316B9
:101E12000313990083120313981708008312031304
:101E2200AF002F08803EAE002E08A6002C08A700A7
:101E32002D08A80000300A128A11F6260A128A1505
:101E4200023083120313A4000030A5000A128A157F
:101E5200C1260A128A150800003083120313DD001E
:101E62000230DE000030DB000230DC008601831627
:101E72000313811320309500383086000A30831610
:101E8200031789008B170B17831203130C13831686
:101E920003130C1780309F00A530831203139F0099
:101EA2000800831203136408031D582F592F682F4B
:101EB2006908B4006A08B50020300A128A15AF26F4
:101EC2000A128A1583120313E401E40A752F6908C2
:101ED200B4006A08B50065080A128A15AF260A120C
:101EE2008A1583120313E4016908AC006A08AD0085
:101EF20066080A128A150F270A128A150800831625
:101F020003130F10880185018316031788018312BA
:101F120003136908AE006A08AF000A128A1101268B
:101F22000A128A15083083120313AE000030AF0084
:101F32000A128A1101260A128A150A128A152D27F7
:101F42000A128A150A128A11E7240A128A150A123B
:101F52008A15F4260A128A150A128A118D220A1289
:101F62008A150A128A114B200A128A15B22F0A12F6
:101F72008A111028831203136908AC006A08AD00A5
:101F82000A128A15DA260A128A1583120313B90174
:101F920010303906031DCE2FCF2FD92F6908AC0080
:101FA2006A08AD0040300A128A150F270A128A15F4
:101FB200831203136908B4006A08B5003908A03E09
:101FC2008400831300080A128A15AF260A128A15A2
:101FD200013083120313B8003808B90720303902E0
:101FE200031CF42FF52FC92F6908AC006A08AD0055
:0E1FF20066080A128A150F270A128A150800BF
:04400E00F2E0FFFEDF
:00000001FF
