:020000040000FA
:060000000A128A110E280D
:10000800FE00030EF2000408F3000A08F4000A12C6
:100018008A15CF280A128A1111288313E830FD00A7
:100028001230FE006130FF00E03084000A128A11AD
:10003800EC220A128A110A128A11FE270A128A1160
:10004800ED000A128A11FF270A128A11EE000A121D
:100058008A11FB220A128A11FB0083179030840050
:10006800B0300A168A1159220A128A118313A03055
:100078008400E0300A168A1159220A128A1159306E
:1000880084006D300A168A1159220A128A11F60163
:10009800F701F801F901FA0183010A128A11A12C6A
:1000A80083120313E401E40A343084008316031333
:1000B800600883138000840A61088000840A62084B
:1000C8008000840A63088000840A64088000840A27
:1000D8006508800083120313BB01BA013B08343E54
:1000E8008400831300080A168A11DF230A128A1172
:1000F800013083120313B1003108BB070630A0009A
:100108000030A1003B08B100B2013108A20032085A
:10011800A3000A168A11F0250A128A118312031302
:100128002008B3003308BB00D930A0000730A10075
:100138001E30B1003108A2000A168A110A230A12D9
:100148008A11831203133B08343E8400831300088A
:100158000A168A11DF230A128A1101308312031347
:10016800B1003108BB070630A0000030A1003B08F1
:10017800B100B2013108A2003208A3000A168A11A0
:10018800F0250A128A11831203132008B3003308DA
:10019800BB006830A0000730A1001E30B100310854
:1001A800A2000A168A110A230A128A11831203135B
:1001B8003B08343E8400831300080A168A11DF23A3
:1001C8000A128A11013083120313B1003108BB07E8
:1001D8000630A0000030A1003B08B100B201310890
:1001E800A2003208A3000A168A11F0250A128A1101
:1001F800831203132008B3003308BB003A30A00071
:100208000630A1001E30B1003108A2000A168A117A
:100218000A230A128A11831203133B08343E84000E
:10022800831300080A168A11DF230A128A11013083
:1002380083120313B1003108BB070630A000003059
:10024800A1003B08B100B2013108A2003208A300A6
:100258000A168A11F0250A128A118312031320083C
:10026800B3003308BB00FA30A0000030A1000A1622
:100278008A119F220A128A11013083120313B100D6
:100288003108BA0703303A02031C4B294C2972285B
:100298003B08343E8400831300080A168A11DF23C2
:1002A8000A128A11013083120313B1003108BB0707
:1002B8000630A0000030A1003B08B100B2013108AF
:1002C800A2003208A3000A168A11F0250A128A1120
:1002D800831203132008B3003308BB005530A00075
:1002E8000930A1003C30B1003108A2000A168A1179
:1002F8000A230A128A11342A0530A8000030A900FE
:100308000A168A11B8220A128A11831203132D08B9
:10031800A8002E08A9000530AA000030AB000A1674
:100328008A11AF230A128A1183120313E801783065
:10033800B1003108FA00A929861EA329A429A829F1
:100348000619A729A829A929E40168080319AD29CC
:10035800AE29A0293B08343E8400831300080A16FE
:100368008A11DF230A128A11013083120313B100A4
:100378003108BB070630A0000030A1003B08B100DF
:10038800B2013108A2003208A3000A168A11F0252A
:100398000A128A11831203132008B3003308BB0022
:1003A8000530A8000030A9000A168A11B8220A12DE
:1003B8008A11053083120313A8000030A9004030C9
:1003C8000A168A11EC220A128A11831203132F08C3
:1003D800A8003008A9000530AA000030AB000A16B2
:1003E8008A11AF230A128A1183120313E8017830A5
:1003F800B1003108FA00092A861E032A042A082AAD
:100408000619072A082A092AE401680803190D2A87
:100418000E2A002A3B08343E8400831300080A167B
:100428008A11DF230A128A11013083120313B100E3
:100438003108BB070630A0000030A1003B08B1001E
:10044800B2013108A2003208A3000A168A11F02569
:100458000A128A11831203132008B3003308BB0061
:1004680083120313640303193A2A3B2A80290800DC
:10047800831203131108B0000E080339023E013E2F
:10048800472A0310B00CFF3E031D452A3008B1006F
:10049800B2013108A0003208A1000A168A119F2271
:1004A8000A128A11043083120313A7000030A8002F
:1004B8006708B000B1013008A9003108AA000A167F
:1004C8008A11AA260A128A11831203132708593E91
:1004D800840083130008B2003208B300B62AFC3047
:1004E800B0003008B3050E080339B0003008B30473
:1004F800CD2AF330B0003008B3050E080339B00038
:1005080001300310B00DFF3E031D852A0310300D86
:10051800B1003108B304CD2ACF30B0003008B3059C
:100528000E080339B00003300310B00DFF3E031D61
:10053800982A0310300DB1003108B304CD2A3F309A
:10054800B0003008B3050E080339B00005300310B9
:10055800B00DFF3E031DAB2A0310300DB10031086A
:10056800B304CD2A67080339B000B1013108003A55
:100578000319BF2ACD2A3008003A0319732A013A11
:1005880003197D2A033A0319902A013A0319A32A69
:10059800CD2A3308B0000430A7000030A80067084F
:1005A800B100B2013108A9003208AA000A168A115E
:1005B800AA260A128A11831203132708593E8400B7
:1005C80030088313800008007E088A007F088200B4
:1005D8000A128A11E8220A128A118000840A040881
:1005E8007D0603190034FF0A0319FE0AEC2A0134B8
:10060000FF1B0A2B83137F1883170008840A031922
:10061000FF0A08007F087F398A000408840A03194A
:10062000FF0A8200183418341434043404340334B8
:10063000023403341C3414341834143400340534B4
:10064000073405340E34153415341F340A340E348F
:100650000E34003400340E340E341F341F341F3473
:1006600004340E34003404340E341F341F340E347A
:1006700004340E34003400340A341F341F340E3472
:1006800004340034003404340E341F340E34043483
:100690000034003400340A340A3400341534113480
:1006A0000E3400344E346F34743420347634653470
:1006B00072347934203467346F346F3464342E34B8
:1006C0002E342E3400345034723465347334733421
:1006D00020347434683465342034623475347434AE
:1006E00074346F346E340034203441346C346D34DF
:1006F0006F34733474342034743468346534723431
:100700006534213421340034203443346F346E3462
:10071000633465346E3474347234613474346934DF
:100720006F346E34213400342034533469346D34E2
:100730006F346E34203453346134793473342E344E
:100740002E342E342E3400342034203443346F348D
:100750006E34633465346E3474347234613474349A
:1007600069346F346E3400342034473461346D346E
:1007700065342034533465346C34653463347434F4
:1007800069346F346E3400342034203420345934CA
:100790006F3475342034773469346E342134213425
:1007A000213400342034203420344E344F3420346B
:1007B000573449344E344E344534523421340034A5
:1007C0002034203420344734723465346134743436
:1007D00020346A346F3462342134003420342034BD
:1007E000203459346F34753420347334743469349C
:1007F0006E346B3421340034203420342034793486
:100800006F347534723420347434753472346E3409
:1008100021340034203420342034473461346D34A2
:10082000653420344F3476346534723421340034E6
:10083000203420342034533469346D346F346E34B2
:100840002034533461347934733400342034203408
:1008500020342034573449344E344E3445345234E5
:1008600021342134003420342034203420344E34D8
:100870006F34743420346234613464342E34003480
:10088000203420342034203450344C344134593412
:100890004534523420343134003420342034203470
:1008A000203450344C34413459344534523420349B
:1008B0003234003420342034203420344E346F3429
:1008C000773420346934743427347334003420345A
:1008D00020342034203474346F342034733474342E
:1008E00061347234743400342034203420342034A1
:1008F0002034533463346F34723465343A34003402
:1009000020342034203420342034203454344934EA
:100910004534443400342034203452346F34753438
:100920006E34643473340034203420345034323420
:100930003A34203400342034503431343A342034C2
:100940000034831603130F108801850183160317E3
:100950008801053083120313AA000030AB000A1689
:100960008A1149250A128A11083083120313AA003A
:100970000030AB000A168A1149250A128A110A169C
:100980008A1130230A128A111F3083120313D700F1
:1009900057088316031387058312031387010A166A
:1009A0008A1157230A128A1183120313E301B43008
:1009B000A8008330A9000830AA000030AB000A1656
:1009C0008A11AF230A128A11A43083120313A800DC
:1009D0008330A9000530AA000030AB000A168A1146
:1009E000AF230A128A11053083120313A8000030C6
:1009F000A90040300A168A11EC220A128A11193015
:100A000083120313A8008430A9000530AA00003027
:100A1000AB000A168A11AF230A128A11053083121D
:100A20000313A8000030A90000300A168A11EC2236
:100A30000A128A11053083120313B0000030B1008E
:100A40007E300A168A118D220A128A11FF30831213
:100A50000313D700570883160313E800E901831234
:100A600003139F14D52D831203139F18382D392D8E
:100A70003A2D9F14680803193E2D3F2DD52D861A57
:100A8000422D432D5F2D8316031369088312031330
:100A9000D700570883160313E800083083120313A6
:100AA000A0000030A1000A168A119F220A128A11A2
:100AB00083120313861E5D2D5E2D582DDC2D5F08DD
:100AC000803AFF0080307F02031D682D64305E0293
:100AD000031C6B2D6C2D7B2D831203135F08803A52
:100AE000FF0083307F02031D772D85305E02031CDB
:100AF0007A2D7B2DD52D053083120313A8000030ED
:100B0000A9008316031369080A168A11EC220A1237
:100B10008A11053083120313B0000030B100203079
:100B20000A168A118D220A128A11A12D4030D7008F
:100B3000570883160313E900B52D83160313E90143
:100B4000B52D83160313690883120313D700D80148
:100B50005808003A0319AD2DB52D5708003A03196E
:100B6000962D403A03199D2DB52D05308312A8000E
:100B70000030A9008316031369080A168A11EC22B3
:100B80000A128A11053083120313B0000030B1003D
:100B90007E300A168A118D220A128A1183120313DB
:100BA000E8013E30D7005708FA0083160313680A9D
:100BB0000319DB2DDC2D332D8312E2010530A80053
:100BC0000030A9000A168A11B8220A128A110830C8
:100BD00083120313A8000030A9000A168A11B82254
:100BE0000A128A11831603136808031DF82DF92DC4
:100BF000162E0A168A115F240A128A110A168A1101
:100C000084270A128A11092E0A128A1130260A1222
:100C10008A1183120313620803190F2E102E042E5B
:100C20000A168A11AC240A128A112D2E0A168A116C
:100C300013270A128A11212E0A168A11D2220A12A9
:100C40008A118312031362080319272E282E1C2EE3
:100C50000A128A118B270A128A110A128A110E2887
:100C6000831203139F18352E362E372E9F14861AA3
:100C70003A2E3B2E402E630803193F2E402E492E5C
:100C80000619432E442E9F2E6303031D482E492E22
:100C90009F2E6403031D4D2E4E2E9F2E0630A00066
:100CA0000030A1000A168A119F220A128A118312AB
:100CB0000313E4016C080A168A1173220A128A11BE
:100CC000A03E84008313000A031D672E682EB32EF6
:100CD000831203136C080A168A1173220A128A11EE
:100CE000C03E84008313000883120313B9006C080C
:100CF0000A168A1173220A128A11A03E84008312F6
:100D000003133908831380006C080A168A117322B2
:100D10000A128A11C03E8400831300088312031351
:100D2000B9003908EB0063080A128A1568230A1211
:100D30008A110A168A111A240A128A11B32E861EE3
:100D4000A22EA32EA82E63080319A72EA82EB12E1B
:100D5000061DAB2EAC2EB32E6303031DB02EB12E99
:100D6000B32EE401E40A831203130C1DB82EB92E2E
:100D7000D92E6908031DBD2EBE2EC82E1930B9000C
:100D80003908E9000A168A1181230A128A11CA2E2B
:100D90000130E902831203130E08503EB9000F0818
:100DA0000318013EC33EBA00390895003A08960080
:100DB0000C116108803AFF0083307F02031DE22E90
:100DC00085306002031CE52EE62EF82E83120313F5
:100DD00068080319EC2EED2E8A2F0230B90039086D
:100DE000B4001E300A128A15F7210A128A118A2FBE
:100DF000831203136108803AFF0080307F02031DD5
:100E0000032F643060020318062F072F192F831257
:100E10000313680803190D2F0E2F8A2F0330B90012
:100E20003908B4001E300A128A15F7210A128A11F5
:100E30008A2F831203136108803AFF0083307F02F8
:100E4000031D242F21306002031C272F282F3A2F47
:100E500083120313680803192E2F2F2F8A2F0230B5
:100E6000B9003908B4003C300A128A15F7210A1279
:100E70008A118A2F831203136108803AFF008030A1
:100E80007F02031D452FC83060020318482F492FE9
:100E90005B2F83120313680803194F2F502F8A2FDB
:100EA0000330B9003908B4003C300A128A15F72122
:100EB0000A128A118A2FFD30831203135E06033053
:100EC00003195F06031D652F662F742F6808031929
:100ED0006A2F6B2F8A2FB401B40A64300A128A1564
:100EE000F7210A128A118A2F5E085F04031D792FE9
:100EF0007A2F882F680803197E2F7F2F8A2FB4013D
:100F0000B40A64300A128A15F7210A128A118A2F4C
:100F1000E801E80A0800831203136708031D912FF4
:100F2000922FA02F0A30AD008430AE00EE30AF001B
:100F30008330B0000A128A1154200A128A11FD2F40
:100F4000063067020318A52FA62FB42F0A30AD0074
:100F50008430AE005230AF008330B0000A128A11E4
:100F600054200A128A11FD2F0B3067020318B92F83
:100F7000BA2FC82F0A30AD008430AE003330AF0036
:100F80008430B0000A128A1154200A128A11FD2FEF
:100F9000103067020318CD2FCE2FDC2F0A30AD00A2
:100FA0008430AE00E030AF008330B0000A128A1106
:100FB00054200A128A11FD2F143067020318E12F02
:100FC000E22FF02F0A30AD008430AE007430AF0055
:100FD0008330B0000A128A1154200A128A11FD2FA0
:100FE0000A30AD008430AE00C430AF008330B000B2
:100FF0000A128A1154200A128A110800053400349A
:10100A00053083120313A8000030A9000A168A11BA
:10101A00B8220A128A15033083120313B400340863
:10102A00B5000530A8000030A90007300A168A1159
:10103A00EC220A128A15053083120313B00000301D
:10104A00B1003508303E0A168A118D220A128A1515
:10105A00E83083120313A0000330A1000A168A1194
:10106A009F220A128A15FF3083120313B400340830
:10107A00B507B51F4128422816280530A8000030B8
:10108A00A9000A168A11B8220A128A15080008301D
:10109A0083120313A8000030A9000A168A11B82285
:1010AA000A128A15743083120313A8008430A90027
:1010BA000830AA000030AB000A168A11AF230A12C0
:1010CA008A15083083120313A8000030A9004330A0
:1010DA000A168A11EC220A128A150830831203139F
:1010EA00B0000030B1000A30A7000030A80067083D
:1010FA00B400B5013408A2003508A3006430A0008A
:10110A000030A1000A168A11F0250A128A158312E4
:10111A0003132108AA002008A9000A168A11AA2680
:10112A000A128A15831203132708303E0A168A11F7
:10113A008D220A128A15083083120313B000003078
:10114A00B1000A30A0000030A1006708B400B50160
:10115A003408A2003508A3000A168A11F0250A12DB
:10116A008A15831203132008303E0A168A118D222B
:10117A000A128A158B3083120313A8008430A9003F
:10118A000830AA000030AB000A168A11AF230A12EF
:10119A008A150800831203130D1CD428D528EB28BE
:1011AA00831603130D1CDA28DB28EB287608831232
:1011BA0003139B0703189C0A77089C071D1CE62843
:1011CA00E728E9281D10EA281D140D1083120C1FA8
:1011DA00EF28F0284C291F083C39F0007008F50068
:1011EA00C330F00070089F052C3075060319FE28DD
:1011FA00FF28052928307506031D042905292829F1
:10120A001E08E100831603131E0883120313E0006D
:10121A0018292430F00070089F044B293030F00060
:10122A0070089F044B296308F000F1017108003A25
:10123A00031920294B297008003A03190E29013A8B
:10124A00031913294B291E08DF00831603131E08EE
:10125A0083120313DE003B292C30F00070089F0430
:10126A004B292830F00070089F044B296308F000CE
:10127A00F1017108003A031943294B297008003A11
:10128A0003193129013A031936294B290C138C1CED
:10129A004F2950295A290130FA027A08031D562982
:1012AA0057295929E801E80A8C1074088A0073083A
:1012BA008400720E8300FE0E7E0E09004A308312ED
:1012CA000313A8008330A900AA010530AB0000303F
:1012DA00AC000A168A119B250A128A15423083121B
:1012EA000313A8008330A900AA01AA0A0530AB009B
:1012FA000030AC000A168A119B250A128A153A3068
:10130A0083120313A8008330A9000230B00030080A
:10131A00AA000530AB000030AC000A168A119B25E2
:10132A000A128A15323083120313A8008330A900E7
:10133A000330B0003008AA000530AB000030AC0022
:10134A000A168A119B250A128A152A308312031358
:10135A00A8008330A9000430B0003008AA00053084
:10136A00AB000030AC000A168A119B250A128A15B6
:10137A00223083120313A8008330A9000530B0007D
:10138A003008AA000530AB000030AC000A168A11FA
:10139A009B250A128A151A3083120313A800833078
:1013AA00A9000630B0003008AA000530AB000030B2
:1013BA00AC000A168A119B250A128A15123083126A
:1013CA000313A8008330A9000730B0003008AA0030
:1013DA000530AB000030AC000A168A119B250A12B0
:1013EA008A15080083120313B700E8013708B5000D
:1013FA003508FA003E2A4030B5003508EC06512A75
:10140A000F30B5003508EC00512A4F30B5003508C9
:10141A00EC00512A0130EC02512A6C08B500B601E1
:10142A003608003A03191A2A0F2A3508003A03190E
:10143A00052A403A03190A2A0F2AEC01512A403098
:10144A00B5003508EC00512A0130B5003508EC0723
:10145A00512A6C08B500B6013608003A0319362A33
:10146A00292A35080F3A0319222A403A0319242A4D
:10147A00292A3408B500B6013608003A0319462A63
:10148A00512A3508013A0319002A033A0319122A84
:10149A00013A03192E2A512A0530B0000030B10052
:1014AA006B080A168A118D220A128A1505308312D0
:1014BA000313A8000030A9006C080A168A11EC224E
:1014CA000A128A15831203136C080A168A117322E8
:1014DA000A128A15A03E840083130008831203139C
:1014EA00B5003508EB006A03031D7C2A7D2A932A7E
:1014FA000530B0000030B10020300A168A118D2262
:10150A000A128A15053083120313A8000030A900B5
:10151A006C080A168A11EC220A128A15080074301D
:10152A0083120313A8008430A9000830AA000030EF
:10153A00AB000A168A11AF230A128A1508308312E1
:10154A000313A8000030A90040300A168A11EC22C1
:10155A000A128A159B3083120313A8008430A9004B
:10156A000830AA000030AB000A168A11AF230A120B
:10157A008A15083083120313B0000030B1000A3014
:10158A00A7000030A8006708B400B5013408A2001B
:10159A003508A3006430A0000030A1000A168A11A1
:1015AA00F0250A128A15831203132108AA002008BB
:1015BA00A9000A168A11AA260A128A158312031387
:1015CA002708303E0A168A118D220A128A15083017
:1015DA0083120313B0000030B1000A30A0000030BB
:1015EA00A1006708B400B5013408A2003508A300B9
:1015FA000A168A11F0250A128A1583120313200883
:10160A00303E0A168A118D220A128A1594308312E4
:10161A000313A8008430A9000830AA000030AB00E8
:10162A000A168A11AF230A128A1508308312031385
:10163A00B0000030B1000A30A7000030A8006608E8
:10164A00B400B5013408A2003508A3006430A00034
:10165A000030A1000A168A11F0250A128A1583128F
:10166A0003132108AA002008A9000A168A11AA262B
:10167A000A128A15831203132708303E0A168A11A2
:10168A008D220A128A15083083120313B000003023
:10169A00B1000A30A0000030A1006608B400B5010C
:1016AA003408A2003508A3000A168A11F0250A1286
:1016BA008A15831203132008303E0A168A118D22D6
:1016CA000A128A15080083120313B800650A031D5B
:1016DA006F2B702B752B6C08B6003608E500762C3C
:1016EA006C080A168A1173220A128A15C03E8400EF
:1016FA008313000883120313B60065080A168A11B9
:10170A0073220A128A15C03E8400831300088312CA
:10171A0003133606031D922B932B012C3808031D45
:10172A00972B982B9D2B0130B6003608E707A12B83
:10173A000130B6003608E60701300A168A11DF239F
:10174A000A128A15993083120313A0000630A100E9
:10175A000F30B6003608A2000A168A110A230A12A6
:10176A008A158312031307138C30A0000530A100D9
:10177A000530B6003608A2000A168A110A230A1290
:10178A008A1501300A168A11DF230A128A1599303E
:10179A0083120313A0000630A1000F30B6003608EA
:1017AA00A2000A168A110A230A128A15831203133F
:1017BA0007138C30A0000530A1000530B6003608AA
:1017CA00A2000A168A110A230A128A15831203131F
:1017DA0067086607B600B701B70D1030360637043A
:1017EA00031DF82BF92BFB2BE201E20A0A128A15D8
:1017FA0094220A128A15652C0A168A111A240A12C8
:10180A008A1500300A168A11DF230A128A15EB306C
:10181A0083120313A0008C30A1001E30B6003608D4
:10182A00A2000A168A110A230A128A1583120313BE
:10183A0087126430A0000030A1000A168A119F2284
:10184A000A128A1500300A168A11DF230A128A152B
:10185A00EB3083120313A0008C30A1001E30B600B7
:10186A003608A2000A168A110A230A128A15831256
:10187A0003138712FF30B60065080A168A1173220D
:10188A000A128A15A03E84008312031336088313B2
:10189A008000FF30B6006C080A168A1173220A12F9
:1018AA008A15A03E8400831203133608831380002E
:1018BA00FF30B6003608EB000130B6003608E30602
:1018CA00FF3083120313B6003608E500E401E40A88
:1018DA006430A0000030A1000A168A119F220A1261
:1018EA008A1508005A3083120313A8008430A9000D
:1018FA000530AA000030AB000A168A11AF230A127B
:10190A008A15053083120313A8000030A90040305D
:10191A000A168A11EC220A128A15FC308312031362
:10192A00A8008330A9000530AA000030AB000A16CF
:10193A008A11AF230A128A1583120313B501592D8E
:10194A000430A7000030A8003508B000B101300803
:10195A00A9003108AA000A168A11AA260A128A15AB
:10196A00831203132708593E84008313000803399E
:10197A00B2003208B400462D0430A7000030A80097
:10198A003508B000B1013008A9003108AA000A16CA
:10199A008A11AA260A128A15831203132708593EA6
:1019AA00840083130008B20002300310B20CFF3E19
:1019BA00031DDA2C32080339B3003308B400462D6C
:1019CA000430A7000030A8003508B000B101300883
:1019DA00A9003108AA000A168A11AA260A128A152B
:1019EA00831203132708593E840083130008B200A8
:1019FA0004300310B20CFF3E031DFE2C32080339DB
:101A0A00B3003308B400462D0430A7000030A80004
:101A1A003508B000B1013008A9003108AA000A1639
:101A2A008A11AA260A128A15831203132708593E15
:101A3A00840083130008B20006300310B20CFF3E84
:101A4A00031D222D32080339B3003308B400462D92
:101A5A008312031335080339B000B1013108003A83
:101A6A000319382D462D3008003A0319A52C013ADE
:101A7A000319C12C033A0319E52C013A0319092D5C
:101A8A00462D0A128A158A250A128A158312031309
:101A9A0034060319512D522D552DE201E20A6B2D00
:101AAA000130B0003008B5076708013EB0000030C9
:101ABA0003180130B1003108803A803C031D672DBC
:101ACA0030083502031C6A2D6B2D2D2D053083122B
:101ADA000313A8000030A9000A168A11B8220A12B4
:101AEA008A15831203136208031D7C2D7D2D812D17
:101AFA000130B0003008E70714306706031D862D51
:101B0A00872D892DE201E20A0800831203139F1828
:101B1A008F2D902D912D9F146108803AFF008330FC
:101B2A007F02031D9A2DE9306002031C9D2D9E2D14
:101B3A00C82D831603130D18A32DA42DC02D823092
:101B4A00F6004230F700831203130E08823EA30008
:101B5A000F080318013E423EA40023089B002408F4
:101B6A009C000D10831603130D1400300A168A11F7
:101B7A00DF230A128A1583120313861AC52DC62D6E
:101B8A008A2DA501852E831203136108803AFF006E
:101B9A0080307F02031DD32D143060020318D62D26
:101BAA00D72D022E831603130D18DC2DDD2DF92DEA
:101BBA004130F6002130F700831203130E08413E2C
:101BCA00A3000F080318013E213EA40023089B002E
:101BDA0024089C000D10831603130D1401300A16F5
:101BEA008A11DF230A128A1583120313861AFE2D1D
:101BFA00FF2D8A2DA501A50A852E831203135F08DE
:101C0A00803AFF0083307F02031D0D2EE9305E0209
:101C1A00031C102E112E3E2E831603130D18162E9A
:101C2A00172E332EA130F6001030F700831203135B
:101C3A000E08A13EA3000F080318013E103EA4009F
:101C4A0023089B0024089C000D10831603130D140F
:101C5A0002300A168A11DF230A128A158312031325
:101C6A00861A382E392E8A2D0230A3002308A500A1
:101C7A00852E831203135F08803AFF0080307F02AB
:101C8A00031D492E14305E0203184C2E4D2E7A2E57
:101C9A00831603130D18522E532E6F2E5030F60052
:101CAA000830F700831203130E08503EA3000F08F2
:101CBA000318013E083EA40023089B0024089C0048
:101CCA000D10831603130D1405300A168A11DF232B
:101CDA000A128A1583120313861A742E752E842EFD
:101CEA000330A3002308A500852E831603130D10C5
:101CFA001F3083120313A300230887058A2D8A2D18
:101D0A00831603130D101F3083120313A300230835
:101D1A0087050830A0000030A1000A168A119F2208
:101D2A000A128A1583120313861E9C2E9D2E972E45
:101D3A009F14F430A0000130A1000A168A119F22D4
:101D4A000A128A1583120313250808009430831295
:101D5A000313A8008330A9000530AA000030AB00A5
:101D6A000A168A11AF230A128A1583120313B501C0
:101D7A00E22F0430A7000030A8003508B000B101F6
:101D8A003008A9003108AA000A168A11AA260A12DE
:101D9A008A15831203132708593E84008313000807
:101DAA000339B2003208B400B72F0430A70000305C
:101DBA00A8003508B000B1013008A9003108AA000E
:101DCA000A168A11AA260A128A15831203132708E9
:101DDA00593E840083130008B20002300310B20C8B
:101DEA00FF3E031DF32E32080339B3003308B40053
:101DFA00B72F0430A7000030A8003508B000B101A1
:101E0A003008A9003108AA000A168A11AA260A125D
:101E1A008A15831203132708593E84008313000886
:101E2A00B20004300310B20CFF3E031D172F320814
:101E3A000339B3003308B400B72F0430A7000030C9
:101E4A00A8003508B000B1013008A9003108AA007D
:101E5A000A168A11AA260A128A1583120313270858
:101E6A00593E840083130008B20006300310B20CF6
:101E7A00FF3E031D3B2F32080339B3003308B40079
:101E8A00B72F8312031335080339B000B1013108A3
:101E9A00003A0319512FB72F3008003A0319BE2E02
:101EAA00013A0319DA2E033A0319FE2E013A0319ED
:101EBA00222FB72F00300A168A11DF230A128A1539
:101ECA00823083120313A0004230A1003F30B000D9
:101EDA003008A2000A168A110A230A128A15CD2F7F
:101EEA0001300A168A11DF230A128A154130831239
:101EFA000313A0002130A1003F30B0003008A20037
:101F0A000A168A110A230A128A15CD2F02300A16D6
:101F1A008A11DF230A128A15A13083120313A00043
:101F2A001030A1003F30B0003008A2000A168A1112
:101F3A000A230A128A15CD2F05300A168A11DF23C1
:101F4A000A128A15503083120313A0000830A10028
:101F5A003F30B0003008A2000A168A110A230A127A
:101F6A008A15CD2F3408B000B1013108003A03199F
:101F7A00BF2FCD2F3008003A03195F2F013A0319FA
:101F8A00752F033A03198B2F013A0319A12FCD2F6D
:101F9A001F3083120313B00030088705FA30A000FF
:101FAA000030A1000A168A119F220A128A150130EE
:101FBA0083120313B0003008B5076708013EB0006A
:101FCA00003003180130B1003108803A803C031D0B
:101FDA00F02F30083502031CF32FF42F462F05305B
:101FEA0083120313A8000030A9000A168A11B82226
:061FFA000A128A1508001E
:1024B20064008001840A04060319003404065A2ABF
:1024C2000034033401340434023405340834003453
:1024D200C03083120313A000200883160313810562
:1024E2000115080083120313A000201F792A7A2AFB
:1024F2007D2A2008D03E7E2A20080800831203137A
:10250200A1010130A0002008A10708302102031C0C
:102512008B2A8C2A822A080083120313B300330801
:10252200B2003208A2003008A3003108A400103023
:102532000A168A11FA240A168A110800AF2A643090
:1025420081000B110B1DA62AA72AA32A0130831290
:102552000313A0020030031CA103A1028312031380
:1025620020082104031DB62AB72AA02A08008312D4
:102572000313A201A20A2808A3002908A40000301C
:102582000A168A11FA240A168A11023083120313D8
:10259200A0000030A1000A168A119F220A168A1191
:1025A20008000A128A154C200A168A110A128A1584
:1025B20005200A168A110A128A113C220A168A1169
:1025C2000A128A15AB260A168A110A128A1577246C
:1025D2000A168A11080083120313AB002B08803EEF
:1025E200AA002A08A2002808A3002908A400003093
:1025F2000A168A11FA240A168A1102308312031368
:10260200A0000030A1000A168A119F220A168A1120
:102612000800831203132108F7002008F60020089F
:102622000E07A30021080318210A0F07A40023089C
:102632009B0024089C000D10831603130D148312B3
:1026420003132208A3002308FA00E801680803190B
:102652002B2B2C2B272B831603130D100800003075
:1026620083120313E0000230E1000030DE0002308A
:10267200DF008601831603138113243095003F3057
:1026820086001E308316031789008B170B178312DF
:1026920003130C13831603130C1780309F00A5300D
:1026A200831203139F00E401E40A0800FF3083123F
:1026B2000313A0002008FA00E801E80AFA308316A2
:1026C20003139200831203138C10831603138C14CA
:1026D200563083120313920097151711971417108F
:1026E200901010129012101310149D151D119D10B0
:1026F2001D10FD30A0002008831603138705080073
:10270200831203136A08031D872B882B972B05302E
:10271200B0000030B10020300A168A118D220A164C
:102722008A1183120313EA01EA0AA42B0530B000CE
:102732000030B1006B080A168A118D220A168A111E
:1027420083120313EA010530A8000030A9006C08C7
:102752000A168A11EC220A168A110800CE2B2908C1
:10276200FF00280884000A128A1100230A168A111F
:10277200AC002C08A2002A08A3002B08A4001030E9
:102782000A168A11FA240A168A11013083120313D7
:10279200A8070318A90A0030A907831203132908FE
:1027A200FF00280884000A128A1100230A168A11DF
:1027B200003A031DDD2BDE2BB02B0800831203131E
:1027C200A2001F30A00020088705FA2B8716192CBB
:1027D2000717192C8717192C87160717192C071793
:1027E2008717192C87178716192C8716071787172B
:1027F200192C2208A000A1012108003A0319022C79
:10280200192C2008003A0319E72B013A0319E92B86
:10281200033A0319EB2B013A0319ED2B073A03197B
:10282200F02B013A0319F32B033A0319F62B192C57
:102832000800053083120313A8000030A9000A160D
:102842008A11B8220A168A1183120313B5011030B5
:102852003506031D2D2C2E2C382C0530A8000030F7
:10286200A90040300A168A11EC220A168A11053094
:1028720083120313B0000030B1003508A03E84007B
:10288200831300080A168A118D220A168A11013052
:1028920083120313B4003408B50720303502031C39
:1028A200532C542C282C0530A8000030A9006C08A9
:1028B2000A168A11EC220A168A110800FF308312C6
:1028C2000313D5005508E5000A128A1563210A167A
:1028D2008A1183120313D601FF30D5005608A03E99
:1028E20084005508831380000130D5005508D607AF
:1028F20020305602031C7E2C7F2C6D2C0530A80044
:102902000030A9000A168A11B8220A168A11831207
:102912000313EC01EA016C080A168A1173220A16E3
:102922008A11A03E84008313000883120313D5008A
:102932005508EB00E9010530A8000030A9006C0839
:102942000A168A11EC220A168A110A168A114B26D5
:102952000A168A110800E83083120313A00003301C
:10296200A1000A168A119F220A168A1183120313E2
:10297200670866020318BE2CBF2CCD2C2630AD0092
:102982008430AE004030AF008430B0000A128A11A9
:1029920054200A168A11EE2C660867020318D22CFC
:1029A200D32CE12C2630AD008430AE004D30AF0088
:1029B2008430B0000A128A1154200A168A11EE2CB1
:1029C200D230AD008330AE008030AF008430B00032
:1029D2000A128A1154200A168A11E830831203134C
:1029E200A0000330A1000A168A119F220A168A113A
:1029F200080083120313A7002208A5000430031065
:102A0200A50CFF3E031D002D2508203E2704A6002D
:102A1200230884008317241C8313260880000A16C7
:102A22008A117F220A168A11831203132308840053
:102A32008317241C83130008DF39A50023088400B0
:102A42008317241C83132508800022080F39203E97
:102A52002704A500230884008317241C8313250858
:102A620080000A168A117F220A168A118312031322
:102A7200230884008317241C83130008DF39A50070
:102A8200230884008317241C831325088000080070
:102A92000A168A1169220A168A11831203132A0856
:102AA200840083172B1C831380010F30A000003099
:102AB200A1000A168A119F220A168A11283083124F
:102AC2000313AC002C08A2002A08A3002B08A400C0
:102AD20000300A168A11FA240A168A110C3083125F
:102AE2000313AC002C08A2002A08A3002B08A400A0
:102AF20000300A168A11FA240A168A118312031365
:102B02002A08A8002B08A9000A168A11B8220A1658
:102B12008A11063083120313AC002C08A2002A0883
:102B2200A3002B08A40000300A168A11FA240A1600
:102B32008A11080083120313AF012A08AD00023084
:102B42000310AD0DFF3E031DA12D03102D0D2F040B
:102B52004038AE002E08A2002B08A3002C08A400C7
:102B620000300A168A11FA240A168A1183120313F4
:102B72002908FF00280884000A128A1100230A1675
:102B82008A11AD002D08A2002B08A3002C08A40076
:102B920010300A168A11FA240A168A110130831299
:102BA2000313A8070318A90A0030A9070130AD00D2
:102BB2002D08AF0708302F02031CE02DE12D9E2DBA
:102BC2008030AD002D08A2002B08A3002C08A40021
:102BD20000300A168A11FA240A168A110800831292
:102BE2000313A601A31FF62DF72DFE2DA209A3099B
:102BF200A20A0319A30AA601A60AA11F012E022EE8
:102C0200072EA009A109A00A0319A10A200821047C
:102C120003190C2E0D2E3C2EA501A50A1B2E0130E8
:102C22000310A00DA10DFF3E031D112E0130A400C3
:102C32002408A507A11F1E2E1F2E102E21082302D5
:102C4200031D252E20082202031C282E292E2F2E9A
:102C52002008A2022108031CA303A30201300310CF
:102C6200A10CA00CFF3E031D302E0130A502031D56
:102C72003B2E3C2E1F2E26080319402E412E462E97
:102C8200A209A309A20A0319A30A2308A100220880
:102C9200A0000800333084002030FF00831380013D
:102CA200840AFF0B4F2E83120313D301A32E1108A4
:102CB200B0000E080339023E013E612E0310B00C33
:102CC200FF3E031D5F2E3008B100B2013108A000A3
:102CD2003208A1000A168A119F220A168A1183124B
:102CE20003130E081F39B0003008D4005408333ED5
:102CF200840083130008031D7F2E802EA32E540808
:102D0200333E84008001800A0430A7000030A8000E
:102D12005308B000B1013008A9003108AA000A1610
:102D22008A11AA260A168A11831203132708B200EF
:102D32005408C03E84003208831380000130B00082
:102D42003008D30720305306031DA82EA92E582E73
:102D5200080083120313AD01A81FB02EB12EB82EA6
:102D6200A709A809A70A0319A80AAD01AD0AAA1F53
:102D7200BB2EBC2EC52EA909AA09A90A0319AA0AA3
:102D82000130AB002B08AD06AE01AF0127082804C5
:102D92000319CC2ECD2E042FAC01AC0ADB2E013050
:102DA2000310A70DA80DFF3E031DD12E0130AB006D
:102DB2002B08AC07A81FDE2EDF2ED02E0130031009
:102DC200AE0DAF0DFF3E031DE02E28082A02031DA3
:102DD200EC2E27082902031CEF2EF02EF72E2708CF
:102DE200A9022808031CAA03AA022E140130031008
:102DF200A80CA70CFF3E031DF82E0130AC02031DE8
:102E0200032F042FDF2E2D080319082F092F0E2F51
:102E1200AE09AF09AE0A0319AF0A2F08A8002E089F
:102E2200A7000800183083120313A8008430A900F9
:102E32000830AA000030AB000A168A11AF230A1626
:102E42008A11633083120313A8008330A90005306E
:102E5200AA000030AB000A168A11AF230A168A11A3
:102E6200053083120313A8000030A90040300A166F
:102E72008A11EC220A168A11673083120313A80002
:102E82008430A9000530AA000030AB000A168A116E
:102E9200AF230A168A1183120313861A512F522F57
:102EA2004C2F0830A0000030A1000A168A119F2280
:102EB2000A168A1183120313861E602F612F5B2F5D
:102EC2000830A0000030A1000A168A119F220A16BB
:102ED2008A11083083120313A8000030A9000A16D1
:102EE2008A11B8220A168A11053083120313A80028
:102EF2000030A9000A168A11B8220A168A11831212
:102F02000313E7010800843083120313A8008330FF
:102F1200A9000830AA000030AB000A168A11AF23BC
:102F22000A168A11633083120313A8008330A900A2
:102F32000530AA000030AB000A168A11AF230A1628
:102F42008A11053083120313A8000030A900403013
:102F52000A168A11EC220A168A11673083120313A9
:102F6200A8008430A9000530AA000030AB000A1680
:102F72008A11AF230A168A1183120313861AC22FEB
:102F8200C32FBD2F0830A0000030A1000A168A11FD
:102F92009F220A168A1183120313861ED12FD22F63
:102FA200CC2F0830A0000030A1000A168A119F22FF
:102FB2000A168A11053083120313A8000030A900F3
:102FC2000A168A11B8220A168A11083083120313CC
:102FD200A8000030A9000A168A11B8220A168A111E
:102FE20083120313E701E6010A128A1594220A16D4
:0E2FF2008A110A168A111A240A168A1108007A
:04400E00F2E0FFFEDF
:00000001FF
