:020000040000FA
:060000000A128A11F02F24
:100D380008340034C030F0007008831603138105AE
:100D480001150800F1010130F0007008F1070830C2
:100D58007102031CB02EB12EA72E0800FB007B08E1
:100D6800FA007A08F2007808F3007908F4000230F3
:100D78000A128A1137270A128A110800F201F20AA8
:100D88007808F3007908F40000300A128A1137272E
:100D98000A128A110230F0000030F1000A128A119A
:100DA800D8260A128A110800E82E64308312031329
:100DB80081000B110B1DE12EE22EDE2E0130F00218
:100DC8000030031CF103F10270087104031DED2EBD
:100DD800EE2ED92E08000A128A119E260A128A11AE
:100DE8007A08840083177B1C831380010F30F0007E
:100DF8000030F1000A128A11D8260A128A11283006
:100E0800FC007C08F2007A08F3007B08F40000304C
:100E18000A128A1137270A128A110C30FC007C0842
:100E2800F2007A08F3007B08F40000300A128A11F5
:100E380037270A128A117A08F8007B08F9000A1283
:100E48008A11C2260A128A110630FC007C08F200B8
:100E58007A08F3007B08F40000300A128A11372759
:100E68000A128A110800F7007208F039013E770467
:100E7800F500730884008317741C831375088000B9
:100E88000A128A11A6260A128A1173088400831787
:100E9800741C83130008FE39F50073088400831757
:100EA800741C8313750880007208F5000330031062
:100EB800F50DFF3E031D5B2F0310750D013E7704F2
:100EC800F600730884008317741C83137608800067
:100ED8000A128A11A6260A128A1173088400831737
:100EE800741C83130008FE39F50073088400831707
:100EF800741C8313750880000800831603130F10F1
:100F080088010830FA000030FB000A128A11EF2627
:100F18000A128A110830F8000030F9000A128A1102
:100F2800C2260A128A11E830F0000330F1000A12D2
:100F38008A11D8260A128A110830F8000030F90000
:100F480054300A128A11B2260A128A11E830F000C7
:100F58000330F1000A128A11D8260A128A110830C1
:100F6800F8000030F90045300A128A11B2260A1238
:100F78008A11E830F0000330F1000A128A11D826ED
:100F88000A128A110830F8000030F90053300A12AA
:100F98008A11B2260A128A11E830F0000330F100F3
:100FA8000A128A11D8260A128A110830F80000306D
:100FB800F90054300A128A11B2260A128A11E8304E
:100FC800F0000330F1000A128A11D8260A128A1199
:100FD8008E2F0A128A1100280A128A119C260A12D8
:100FE8008A11A0000A128A119D260A128A11A100EC
:080FF80083010A128A11812F06
:04400E00F2E0FFFEDF
:00000001FF
