:020000040000FA
:060000000A128A110E280D
:10000800FE00030EF2000408F3000A08F4000A12C6
:100018008A11422C0A128A1111280A128A15D4242C
:100028000A128A11E6000A128A15D5240A128A11C0
:10003800E7000A128A15D6240A128A11E8000A1261
:100048008A15D7240A128A11E9000A128A11FD2793
:100058000A128A11FB00831790308400B0300A120C
:100068008A15D8240A128A118313A0308400E0303C
:100078000A128A15D8240A128A1157308400663069
:100088000A128A15D8240A128A11F601F701F80112
:10009800F901FA0183010A128A15BF2E831203138C
:1000A8009F185728582859289F14861A5C285D28B5
:1000B80062285C080319612862286B2806196528DC
:1000C8006628C1285C03031D6A286B28C1285D03C4
:1000D800031D6F287028C1280630A0000030A10039
:1000E8000A128A153E250A128A1183120313DD01AA
:1000F80065080A128A15EA240A128A11A03E8400A9
:100108008313000A031D89288A28D528831203131C
:1001180065080A128A15EA240A128A11C03E840068
:100128008313000883120313B90065080A128A159D
:10013800EA240A128A11A03E8400831203133908A4
:100148008313800065080A128A15EA240A128A11A4
:10015800C03E84008313000883120313B9003908D2
:10016800E4005C080A128A1198230A128A110A12FA
:100178008A157A260A128A11D528861EC428C52807
:10018800CA285C080319C928CA28D328061DCD28FF
:10019800CE28D5285C03031DD228D328D528DD0115
:1001A800DD0A831203130C1DDA28DB28FB286208FA
:1001B800031DDF28E028EA281930B9003908E200D1
:1001C8000A128A1507260A128A11EC280130E2025F
:1001D800831203130E08503EB9000F080318013E9E
:1001E800C33EBA00390895003A0896000C115A081F
:1001F800803AFF0083307F02031D042985305902AD
:10020800031C072908291A298312031361080319F3
:100218000E290F29AC290230B9003908B4001E3064
:100228000A128A11D6240A128A11AC2983120313DE
:100238005A08803AFF0080307F02031D2529643068
:1002480059020318282929293B2983120313610815
:1002580003192F293029AC290330B9003908B40013
:100268001E300A128A11D6240A128A11AC29831266
:1002780003135A08803AFF0083307F02031D462982
:1002880021305902031C49294A295C298312031386
:100298006108031950295129AC290230B9003908DD
:1002A800B4003C300A128A11D6240A128A11AC29E9
:1002B800831203135A08803AFF0080307F02031D1F
:1002C8006729C830590203186A296B297D298312C6
:1002D80003136108031971297229AC290330B90085
:1002E8003908B4003C300A128A11D6240A128A113D
:1002F800AC29FD308312031357060330031958063F
:10030800031D872988299629610803198C298D29B5
:10031800AC29B401B40A3E300A128A11D6240A1252
:100328008A11AC2957085804031D9B299C29AA291E
:1003380061080319A029A129AC29B401B40A3E30E7
:100348000A128A11D6240A128A11AC29E101E10A9B
:1003580008000A128A15E0240A128A11831203136C
:100368002A08840083172B1C831380010F30A000F8
:100378000030A1000A128A153E250A128A11283077
:1003880083120313AC002C08A2002A08A3002B0830
:10039800A40000300A128A1504270A128A110C30A8
:1003A80083120313AC002C08A2002A08A3002B0810
:1003B800A40000300A128A1504270A128A1183122F
:1003C80003132A08A8002B08A9000A128A15572522
:1003D8000A128A11063083120313AC002C08A200FB
:1003E8002A08A3002B08A40000300A128A15042743
:0603F8000A128A11080040
:1004000002308A000408840A820700341834183441
:100410001434043404340334023403341C341434E8
:100420001834143400340534073405340E341534CC
:1004300015341F340A340E340E34003400340E34B4
:100440000E341F341F341F3404340E34003404348B
:100450000E341F341F340E3404340E340034003490
:100460000A341F341F340E3404340034003404348E
:100470000E341F340E3404340034003400340A3493
:100480000A340034153411340E34003450347234CC
:1004900065347334733420347434683465342034F0
:1004A00062347534743474346F346E3400342034F0
:1004B00043346F346E34633465346E347434723460
:1004C0006134743469346F346E3421340034203430
:1004D000203420344E344F342034573449344E3491
:1004E0004E34453452342134003420342034203406
:1004F0002034573449344E344E3445345234213448
:1005000021340034203420342034203450344C340E
:100510004134593445345234203431340034203499
:1005200020342034203450344C3441345934453450
:1005300052342034323400342034203420342034F7
:1005400074346F34203473347434613472347434DA
:1005500000342034203420342034203453346334A5
:100560006F34723465343A3400342034203420340B
:100570002034203420345434493445344434003455
:1005800020342034503432343A342034003420348F
:10059000503431343A342034003408308312031399
:1005A000A8000030A900A4300A128A15DC250A121E
:1005B0008A11083083120313A8000030A9004030CC
:1005C0000A128A1571250A128A1108308312031340
:1005D000A8000030A900C2300A128A15DC250A12D0
:1005E0008A11083083120313B0000030B1000A30C2
:1005F000A7000030A8006008B400B5013408A200CC
:100600003508A3006430A0000030A1000A128A154A
:10061000A5270A128A11831203132108AA002008B1
:10062000A9000A128A116F260A128A118312031373
:100630002708303E0A128A1516250A128A11083038
:1006400083120313B0000030B1000A30A000003064
:10065000A1006008B400B5013408A2003508A30069
:100660000A128A15A5270A128A1183120313200879
:10067000303E0A128A1516250A128A110830831292
:100680000313A8000030A900BB300A128A15DC252C
:100690000A128A11083083120313B0000030B1002F
:1006A0000A30A7000030A8005F08B400B501340884
:1006B000A2003508A3006430A0000030A1000A1297
:1006C0008A15A5270A128A11831203132108AA008A
:1006D0002008A9000A128A116F260A128A118312B1
:1006E00003132708303E0A128A1516250A128A11AA
:1006F000083083120313B0000030B1000A30A000AC
:100700000030A1005F08B400B5013408A20035082C
:10071000A3000A128A15A5270A128A11831203134D
:100720002008303E0A128A1516250A128A1108007E
:1007300083120313B8005E0A031D9F2BA02BA52B69
:100740006508B6003608DE00412C65080A128A15D5
:10075000EA240A128A11C03E84008313000883121F
:100760000313B6005E080A128A15EA240A128A11D7
:10077000C03E840083130008831203133606031D52
:10078000C22BC32BE52B3808031DC72BC82BCD2B41
:100790000130B6003608E007D12B0130B60036082C
:1007A000DF0760085F07B600B701B70D10303606E7
:1007B0003704031DDC2BDD2BDF2BDB01DB0A0A12E8
:1007C0008A11CD220A128A112C2C0A128A157A2635
:1007D0000A128A11883083120313A0001330A1007B
:1007E0007D30B6003608A2000A128A158F250A123B
:1007F0008A11103083120313A0002730A1007D302E
:10080000B6003608A2000A128A158F250A128A112C
:10081000FF3083120313B6005E080A128A15EA2419
:100820000A128A11A03E8400831203133608831330
:100830008000FF30B60065080A128A15EA240A1201
:100840008A11A03E840083120313360883138000AC
:10085000FF30B6003608E400FF3083120313B60001
:100860003608DE000130B6003608DC06DD01DD0AA0
:100870006430A0000030A1000A128A153E250A1239
:100880008A110800831203130D1C472C482C5E2C80
:10089000831603130D1C4D2C4E2C5E2C76088312F0
:1008A00003139B0703189C0A77089C071D1C592CEF
:1008B0005A2C5C2C1D105D2C1D140D1083120C1F66
:1008C000622C632CBF2C1F083C39F0007008F50027
:1008D000C330F00070089F052C3075060319712C89
:1008E000722C782C28307506031D772C782C9B2CC5
:1008F0001E08DA00831603131E0883120313D9009F
:100900008B2C2430F00070089F04BE2C3030F00097
:1009100070089F04BE2C5C08F000F1017108003AD9
:100920000319932CBE2C7008003A0319812C013A4C
:100930000319862CBE2C1E08D800831603131E082C
:1009400083120313D700AE2C2C30F00070089F04E4
:10095000BE2C2830F00070089F04BE2C5C08F0000C
:10096000F1017108003A0319B62CBE2C7008003A48
:100970000319A42C013A0319A92CBE2C0C138C1CAE
:10098000C22CC32CCD2C0130FA027A08031DC92CCD
:10099000CA2CCC2CE101E10A8C1074088A0073087F
:1009A0008400720E8300FE0E7E0E09008312031374
:1009B000B700E1013708B5003508FA001D2D4030B9
:1009C000B5003508E506302D0F30B5003508E500D7
:1009D000302D4F30B5003508E500302D0130E502EF
:1009E000302D6508B500B6013608003A0319F92C18
:1009F000EE2C3508003A0319E42C403A0319E92C8F
:100A0000EE2CE501302D4030B5003508E500302DE5
:100A10000130B5003508E507302D6508B500B60191
:100A20003608003A0319152D082D35080F3A031919
:100A3000012D403A0319032D082D3408B500B601E5
:100A40003608003A0319252D302D3508013A0319CF
:100A5000DF2C033A0319F12C013A03190D2D302D27
:100A60000530B0000030B10064080A128A1516255E
:100A70000A128A11053083120313A8000030A9005E
:100A800065080A128A1571250A128A110A128A1536
:100A900004250A128A11831203136303031D512DC7
:100AA000522D682D0530B0000030B10020300A1200
:100AB0008A1516250A128A11053083120313A8001D
:100AC0000030A90065080A128A1571250A128A11D8
:100AD000080083120313DB010530A8000030A900D1
:100AE0000A128A1557250A128A1108308312031335
:100AF000A8000030A9000A128A1557250A128A1187
:100B0000083083120313A8000030A90052300A12E3
:100B10008A15DC250A128A11053083120313A800F6
:100B20000030A90041300A128A15DC250A128A1108
:100B3000053083120313A8000030A90040300A12C8
:100B40008A1571250A128A11053083120313A80031
:100B50000030A90097300A128A15DC250A128A1182
:100B600083120313861AB52DB62DB02D0830A000C0
:100B70000030A1000A128A153E250A128A1183123A
:100B80000313861EC42DC52DBF2D0830A0000030D4
:100B9000A1000A128A153E250A128A110530831215
:100BA0000313A8000030A9000A128A1557250A125B
:100BB0008A11083083120313A8000030A9000A121A
:100BC0008A1557250A128A1183120313E001DF01E7
:100BD0000A128A11CD220A128A110A128A157A265D
:100BE0000A128A11080083120313A8010530A90014
:100BF0000030AA0039300A128A1553270A128A11C6
:100C000083120313A801A80A0530A9000030AA0026
:100C100031300A128A1553270A128A1102308312C0
:100C20000313AF002F08A8000530A9000030AA0068
:100C300029300A128A1553270A128A1103308312A7
:100C40000313AF002F08A8000530A9000030AA0048
:100C500021300A128A1553270A128A11043083128E
:100C60000313AF002F08A8000530A9000030AA0028
:100C700019300A128A1553270A128A110530831275
:100C80000313AF002F08A8000530A9000030AA0008
:100C900011300A128A1553270A128A11063083125C
:100CA0000313AF002F08A8000530A9000030AA00E8
:100CB00009300A128A1553270A128A110730831243
:100CC0000313AF002F08A8000530A9000030AA00C8
:100CD00001300A128A1553270A128A11080083125A
:100CE0000313AD01A81F752E762E7D2EA709A80926
:100CF000A70A0319A80AAD01AD0AAA1F802E812EEA
:100D00008A2EA909AA09A90A0319AA0A0130AB0067
:100D10002B08AD06AE01AF01270828040319912E58
:100D2000922EC92EAC01AC0AA02E01300310A70DE3
:100D3000A80DFF3E031D962E0130AB002B08AC071B
:100D4000A81FA32EA42E952E01300310AE0DAF0DBB
:100D5000FF3E031DA52E28082A02031DB12E2708D9
:100D60002902031CB42EB52EBC2E2708A902280880
:100D7000031CAA03AA022E1401300310A80CA70C0E
:100D8000FF3E031DBD2E0130AC02031DC82EC92E2F
:100D9000A42E2D080319CD2ECE2ED32EAE09AF09C9
:100DA000AE0A0319AF0A2F08A8002E08A7000800F2
:100DB00083120313AE00DD01DD0A382F0530A800D1
:100DC0000030A9000A128A1557250A128A11053027
:100DD00083120313A8000030A9002E080A128A15F6
:100DE000DC250A128A1183120313E1017830AD0069
:100DF0002D08FA00002F861AFE2EFF2E002FDD018F
:100E000061080319042F052FFB2E0530A8000030C0
:100E1000A9000A128A1557250A128A110530831271
:100E20000313A8000030A90040300A128A1571256A
:100E30000A128A11053083120313A8000030A9009A
:100E40002C080A128A15DC250A128A118312031350
:100E5000E1017830AD002D08FA00332F861A312FCA
:100E6000322F332FDD0161080319372F382F2E2F32
:100E70005D0303193C2F3D2FDE2E0800FF30831247
:100E80000313D5005508DE000A128A1528250A1218
:100E90008A110A128A11F3250A128A118312031386
:100EA000D601FF30D5005608A03E840055088313B4
:100EB00080000130D5005508D60720305602031CAB
:100EC000622F632F512F0530A8000030A9000A12AD
:100ED0008A1557250A128A1183120313E501E301CB
:100EE0000A128A1504250A128A1183120313E201D9
:100EF000E101E10A0530A8000030A90065080A12E6
:100F00008A1571250A128A11FF3083120313D50046
:100F10005508FA00FA308316031392008312031364
:100F20008C10831603138C14563083120313920013
:100F30000A128A119E270A128A110800333084008F
:100F40002030FF0083138001840AFF0BA22F83123D
:100F50000313D301F62F1108B0000E080339023E27
:100F6000013EB42F0310B00CFF3E031DB22F30081A
:100F7000B100B2013108A0003208A1000A128A159E
:100F80003E250A128A11831203130E081F39B0007E
:100F90003008D4005408333E840083130008031D36
:100FA000D22FD32FF62F5408333E84008001800ABD
:100FB0000430A7000030A8005308B000B101300889
:100FC000A9003108AA000A128A116F260A128A1192
:100FD000831203132708B2005408C03E840032086D
:100FE000831380000130B0003008D307203053064F
:0C0FF000031DFB2FFC2FAB2F0800013469
:1019A800083400340534003464008001840A0406D5
:1019B800031900340406D92CC03083120313A00085
:1019C80020088316031381050115080083120313E9
:1019D800A000201FF02CF12CF42C2008D03EF52C70
:1019E8002008080083120313A1010130A000200879
:1019F800A10708302102031C022D032DF92C080031
:101A08008312031365080A128A15EA240A128A1532
:101A1800A03E84008313000883120313A100210849
:101A2800E400080083120313B3003308B20032083D
:101A3800A2003008A3003108A40010300A128A1549
:101A480004270A128A150800831203139715171121
:101A580097141710901010129012101310149D154F
:101A68001D119D101D10FD30A000200883160313C2
:101A7800870508004E2D643081000B110B1D452D84
:101A8800462D422D013083120313A0020030031C9F
:101A9800A103A1028312031320082104031D552D5D
:101AA800562D3F2D080083120313A201A20A28080D
:101AB800A3002908A40000300A128A1504270A1274
:101AC8008A15023083120313A0000030A1000A1205
:101AD8008A153E250A128A15080083120313AB00E3
:101AE8002B08803EAA002A08A2002808A30029087B
:101AF800A40000300A128A1504270A128A15023037
:101B080083120313A0000030A1000A128A153E2593
:101B18000A128A150800831203132108F700200807
:101B2800F6000E082007A3000F0803180F0A210764
:101B3800A40023089B0024089C000D10831603139F
:101B48000D14831203132208A3002308FA00E101ED
:101B580061080319B02DB12DAC2D831603130D1098
:101B68000800003083120313D9000230DA00003075
:101B7800D7000230D800860183160313811324305E
:101B880095003F3086001E308316031789008B1797
:101B98000B17831203130C13831603130C178030CF
:101BA8009F00A530831203139F00DD01DD0A0800A2
:101BB80083120313AB00FA2D2B0884000A128A1132
:101BC80000220A128A15AA002A08A2002808A300DF
:101BD8002908A40010300A128A1504270A128A1547
:101BE800013083120313AA002A08AB072B088400CC
:101BF8000A128A1100220A128A15003A031D052EBC
:101C0800062EE02D0800831203136308031D0D2E12
:101C18000E2E1D2E0530B0000030B10020300A1203
:101C28008A1516250A128A1583120313E301E30A9B
:101C38002A2E0530B0000030B10064080A128A1557
:101C480016250A128A1583120313E3010530A8002A
:101C58000030A90065080A128A1571250A128A152A
:101C68000800E83083120313A0000330A1000A1211
:101C78008A153E250A128A158312031360085F022B
:101C88000318472E482E532E7D30AF002F08AC0086
:101C980070300A128A11D8260A128A156E2E5F0829
:101CA80060020318582E592E642E8A30AF002F0870
:101CB800AC0070300A128A11D8260A128A156E2EC4
:101CC800B030AF002F08AC0062300A128A11D82653
:101CD8000A128A15E83083120313A0000330A1000A
:101CE8000A128A153E250A128A1508000530831241
:101CF8000313A8000030A9000A128A1557250A12F2
:101D08008A1583120313B50110303506031D8D2E75
:101D18008E2E982E0530A8000030A90040300A12F7
:101D28008A1571250A128A15053083120313B0002B
:101D38000030B1003508A03E8400831300080A1261
:101D48008A1516250A128A15013083120313B40066
:101D58003408B50720303502031CB32EB42E882E64
:101D68000530A8000030A90065080A128A157125F7
:101D78000A128A150800831603130F1088018501BB
:101D8800831603178801053083120313AA00003055
:101D9800AB000A128A11AD210A128A150830831283
:101DA8000313AA000030AB000A128A11AD210A12EF
:101DB8008A150A128A15B5250A128A150A128A1175
:101DC8003E270A128A150A128A1169250A128A15EB
:101DD80083120313DC01F52E0A128A1152200A120B
:101DE8008A15831203135B080319FB2EFC2EF02EB1
:101DF8000A128A1535260A128A150A128A110E281D
:101E080083120313A7002208A50004300310A50CB1
:101E1800FF3E031D0A2F2508203E2704A60023089D
:101E280084008317241C8313260880000A128A154D
:101E3800F6240A128A1583120313230884008317D1
:101E4800241C83130008DF39A500230884008317A6
:101E5800241C83132508800022080F39203E2704FC
:101E6800A500230884008317241C831325088000F9
:101E78000A128A15F6240A128A15831203132308F4
:101E880084008317241C83130008DF39A500230866
:101E980084008317241C83132508800008008312FC
:101EA8000313AE00AD012808AB0002300310AB0DE0
:101EB800FF3E031D5A2F03102B0D2D044038AC0094
:101EC8002C08A2002908A3002A08A40000300A123E
:101ED8008A1504270A128A15831203132E08840010
:101EE8000A128A1100220A128A15AB002B08A200D6
:101EF8002908A3002A08A40010300A128A1504270A
:101F08000A128A15013083120313AB002B08AE079F
:101F18000130AB002B08AD0708302D02031C952FAC
:101F2800962F572F8030AB002B08A2002908A3005A
:101F38002A08A40000300A128A1504270A128A15F2
:101F4800080083120313A601A31FAB2FAC2FB32FD6
:101F5800A209A309A20A0319A30AA601A60AA11F96
:101F6800B62FB72FBC2FA009A109A00A0319A10AEF
:101F7800200821040319C12FC22FF12FA501A50A9A
:101F8800D02F01300310A00DA10DFF3E031DC62F59
:101F98000130A4002408A507A11FD32FD42FC52FD3
:101FA80021082302031DDA2F20082202031CDD2F3B
:101FB800DE2FE42F2008A2022108031CA303A3029A
:101FC80001300310A10CA00CFF3E031DE52F0130CA
:101FD800A502031DF02FF12FD42F26080319F52F82
:101FE800F62FFB2FA209A309A20A0319A30A2308A3
:081FF800A1002208A00008006E
:04400E00F2E0FFFEDF
:00000001FF
