:020000040000FA
:060000000A128A1110280B
:10000800FE00030E83120313A1000408A2000A08CD
:10001800A3000A128A15B92F0A128A1113280A1284
:100028008A11F9270A128A11E8000A128A11FA2796
:100038000A128A11E9000A128A11FB270A128A1188
:10004800EA000A128A11FC270A128A11EB008317A8
:1000580090308400B0300A128A1515260A128A11C7
:100068008313A0308400E0300A128A1515260A127C
:100078008A115B30840068300A128A1515260A1224
:100088008A11FC01FD0183010A128A15392F831296
:1000980003139F185028512852289F14861A552850
:1000A8005628AC285F03031D5A285B28AC28063065
:1000B800A4000030A5000A128A157B260A128A11AC
:1000C80083120313DF0167080A128A1533260A12FE
:1000D8008A11A03E84008313000A031D7428752822
:1000E800B2288312031367080A128A1533260A12E4
:1000F8008A11C03E84008313000883120313BC00D6
:1001080067080A128A1533260A128A11A03E84004B
:10011800831203133C088313800067080A128A15A8
:1001280033260A128A11C03E840083130008831202
:100138000313BC003C08E60000300A128A1192241E
:100148000A128A110A128A1574270A128A11B22809
:10015800861EAF28B028B228DF01DF0A83120313F6
:100168000C1DB728B828D8286408031DBC28BD284A
:10017800C7281930BC003C08E4000A128A11CB27B2
:100188000A128A11C9280130E402831203130E08E7
:10019800503EBC000F080318013EC33EBD003C089A
:1001A80095003D0896000C115E08803AFF008330E8
:1001B8007F02031DE12885305D02031CE428E52841
:1001C800F7288312031363080319EB28EC288929FD
:1001D8000230BC003C08B8001E300A128A115522B1
:1001E8000A128A118929831203135E08803AFF00D4
:1001F80080307F02031D022964305D02031805293F
:100208000629182983120313630803190C290D29D9
:1002180089290330BC003C08B8001E300A128A1134
:1002280055220A128A118929831203135E08803A1B
:10023800FF0082307F02031D232959305D02031C11
:1002480026292729392983120313630803192D291D
:100258002E2989290230BC003C08B8003C300A121B
:100268008A1155220A128A118929831203135E08FA
:10027800803AFF0081307F02031D442990305D02DF
:100288000318472948295A298312031363080319B5
:100298004E294F2989290330BC003C08B8003C305E
:1002A8000A128A1155220A128A118929FD308312ED
:1002B80003135B06033003195C06031D64296529D3
:1002C80073296308031969296A298929B801B80AB1
:1002D8003E300A128A1155220A128A1189295B08AE
:1002E8005C04031D782979298729630803197D2966
:1002F8007E298929B801B80A3E300A128A11552286
:100308000A128A118929E301E30A080008308312D6
:100318000313AC000030AD006F300A128A150E27A7
:100328000A128A11083083120313AC000030AD00A2
:1003380040300A128A15C9260A128A110830831217
:100348000313AC000030AD0082300A128A150E2764
:100358000A128A11083083120313B4000030B50062
:100368000A30AB000030AC006208B800B9013808A8
:10037800A6003908A7006430A4000030A5000A12BE
:100388008A1134260A128A11831203132508AE0033
:100398002408AD000A128A110C250A128A11831248
:1003A80003132B08303E0A128A11E8220A128A1116
:1003B800083083120313B4000030B5000A30A400DB
:1003C8000030A5006208B800B9013808A60039084D
:1003D800A7000A128A1134260A128A1183120313FB
:1003E8002408303E0A128A11E8220A128A110830BB
:1003F80083120313AC000030AD007B300A128A155B
:100408000E270A128A11083083120313B400003031
:10041800B5000A30AB000030AC006108B800B90183
:100428003808A6003908A7006430A4000030A500E9
:100438000A128A1134260A128A1183120313250814
:10044800AE002408AD000A128A110C250A128A117E
:10045800831203132B08303E0A128A11E8220A126B
:100468008A11083083120313B4000030B5000A3033
:10047800A4000030A5006108B800B9013808A6003A
:100488003908A7000A128A1134260A128A1183121F
:1004980003132408303E0A128A11E8220A128A112C
:1004A800080083120313BB00E3013B08B9003908B5
:1004B800FD009C2A4030B9003908E706AF2A0F3002
:1004C800B9003908E700AF2A4F30B9003908E7000A
:1004D800AF2A0130E702AF2A6708B900BA013A0823
:1004E800003A0319782A6D2A3908003A0319632A51
:1004F800403A0319682A6D2AE701AF2A4030B9004B
:100508003908E700AF2A0130B9003908E707AF2AF0
:100518006708B900BA013A08003A0319942A872AE9
:1005280039080F3A0319802A403A0319822A872A80
:100538003808B900BA013A08003A0319A42AAF2AC0
:100548003908013A03195E2A033A0319702A013A55
:1005580003198C2AAF2A6A08B4006B08B50066082C
:100568000A128A11E8220A128A11831203136A08EE
:10057800AC006B08AD0067080A128A15C9260A1272
:100588008A110A128A1569260A128A11831203131C
:100598006503031DD02AD12AE72A6A08B4006B082C
:1005A800B50020300A128A11E8220A128A11831231
:1005B80003136A08AC006B08AD0067080A128A15B5
:1005C800C9260A128A11080083120313B7003708D4
:1005D800B6003608A6003408A7003508A800103071
:0C05E8000A128A1133270A128A11080037
:1006000003308A000408840A82070034183418343E
:100610001434043404340334023403341C341434E6
:100620001834143400340534073405340E341534CA
:1006300015341F340A340E340E34003400340E34B2
:100640000E341F341F341F3404340E340034043489
:100650000E341F341F340E3404340E34003400348E
:100660000A341F341F340E3404340034003404348C
:100670000E341F340E3404340034003400340A3491
:100680000A340034153411340E34003450347234CA
:1006900065347334733420347434683465342034EE
:1006A00062347534743474346F346E3400342034EE
:1006B00043346F346E34633465346E34743472345E
:1006C0006134743469346F346E342134003420342E
:1006D00020342034203474346F3420347334743430
:1006E00061347234743400342034203420342034A3
:1006F0002034533463346F34723465343A34003404
:1007000020342034503432343A342034003420340D
:10071000503431343A3420340034831203136A08DD
:10072000AC006B08AD000A128A1594260A128A11D1
:10073000083083120313AC000030AD000A128A1592
:1007400094260A128A11083083120313AC00003079
:10075000AD0052300A128A150E270A128A1183122E
:1007600003136A08AC006B08AD0041300A128A1509
:100770000E270A128A11831203136A08AC006B0851
:10078000AD0040300A128A15C9260A128A11831256
:1007900003136A08AC006B08AD0062300A128A15B8
:1007A0000E270A128A1183120313861AD82BD92B0B
:1007B000D32B0830A4000030A5000A128A157B262E
:1007C0000A128A1183120313861EE72BE82BE22BF1
:1007D0000830A4000030A5000A128A157B260A12F0
:1007E0008A11831203136A08AC006B08AD000A1269
:1007F0008A1594260A128A11083083120313AC005A
:100800000030AD000A128A1594260A128A1183124A
:100810000313E201E1010A128A118A210A128A11E4
:100820000A128A1574270A128A1108008312031308
:10083000AC016A08AD006B08AE0039300A128A11AB
:10084000E1260A128A1183120313AC01AC0A6A086A
:10085000AD006B08AE0031300A128A11E1260A128F
:100860008A11023083120313B3003308AC006A0804
:10087000AD006B08AE0029300A128A11E1260A1277
:100880008A11033083120313B3003308AC006A08E3
:10089000AD006B08AE0021300A128A11E1260A125F
:1008A0008A11043083120313B3003308AC006A08C2
:1008B000AD006B08AE0019300A128A11E1260A1247
:1008C0008A11053083120313B3003308AC006A08A1
:1008D000AD006B08AE0011300A128A11E1260A122F
:1008E0008A11063083120313B3003308AC006A0880
:1008F000AD006B08AE0009300A128A11E1260A1217
:100900008A11073083120313B3003308AC006A085E
:10091000AD006B08AE0001300A128A11E1260A12FE
:100920008A11080083120313BB00600A031D992C6F
:100930009A2C9F2C6708BA003A08E0000B2D670834
:100940000A128A1533260A128A11C03E84008313C4
:10095000000883120313BA0060080A128A153326AE
:100960000A128A11C03E8400831300088312031305
:100970003A06031DBC2CBD2CD12C3B08031DC12CF9
:10098000C22CC72C0130BA003A08E207CB2C013048
:10099000BA003A08E1070A128A118A210A128A115A
:1009A000052D0A128A1574270A128A11E83083125B
:1009B0000313A4000330A5000A128A157B260A122D
:1009C0008A11FF3083120313BA0060080A128A15D5
:1009D00033260A128A11A03E8400831203133A08B8
:1009E00083138000FF30BA0067080A128A15332685
:1009F0000A128A11A03E8400831203133A0883135B
:100A00008000FF30BA003A08E600FF30831203137B
:100A1000BA003A08E000080083120313B101AC1FCA
:100A2000122D132D1A2DAB09AC09AB0A0319AC0A10
:100A3000B101B10AAE1F1D2D1E2D272DAD09AE0926
:100A4000AD0A0319AE0A0130AF002F08B106B2019A
:100A5000B3012B082C0403192E2D2F2D662DB00168
:100A6000B00A3D2D01300310AB0DAC0DFF3E031D50
:100A7000332D0130AF002F08B007AC1F402D412DA2
:100A8000322D01300310B20DB30DFF3E031D422D78
:100A90002C082E02031D4E2D2B082D02031C512D58
:100AA000522D592D2B08AD022C08031CAE03AE02AB
:100AB000321401300310AC0CAB0CFF3E031D5A2D59
:100AC0000130B002031D652D662D412D310803193B
:100AD0006A2D6B2D702DB209B309B20A0319B30A3E
:100AE0003308AC003208AB000800FF308312031358
:100AF000D9005908E0000A128A153F260A128A1105
:100B00000A128A1116240A128A1183120313DA01B7
:100B1000FF30D9005A08A03E840059088313800092
:100B20000130D9005908DA0720305A02031C992DE8
:100B30009A2D882D6A08AC006B08AD000A128A1540
:100B400094260A128A1183120313E701E5010A129F
:100B50008A1569260A128A1183120313E401E3013C
:100B6000E30A6A08AC006B08AD0067080A128A1530
:100B7000C9260A128A11FF3083120313D9005908BB
:100B8000FD00FA30831603139200831203138C10B6
:100B9000831603138C1456308312031392000A1227
:100BA0008A11D5250A128A110800373084002030B6
:100BB000FF0083138001840AFF0BD92D83120313D6
:100BC000D7012D2E1108B4000E080339023E013E54
:100BD000EB2D0310B40CFF3E031DE92D3408B500C6
:100BE000B6013508A4003608A5000A128A157B262E
:100BF0000A128A11831203130E081F39B400340835
:100C0000D8005808373E840083130008031D092EBE
:100C10000A2E2D2E5808373E84008001800A0430A9
:100C2000AB000030AC005708B400B5013408AD008B
:100C30003508AE000A128A110C250A128A11831295
:100C400003132B08B6005808C03E840036088313EF
:100C500080000130B4003408D70720305706031D48
:100C6000322E332EE22D080083120313AA01A71F90
:100C70003A2E3B2E422EA609A709A60A0319A70A57
:100C8000AA01AA0AA51F452E462E4B2EA409A50986
:100C9000A40A0319A50A240825040319502E512E6D
:100CA000802EA901A90A5F2E01300310A40DA50D05
:100CB000FF3E031D552E0130A8002808A907A51FD7
:100CC000622E632E542E25082702031D692E240848
:100CD0002602031C6C2E6D2E732E2408A6022508F6
:100CE000031CA703A70201300310A50CA40CFF3EB0
:100CF000031D742E0130A902031D7F2E802E632E4A
:100D00002A080319842E852E8A2EA609A709A60A69
:100D10000319A70A2708A5002608A40008000A123C
:100D20008A151D260A128A11831203132E088400C5
:100D300083172F1C831380010F30A4000030A500FF
:100D40000A128A157B260A128A112830831203138D
:100D5000B0003008A6002E08A7002F08A800003019
:100D60000A128A1133270A128A110C3083120313D4
:100D7000B0003008A6002E08A7002F08A8000030F9
:100D80000A128A1133270A128A11831203132E08BA
:100D9000AC002F08AD000A128A1594260A128A1197
:100DA000063083120313B0003008A6002E08A700F7
:100DB0002F08A80000300A128A1133270A128A115C
:100DC000080083120313B200B1012C08AF000230F7
:100DD0000310AF0DFF3E031DE82E03102F0D31044D
:100DE0004038B0003008A6002D08A7002E08A80043
:100DF00000300A128A1133270A128A118312031350
:100E0000320884000A128A1100230A128A11AF00E4
:100E10002F08A6002D08A7002E08A80010300A12DF
:100E20008A1133270A128A11013083120313AF008B
:100E30002F08B2070130AF002F08B1070830310288
:100E4000031C232F242FE52E8030AF002F08A6008F
:100E50002D08A7002E08A80000300A128A11332797
:100E60000A128A11080083120313AB002608A90096
:100E700004300310A90CFF3E031D392F2908203E22
:100E80002B04AA00270884008317281C83132A0830
:100E900080000A128A154B260A128A118312031344
:100EA000270884008317281C83130008DF39A90052
:100EB000270884008317281C83132908800026082C
:100EC0000F39203E2B04A900270884008317281C13
:100ED0008313290880000A128A154B260A128A11E8
:100EE00083120313270884008317281C8313000828
:100EF000DF39A900270884008317281C83132908D9
:100F000080000800F7007208F50004300310F50CAB
:100F1000FF3E031D862F7508203E7704F6007308F8
:100F200084008317741C8313760880000A128A15C4
:100F300027260A128A11730884008317741C8313EE
:100F40000008DF39F500730884008317741C8313CD
:100F50007508800072080F39203E7704F500730889
:100F600084008317741C8313750880000A128A1585
:100F700027260A128A11730884008317741C8313AE
:100F80000008DF39F500730884008317741C83138D
:100F9000750880000800831203136508031DD12F14
:100FA000D22FE12F6A08B4006B08B50020300A1276
:100FB0008A11E8220A128A1183120313E501E50A55
:100FC000EE2F6A08B4006B08B50066080A128A1191
:100FD000E8220A128A1183120313E5016A08AC00A1
:100FE0006B08AD0067080A128A15C9260A128A1111
:0A0FF0000800083400340534003412
:101C2A0064008001840A0406031900340406162E8F
:101C3A00C03083120313A4002408831603138105FA
:101C4A0001150800F1010130F0007008F1070830B1
:101C5A007102031C312E322E282E08008312031320
:101C6A00A400241F392E3A2E3D2E2408D03E3E2EA3
:101C7A0024080800831203139715171197141710D5
:101C8A0090101012901210131014080083120313EC
:101C9A00A5010130A4002408A50708302502031C69
:101CAA00572E582E4E2E0800FB007B08FA007A08A1
:101CBA00F2007808F3007908F40010300A128A1149
:101CCA0082270A128A1508008312031367080A1268
:101CDA008A1533260A128A15A03E84008313000847
:101CEA0083120313A5002508E60008008B2E643032
:101CFA0081000B110B1D822E832E7F2E0130831241
:101D0A000313A4020030031CA503A50283120313C4
:101D1A0024082504031D922E932E7C2E080083127C
:101D2A000313A601A60A2C08A7002D08A800003054
:101D3A000A128A1133270A128A15023083120313F0
:101D4A00A4000030A5000A128A157B260A128A15F9
:101D5A000800FC01803083160313870098161817B1
:101D6A008312031318161817831603138C161812E6
:101D7A0018158316031787110A308316031399005F
:101D8A00831203139817080083120313AF002F0856
:101D9A00803EAE002E08A6002C08A7002D08A80039
:101DAA0000300A128A1133270A128A150230831266
:101DBA000313A4000030A5000A128A157B260A1212
:101DCA008A150800003083120313DD000230DE009A
:101DDA000030DB000230DC00860183160313811316
:101DEA0020309500383086000A30831603178900A0
:101DFA008B170B17831203130C13831603130C1779
:101E0A0080309F00A530831203139F00DF01DF0A91
:101E1A00080083120313AF002C2F2F0884000A1224
:101E2A008A1100230A128A15AE002E08A6002C0871
:101E3A00A7002D08A80010300A128A1133270A12A7
:101E4A008A15013083120313AE002E08AF072F083C
:101E5A0084000A128A1100230A128A15003A031D05
:101E6A00372F382F122F0800831603130F108801FB
:101E7A008501831603178801831203136A08AE00CB
:101E8A006B08AF000A128A118F260A128A150830C7
:101E9A0083120313AE000030AF000A128A118F2694
:101EAA000A128A150A128A15E7260A128A150A12CE
:101EBA008A1175250A128A150A128A15AE260A127D
:101ECA008A150A128A118D230A128A150A128A1190
:101EDA004B200A128A156B2F0A128A1110288312B4
:101EEA0003136A08AC006B08AD000A128A1594261F
:101EFA000A128A1583120313B90110303906031D19
:101F0A00872F882F922F6A08AC006B08AD004030EB
:101F1A000A128A15C9260A128A15831203136A0835
:101F2A00B4006B08B5003908A03E8400831300088A
:101F3A000A128A11E8220A128A150130831203133F
:101F4A00B8003808B90720303902031CAD2FAE2F6C
:101F5A00822F6A08AC006B08AD0067080A128A155E
:101F6A00C9260A128A1508000C1FBC2FBD2FD52FAF
:101F7A009F1DC02FC12FCB2F1E08DE00831603130F
:101F8A001E0883120313DD009F11D42F1E08DC00E4
:101F9A00831603131E0883120313DB009F150C1309
:101FAA008C1CD82FD92FE32F0130FD027D08031D89
:101FBA00DF2FE02FE22FE301E30A8C108C1EE62FBD
:101FCA00E72FF52F1A08A0002008FC006A08F8007D
:101FDA006B08F9007C080A128A1559260A128A1512
:101FEA008312031323088A0022088400210E830027
:061FFA00FE0E7E0E090040
:04400E00F2E0FFFEDF
:00000001FF
