:020000040000FA
:060000000A128A110C280F
:10000800FE00030EF1000A08F2000A128A11B72E48
:100018000A128A110F280A128A15EB270A128A1166
:10002800D7000A128A15EC270A128A11D8000A1278
:100038008A11FE270A128A11F8000A128A11FF276C
:100048000A128A11F900831790308400B0300A121E
:100058008A11F6270A128A118313A0308400E0302F
:100068000A128A11F6270A128A114C308400573076
:100078000A128A11F6270A128A11FA0183010A1252
:100088008A11B029831203139F184B284C284D2836
:100098009F14861A5028512870285608A03E8400BC
:1000A8008313000A031D59285A2870285608C03E91
:1000B80084000008AB005608A03E84002B0880008E
:1000C8005608C03E84000008AB002B08D5000A1271
:1000D8008A116E260A128A11831203130C1D7528C1
:1000E800762896285308031D7A287B2885281930F6
:1000F800AB002B08D3000A128A11F2260A128A11C1
:1001080087280130D302831203130E08503EAB0038
:100118000F080318013EC33EAC002B0895002C08BD
:1001280096000C114F08803AFF0083307F02031DB0
:100138009F2885304E02031CA228A328B5288312C5
:10014800031351080319A928AA28AF290230AB00C4
:100158002B08A7001E300A128A119F220A128A1140
:10016800AF29831203134F08803AFF0080307F02C3
:10017800031DC02864304E020318C328C428D6289B
:100188008312031351080319CA28CB28AF29033057
:10019800AB002B08A7001E300A128A119F220A12F0
:1001A8008A11AF29831203134F08803AFF00823067
:1001B8007F02031DE12859304E02031CE428E5287C
:1001C800F7288312031351080319EB28EC28AF29E9
:1001D8000230AB002B08A7003C300A128A119F227C
:1001E8000A128A11AF29831203134F08803AFF00BD
:1001F80081307F02031D022990304E020318052921
:100208000629182983120313510803190C290D29EB
:10021800AF290330AB002B08A7003C300A128A1123
:100228009F220A128A11AF29831203134D08803ABC
:10023800FF0082307F02031D2329BD304C02031CBE
:1002480026292729522983120313510803192D2916
:100258002E29AF29A701A70A3E300A128A119F2228
:100268000A128A110A128A11D1270A128A11403AEF
:10027800031D3F29402943298312031386140A12B8
:100288008A11D1270A128A11003A031D4C294D29D7
:10029800AF29831203130615AF29AF29831203135D
:1002A8004D08803AFF0081307F02031D5D292C3004
:1002B8004C02031860296129AB29831203135108E2
:1002C800031967296829AF29A701A70A3E300A122E
:1002D8008A119F220A128A1183120313861C752918
:1002E8007729013078290030AB000A128A11D1270A
:1002F8000A128A11403A0319822984290130852972
:100308000030831203132B05003803198C298D291B
:100318008F298614AF29861C9229942901309529A2
:100328000030AB000A128A11D1270A128A11003A4A
:1003380003199F29A1290130A22900308312031330
:100348002B0500380319A929AA2951294D298312F7
:100358000313D101D10A0800831603130F10880173
:100368008501831603178801053083120313A5003E
:100378000030A6000A128A117B250A128A11083059
:1003880083120313A5000030A6000A128A117B25E8
:100398000A128A110A128A114F270A128A1100308A
:1003A8000A128A11B8240A128A1183120313D0017F
:1003B80080308316031387009816181783120313C7
:1003C80018161817831603138C1618121815831687
:1003D800031787110A308316031399008312031336
:1003E80098170530A3000030A4000A128A1190273C
:1003F8000A128A11083083120313A3000030A400E4
:100408000A128A1190270A128A11083083120313DC
:10041800A3000030A40052300A128A1124270A12BD
:100428008A11053083120313A3000030A400413061
:100438000A128A1124270A128A110530831203131B
:10044800A3000030A40040300A128A1174270A124F
:100458008A11053083120313A3000030A400723000
:100468000A128A1124270A128A1183120313861A80
:100478003E2A3F2A392A0830F3000030F4000A12D5
:100488008A11A8270A128A1183120313861E4D2A7D
:100498004E2A482A0830F3000030F4000A128A1164
:1004A800A8270A128A11053083120313A30000300B
:1004B800A4000A128A1190270A128A11083083129E
:1004C8000313A3000030A4000A128A1190270A120D
:1004D8008A11083083120313A3000030A4007F3070
:1004E8000A128A1124270A128A1108308312031368
:1004F800A3000030A40040300A128A1174270A129F
:100508008A11083083120313A3000030A40062305C
:100518000A128A1124270A128A110A128A116E26CF
:100528000A128A110A128A1146200A128A11962A78
:100538000A128A110C2883120313AA00D1012A086F
:10054800A8002808D200EF2A103056020318AD2A56
:10055800AE2AB32A1030A8002808D607022B10307C
:10056800D602022B1F30A8002808D600022B0F3015
:10057800A8002808D600022B0130D602022B560804
:10058800A800A9012908003A0319CB2AC02A28087B
:10059800003A0319BB2A103A0319B62AC02A1030A8
:1005A800A8002808D600022BD601022B0130A8008B
:1005B8002808D607022B5608A800A9012908003ADE
:1005C8000319E72ADA2A28080F3A0319D82A103A11
:1005D8000319D32ADA2A2708A800A9012908003A0A
:1005E8000319F72A022B2808013A0319A82A033A03
:1005F8000319C32A013A0319DF2A022B0530A30085
:100608000030A40055080A128A11BF270A128A115D
:10061800053083120313A3000030A4000A128A11C4
:10062800D1270A128A110A128A1174270A128A110A
:100638000A128A15F5270A128A1183120313540322
:10064800031D272B282B422B0530A3000030A400C4
:1006580020300A128A11BF270A128A110530831224
:100668000313A3000030A4000A128A11D1270A122A
:100678008A110A128A1174270A128A110800033093
:100688008A000408840A82070034183418341434A1
:10069800043404340334023403341C34143418345A
:1006A800143400340534073405340E341534153445
:1006B8001F340A340E340E34003400340E340E3431
:1006C8001F341F341F3404340E34003404340E3401
:1006D8001F341F340E3404340E34003400340A340A
:1006E8001F341F340E3404340034003404340E3400
:1006F8001F340E3404340034003400340A340A340D
:100708000034153411340E340034503472346534E6
:100718007334733420347434683465342034623468
:100728007534743474346F346E3400342034433484
:100738006F346E34633465346E34743472346134B7
:10074800743469346F346E342134003420345034B6
:1007580031343A3420343034303420342034503476
:1007680032343A34203430343034003420342034B5
:100778002034203474346F34203473347434613446
:10078800723474340034203420342034203420343B
:10079800533463346F34723465343A34003483121A
:1007A8000313A3010530A4000030A50039300A1254
:1007B8008A11CD250A128A1183120313A301A30AF1
:1007C8000530A4000030A50031300A128A11CD2569
:1007D8000A128A11023083120313AA002A08A300FE
:1007E8000530A4000030A50029300A128A11CD2551
:1007F8000A128A11033083120313AA002A08A300DD
:100808000530A4000030A50021300A128A11CD2538
:100818000A128A11043083120313AA002A08A300BB
:100828000530A4000030A50019300A128A11CD2520
:100838000A128A11053083120313AA002A08A3009A
:100848000530A4000030A50011300A128A11CD2508
:100858000A128A11063083120313AA002A08A30079
:100868000530A4000030A50009300A128A11CD25F0
:100878000A128A11073083120313AA002A08A30058
:100888000530A4000030A50001300A128A11CD25D8
:100898000A128A11080083120313A101F41F552CB0
:1008A800562C5D2CF309F409F30A0319F40AA10183
:1008B800A10AF61F602C612C6A2CF509F609F50AC5
:1008C8000319F60A0130F7007708A106A201A3016F
:1008D800730874040319712C722CA92CA001A00AA6
:1008E800802C01300310F30DF40DFF3E031D762C10
:1008F8000130F7007708A007F41F832C842C752C8F
:1009080001300310A20DA30DFF3E031D852C7408B2
:100918007602031D912C73087502031C942C952CE8
:100928009C2C7308F5027408031CF603F6022214C3
:1009380001300310F40CF30CFF3E031D9D2C013015
:10094800A002031DA82CA92C842C21080319AD2C66
:10095800AE2CB32CA209A309A20A0319A30A2308DF
:10096800F4002208F300080083120313CA000A12D5
:100978008A11DE270A128A110A128A11D3230A124F
:100988008A1183120313CB01FF30C9004B08A03E24
:1009980084004908831380000130C9004908CB0747
:1009A80020304B02031CD92CDA2CC82C0530A300AC
:1009B8000030A4000A128A1190270A128A118312A1
:1009C80003134A08C9004908D600D4010A128A1537
:1009D800F5270A128A1183120313D301D101D10A10
:1009E8000530A3000030A4000A128A11D1270A1288
:1009F8008A110A128A1174270A128A11FF30831287
:100A08000313C9004908D200FA3083160313920071
:100A1800831203138C10831603138C14563083121D
:100A2800031392000A128A111C250A128A1108005F
:100A3800273084002030FF0083138001840AFF0BD5
:100A4800202D83120313C701742D1108A4000E086A
:100A58000339023E013E322D0310A40CFF3E031D54
:100A6800302D2408A500A6012508F3002608F40067
:100A78000A128A11A8270A128A11831203130E0870
:100A88001F39A4002408C8004808273E840083139F
:100A98000008031D502D512D742D4808273E840051
:100AA8008001800A0430F3000030F4004708A400F5
:100AB800A5012408F5002508F6000A128A114F241A
:100AC8000A128A11730883120313A6004808C03E4D
:100AD80084002608831380000130A4002408C70777
:100AE80020304706031D792D7A2D292D08000A127A
:100AF8008A15ED270A128A11831203132508840028
:100B08008317261C831380010F30F3000030F40094
:100B18000A128A11A8270A128A112830831203138D
:100B2800A7002708F5002508F6002608F70000307A
:100B38000A128A111F260A128A110C308312031313
:100B4800A7002708F5002508F6002608F70000305A
:100B58000A128A111F260A128A1183120313250802
:100B6800A3002608A4000A128A1190270A128A11E3
:100B7800063083120313A7002708F5002508F6009E
:100B88002608F70000300A128A111F260A128A1155
:100B9800080083120313A900A8012308A600023045
:100BA8000310A60DFF3E031DD42D0310260D2804A7
:100BB8004038A7002708F5002408F6002508F700A4
:100BC80000300A128A111F260A128A11831203138F
:100BD800290884000A128A1143230A128A11A600DE
:100BE8002608F5002408F6002508F70010300A1238
:100BF8008A111F260A128A11013083120313A600D4
:100C08002608A9070130A6002608A80708302802E8
:100C1800031C0F2E102ED12D8030A6002608F500BB
:100C28002408F6002508F70000300A128A111F264A
:100C38000A128A11080083120313A2007508A00083
:100C480004300310A00CFF3E031D252E2008203E73
:100C58002204A100760884008317771C83132108D7
:100C680080000A128A11EA270A128A11760884007B
:100C78008317771C83130008DF3983120313A0003E
:100C8800760884008317771C831320088000750872
:100C98000F39203E2204A000760884008317771CB1
:100CA8008313200880000A128A11EA270A128A117F
:100CB800760884008317771C83130008DF398312B2
:100CC8000313A000760884008317771C8313200879
:100CD80080000800053083120313A3000030A4002D
:100CE8000A128A1190270A128A1183120313A80183
:100CF80010302806031D812E822E8C2E0530A3006D
:100D08000030A40040300A128A1174270A128A118E
:100D1800053083120313A3000030A4002808A03E66
:100D28008400831300080A128A11BF270A128A1145
:100D3800013083120313A7002708A80720302802D0
:100D4800031CA72EA82E7C2E0530A3000030A4007B
:100D58000A128A11D1270A128A110A128A117427D3
:100D68000A128A110800831203130C1FBC2EBD2E11
:100D7800D52E9F1DC02EC12ECB2E1E08CF00831648
:100D880003131E0883120313CE009F11D42E1E08CE
:100D9800CD00831603131E0883120313CC009F157E
:100DA8000C138C1CD82ED92EE32E0130D2025208F7
:100DB800031DDF2EE02EE22ED101D10A8C108C1EED
:100DC800E62EE72EEB2E1A08F0007008D000720805
:100DD8008A00710E8300FE0E7E0E09008312031333
:100DE8005408031DF82EF92E082F0530A3000030F3
:100DF800A40020300A128A11BF270A128A1183120E
:100E08000313D401D40A152F0530A3000030A40021
:100E180055080A128A11BF270A128A11831203136E
:100E2800D4010530A3000030A4000A128A11D1278A
:100E38000A128A110A128A1174270A128A110800E2
:100E480083120313A600422F260884000A128A116F
:100E580043230A128A11A5002508F5002308F60085
:100E68002408F70010300A128A111F260A128A1164
:100E7800013083120313A5002508A607260884005D
:100E88000A128A1143230A128A11003A031D4D2FB0
:100E98004E2F282F0800003083120313CE00023093
:100EA800CF000030CC000230CD008601831603133A
:100EB800811320309500383086000A3083160317D6
:100EC80089008B170B17831203130C138316031354
:100ED8000C1780309F00A530831203139F00080071
:100EE80083120313A6002608803EA5002508F500F6
:100EF8002308F6002408F70000300A128A111F267A
:100F08000A128A110230F3000030F4000A128A1122
:100F1800A8270A128A110800F501F50A831203139B
:100F28002308F6002408F70000300A128A111F2649
:100F38000A128A110230F3000030F4000A128A11F2
:100F4800A8270A128A110800B82F643083120313E5
:100F580081000B110B1DB12FB22FAE2F0130F30200
:100F68000030031CF403F40273087404031DBD2F3E
:100F7800BE2FA92F080083120313A6002608A50078
:100F88002508F5002308F6002408F70010300A1297
:100F98008A111F260A128A110800103083120313BF
:100FA80056020318D82FD92FDB2F5608DD2F5608E5
:100FB800303E080083120313971517119714171062
:100FC800901010129012101310140800F401013040
:100FD800F3007308F40708307402031CF42FF52F8C
:100FE800EB2F080064008001840A0406031900340A
:080FF8000406F72F0534003454
:101FD60008340034C030F3007308831603138105F8
:101FE60001150800831203135608A03E84008313CC
:0A1FF6000008F3007308D50008008E
:04400E00F2E0FFFEDF
:00000001FF
