:020000040000FA
:060000000A128A110C280F
:10000800FE00030EF0000A08F1000A128A110D2BF7
:100018000A128A110F280A128A11AF230A128A11AA
:10002800AF000A128A11B0230A128A11B0000A120C
:100038008A11B1230A128A11B1000A128A11B22355
:100048000A128A11B200A801A901AA01AB01AC01E8
:10005800AD01AE01FA01FB0183010A128A113428AD
:10006800831603130F10880185018316031788016F
:10007800083083120313A2000030A3000A128A1169
:10008800A0210A128A11053083120313A20000303E
:10009800A3000A128A11A0210A128A110A128A11CF
:1000A800E8220A128A110A128A118F230A128A1167
:1000B800083083120313A0000030A1000A128A112D
:1000C8004E230A128A11083083120313A00000304D
:1000D800A10012300A128A1195220A128A110830D8
:1000E80083120313A0000030A10040300A128A11C5
:1000F80032230A128A11083083120313A000003039
:10010800A10001300A128A1195220A128A1145307B
:1001180083120313A6002608FB00AD010A128A11F8
:1001280069220A128A1183120313AC01FA010830FA
:10013800A0000030A1007B080A128A1132230A129B
:100148008A11831203139F18AA28AB28AC289F147E
:100158000C1DAF28B028D0282C08031DB428B528BA
:10016800BF281930A6002608AC000A128A113B22C3
:100178000A128A11C1280130AC02831203130E0837
:10018800503EA6000F080318013EC33EA7002608EC
:100198009500270896000C112B08803AFF00823042
:1001A8007F02031DD928BD302A02031CDC28DD2864
:1001B800EA287A08031DE128E228A5280130FB0275
:1001C8000A128A113B210A128A11A52883120313E5
:1001D8002B08803AFF0081307F02031DF5282C3060
:1001E8002A020318F828F92805297A08031DFD288A
:1001F800FE28A528013083120313A6002608FB0752
:10020800E428831203132908803AFF0082307F0212
:10021800031D1029BD302802031C13291429202985
:100228007A08031D18291929A528403083120313B9
:10023800A6002608FB06E428831203132908803A3F
:10024800FF0081307F02031D2B292C302802031860
:100258002E292F2935297A08031D332934293729CE
:100268001929FA01A528A5280A128A110C28FA01C9
:10027800FA0A4F29FB0167294030A4002408FB0033
:1002880067290F30A4002408FB0067294F30A40019
:100298002408FB0067297B0883120313A400A50127
:1002A8002508003A0319592967292408103A03191F
:1002B8003E292F3A03194A296F3A03194029AF3AC0
:1002C8000319452967290830A0000030A1002E082D
:1002D8000A128A117D230A128A1108308312031325
:1002E800A0000030A1007B080A128A1132230A12EA
:1002F8008A110A128A1169220A128A1183120313B7
:100308002D03031D882989299F290830A000003062
:10031800A100FF300A128A117D230A128A110830BF
:1003280083120313A0000030A1007B080A128A116F
:1003380032230A128A1108000A128A11A7230A1204
:100348008A1183120313220884008317231C831342
:1003580080010F30F2000030F3000A128A11662380
:100368000A128A11283083120313A4002408F40007
:100378002208F5002308F60000300A128A11F2213B
:100388000A128A110C3083120313A4002408F40003
:100398002208F5002308F60000300A128A11F2211B
:1003A8000A128A11831203132208A0002308A1004D
:1003B8000A128A114E230A128A1106308312031375
:1003C800A4002408F4002208F5002308F6000030F1
:1003D8000A128A11F2210A128A110800F900740817
:1003E800F70004300310F70CFF3E031DF6297708C9
:1003F800203E7904F800750884008317761C83135F
:10040800780880000A128A119B230A128A1175083B
:1004180084008317761C83130008DF39F7007508FA
:1004280084008317761C83137708800074080F39BB
:10043800203E7904F700750884008317761C83131F
:10044800770880000A128A119B230A128A117508FC
:1004580084008317761C83130008DF39F7007508BA
:1004680084008317761C83137708800008008312A2
:1004780003132D08031D412A422A512A0830A000DF
:100488000030A100FF300A128A117D230A128A1156
:1004980083120313AD01AD0A5E2A0830A0000030B4
:1004A800A1002E080A128A117D230A128A118312CA
:1004B8000313AD010830A0000030A1007B080A1228
:1004C8008A1132230A128A1108007B08F2000430CC
:1004D8000310F20CFF3E031D6C2A04307206031D44
:1004E800762A772A862A7B080F39013E84000A1269
:1004F8008A11C0220A128A11F200720883120313A9
:10050800AE00942A7B080F39123E84000A128A1121
:10051800C0220A128A11F200720883120313AE0075
:10052800080083120313A300B32A230884000A12C5
:100538008A11C0220A128A11A2002208F400200897
:10054800F5002108F60010300A128A11F2210A1269
:100558008A11013083120313A2002208A30723087B
:1005680084000A128A11C0220A128A11003A031D55
:10057800BE2ABF2A992A080002308A000408840A81
:1005880082070034543448344934533420344934CD
:100598005334203452344F345734203432342E34C8
:1005A8002E342E340034303431343234333434344D
:1005B80035343634373438343934413442344334BA
:1005C8004434453446340034003083120313AA00FF
:1005D8000230AB000030A8000230A9008601831663
:1005E8000313811320309500383086000A308316B3
:1005F800031789008B170B17831203130C13831629
:1006080003130C1780309F00A530831203139F003B
:100618000800831203130C1F122B132B2B2B9F1D67
:10062800162B172B212B1E08AB00831603131E084D
:1006380083120313AA009F112A2B1E08A9008316F0
:1006480003131E0883120313A8009F150C137108C7
:100658008A00700E8300FE0E7E0E090083120313BB
:10066800A3002308803EA2002208F4002008F50019
:100678002108F60000300A128A11F2210A128A11A2
:100688000230F2000030F3000A128A1166230A12BF
:100698008A110800F401F40A831203132008F500F4
:1006A8002108F60000300A128A11F2210A128A1172
:1006B8000230F2000030F3000A128A1166230A128F
:1006C8008A110800762B64308312031381000B1102
:1006D8000B1D6F2B702B6C2B0130F2020030031CAA
:1006E800F303F30272087304031D7B2B7C2B672B27
:1006F800080083120313A3002308A2002208F400B1
:100708002008F5002108F60010300A128A11F2219B
:100718000A128A11080083120313971517119714E8
:100728001710901010129012101310140800F301F3
:100738000130F2007208F30708307302031CA52B7E
:10074800A62B9C2B0800C030F200720883160313F6
:0E075800810501150800053400340834003412
:04400E00F2E0FFFEDF
:00000001FF
