:020000040000FA
:100000000A128A110E280134FE00030EF2000408C1
:10001000F3000A08F4000A128A156C290A128A11E0
:1000200011288313DF30FD001230FE007A30FF000C
:10003000D93084000A128A11ED220A128A116E3018
:10004000FD000230FE00FC30FF006A3084000A121E
:100050008A11ED220A128A110A128A1103200A1249
:100060008A11FB00831790308400D0300A168A1161
:1000700080220A128A118313A0308400D9300A1614
:100080008A1180220A128A115B3084006A300A16B3
:100090008A1180220A128A11F601F701F801F9018A
:1000A000FA0183010A128A11A12C83120313E101C0
:1000B000E10A343084008316031359088313800047
:1000C000840A5A088000840A5B088000840A5C085D
:1000D0008000840A5D088000840A5E088000831224
:1000E0000313BB01BA013B08343E840083130008AC
:1000F0000A168A1104240A128A110130831203138A
:10010000B1003108BB070630A0000030A1003B0859
:10011000B100B2013108A2003208A3000A128A1508
:1001200002200A128A11831203132008B300330835
:10013000BB00D930A0000730A1001E30B10031084B
:10014000A2000A168A112F230A128A11831203139E
:100150003B08343E8400831300080A168A110424E5
:100160000A128A11013083120313B1003108BB0750
:100170000630A0000030A1003B08B100B2013108F8
:10018000A2003208A3000A128A1502200A128A115C
:10019000831203132008B3003308BB006830A000AB
:1001A0000730A1001E30B1003108A2000A168A11E2
:1001B0002F230A128A11831203133B08343E840052
:1001C000831300080A168A1104240A128A110130C6
:1001D00083120313B1003108BB070630A0000030C2
:1001E000A1003B08B100B2013108A2003208A3000F
:1001F0000A128A1502200A128A1183120313200898
:10020000B3003308BB003A30A0000630A1001E3016
:10021000B1003108A2000A168A112F230A128A118E
:10022000831203133B08343E8400831300080A162C
:100230008A1104240A128A11013083120313B100B7
:100240003108BB070630A0000030A1003B08B10018
:10025000B2013108A2003208A3000A128A15022056
:100260000A128A11831203132008B3003308BB005B
:10027000FA30A0000030A1000A168A11C4220A1226
:100280008A11013083120313B1003108BA07033019
:100290003A02031C4C294D2973283B08343E840044
:1002A000831300080A168A1104240A128A110130E5
:1002B00083120313B1003108BB070630A0000030E1
:1002C000A1003B08B100B2013108A2003208A3002E
:1002D0000A128A1502200A128A11831203132008B7
:1002E000B3003308BB005530A0000930A1003C30FA
:1002F000B1003108A2000A168A112F230A128A11AE
:10030000352A0530A8000030A9000A168A11DD221E
:100310000A128A11831203132D08A8002E08A900BF
:100320000530AA000030AB000A168A11D4230A1245
:100330008A1183120313E5017830B1003108FA0005
:10034000AA29861EA429A529A9290619A829A92907
:10035000AA29E10165080319AE29AF29A1293B08A3
:10036000343E8400831300080A168A1104240A12FA
:100370008A11013083120313B1003108BB07063024
:10038000A0000030A1003B08B100B2013108A2007A
:100390003208A3000A128A1502200A128A11831257
:1003A00003132008B3003308BB000530A800003059
:1003B000A9000A168A11DD220A128A110530831259
:1003C0000313A8000030A90040300A168A11112337
:1003D0000A128A11831203132F08A8003008A900FB
:1003E0000530AA000030AB000A168A11D4230A1285
:1003F0008A1183120313E5017830B1003108FA0045
:100400000A2A861E042A052A092A0619082A092A00
:100410000A2AE101650803190E2A0F2A012A3B085E
:10042000343E8400831300080A168A1104240A1239
:100430008A11013083120313B1003108BB07063063
:10044000A0000030A1003B08B100B2013108A200B9
:100450003208A3000A128A1502200A128A11831296
:1004600003132008B3003308BB0083120313610396
:1004700003193B2A3C2A812908008312031311081F
:10048000B0000E080339023E013E482A0310B00CAA
:10049000FF3E031D462A3008B100B2013108A0001A
:1004A0003208A1000A168A11C4220A128A110430E5
:1004B00083120313A7000030A8006408B000B10144
:1004C0003008A9003108AA000A168A11B3260A12B8
:1004D0008A11831203132708C03E84008313000887
:1004E000B2003208B300B72AFC30B0003008B305C0
:1004F0000E080339B0003008B304CE2AF330B00040
:100500003008B3050E080339B00001300310B00DF8
:10051000FF3E031D862A0310300DB1003108B304DD
:10052000CE2ACF30B0003008B3050E080339B00032
:1005300003300310B00DFF3E031D992A0310300D48
:10054000B1003108B304CE2A3F30B0003008B30503
:100550000E080339B00005300310B00DFF3E031D37
:10056000AC2A0310300DB1003108B304CE2A640860
:100570000339B000B1013108003A0319C02ACE2A6C
:100580003008003A0319742A013A03197E2A033A03
:100590000319912A013A0319A42ACE2A3308B0007C
:1005A0000430A7000030A8006408B100B20131088F
:1005B000A9003208AA000A168A11B3260A128A1163
:1005C000831203132708C03E840030088313800081
:1005D00008007E088A007F0882000A128A11E92238
:1005E0000A128A118000840A04087D060319003467
:1005F000FF0A0319FE0AED2A0834003405340034DA
:10060000FF1B0A2B83137F1883170008840A031922
:10061000FF0A08007F087F398A000408840A03194A
:10062000FF0A8200183418341434043404340334B8
:10063000023403341C3414341834143400340534B4
:10064000073405340E34153415341F340A340E348F
:100650000E34003400340E340E341F341F341F3473
:1006600004340E34003404340E341F341F340E347A
:1006700004340E34003400340A341F341F340E3472
:1006800004340034003404340E341F340E34043483
:100690000034003400340A340A3400341534113480
:1006A0000E3400344E346F34743420347634653470
:1006B00072347934203467346F346F3464342E34B8
:1006C0002E342E3400345034723465347334733421
:1006D00020347434683465342034623475347434AE
:1006E00074346F346E340034203441346C346D34DF
:1006F0006F34733474342034743468346534723431
:100700006534213421340034203443346F346E3462
:10071000633465346E3474347234613474346934DF
:100720006F346E34213400342034533469346D34E2
:100730006F346E34203453346134793473342E344E
:100740002E342E342E3400342034203443346F348D
:100750006E34633465346E3474347234613474349A
:1007600069346F346E3400342034473461346D346E
:1007700065342034533465346C34653463347434F4
:1007800069346F346E3400342034203420345934CA
:100790006F3475342034773469346E342134213425
:1007A000213400342034203420344E344F3420346B
:1007B000573449344E344E344534523421340034A5
:1007C0002034203420344734723465346134743436
:1007D00020346A346F3462342134003420342034BD
:1007E000203459346F34753420347334743469349C
:1007F0006E346B3421340034203420342034793486
:100800006F347534723420347434753472346E3409
:1008100021340034203420342034473461346D34A2
:10082000653420344F3476346534723421340034E6
:10083000203420342034533469346D346F346E34B2
:100840002034533461347934733400342034203408
:1008500020342034573449344E344E3445345234E5
:1008600021342134003420342034203420344E34D8
:100870006F34743420346234613464342E34003480
:10088000203420342034203450344C344134593412
:100890004534523420343134003420342034203470
:1008A000203450344C34413459344534523420349B
:1008B0003234003420342034203420344E346F3429
:1008C000773420346934743427347334003420345A
:1008D00020342034203474346F342034733474342E
:1008E00061347234743400342034203420342034A1
:1008F0002034533463346F34723465343A34003402
:1009000020342034203420342034203454344934EA
:100910004534443400342034203452346F34753438
:100920006E34643473340034203420345034323420
:100930003A34203400342034503431343A342034C2
:100940000034831603130F108801850183160317E3
:100950008801053083120313AA000030AB000A1689
:100960008A11AD250A128A11083083120313AA00D6
:100970000030AB000A168A11AD250A128A110A1638
:100980008A1155230A128A111F3083120313D700CC
:1009900057088316031387058312031387010A166A
:1009A0008A117C230A128A1183120313E001B430E6
:1009B000A8008330A9000830AA000030AB000A1656
:1009C0008A11D4230A128A11A43083120313A800B7
:1009D0008330A9000530AA000030AB000A168A1146
:1009E000D4230A128A11053083120313A8000030A1
:1009F000A90040300A168A1111230A128A111930EF
:100A000083120313A8008430A9000530AA00003027
:100A1000AB000A168A11D4230A128A1105308312F8
:100A20000313A8000030A90000300A168A11112310
:100A30000A128A11053083120313B0000030B1008E
:100A40007E300A168A11A0220A128A11FF30831200
:100A50000313D7005708D900DA019F14BC2D9F1843
:100A6000322D332D342D9F1465080319382D392D5F
:100A7000BC2D861A3C2D3D2D512D5A08D700570804
:100A8000D9000830A0000030A1000A168A11C42243
:100A90000A128A1183120313861E4F2D502D4A2DE0
:100AA000C32D5C08803AFF0080307F02031D5A2D61
:100AB00064305B02031C5D2D5E2D6D2D83120313CC
:100AC0005C08803AFF0083307F02031D692D85306A
:100AD0005B02031C6C2D6D2DBC2D0530831203139E
:100AE000A8000030A9005A080A168A1111230A1218
:100AF0008A11053083120313B0000030B10020309A
:100B00000A168A11A0220A128A118D2D4030D700B0
:100B10005708DA009F2DDA019F2D831203135A081C
:100B2000D700D8015808003A0319972D9F2D570870
:100B3000003A0319862D403A03198B2D9F2D05305D
:100B4000A8000030A9005A080A168A1111230A12B7
:100B50008A11053083120313B0000030B1007E30DB
:100B60000A168A11A0220A128A1183120313E501C0
:100B70003E30D7005708FA0083120313590A0319AD
:100B8000C22DC32D2F2DDF010530A8000030A90094
:100B90000A168A11DD220A128A1108308312031301
:100BA000A8000030A9000A168A11DD220A128A1153
:100BB000831203135908031DDE2DDF2DFC2D0A16A9
:100BC0008A1184240A128A110A128A155D200A12D7
:100BD0008A11EF2D0A128A1116260A128A1183121F
:100BE00003135F080319F52DF62DEA2D0A168A1155
:100BF00010250A128A11132E0A168A111C270A12AE
:100C00008A11072E0A168A11F7220A128A118312F4
:100C100003135F0803190D2E0E2E022E0A168A11D9
:100C20008D270A128A110A128A110E2883120313C1
:100C30009F181B2E1C2E1D2E9F14861A202E212E2F
:100C4000262E60080319252E262E2F2E0619292E52
:100C50002A2E852E6003031D2E2E2F2E852E610336
:100C6000031D332E342E852E0630A0000030A10047
:100C70000A168A11C4220A128A1183120313E1018F
:100C800069080A128A11F4270A128A11A03E840008
:100C90008313000A031D4D2E4E2E992E831203132B
:100CA00069080A128A11F4270A128A11B03E8400D8
:100CB0008317000883120313B90069080A128A1106
:100CC000F4270A128A11A03E840083120313390804
:100CD0008313800069080A128A11F4270A128A1104
:100CE000B03E84008317000883120313B90039084B
:100CF000E80060080A128A1568230A128A110A1687
:100D00008A113F240A128A11992E861E882E892E56
:100D10008E2E600803198D2E8E2E972E061D912E75
:100D2000922E992E6003031D962E972E992EE10187
:100D3000E10A831203130C1D9E2E9F2EBF2E660800
:100D4000031DA32EA42EAE2E1930B9003908E600DB
:100D50000A168A11A6230A128A11B02E0130E60261
:100D6000831203130E08503EB9000F080318013E0A
:100D7000C33EBA00390895003A0896000C115E0887
:100D8000803AFF0083307F02031DC82E85305D024C
:100D9000031CCB2ECC2EDE2E831203136508031901
:100DA000D22ED32E702F0230B9003908B4001E3075
:100DB0000A128A15D9200A128A11702F831203137E
:100DC0005E08803AFF0080307F02031DE92E643008
:100DD0005D020318EC2EED2EFF2E8312031365081F
:100DE0000319F32EF42E702F0330B9003908B40024
:100DF0001E300A128A15D9200A128A11702F831206
:100E000003135E08803AFF0083307F02031D0A2F20
:100E100021305D02031C0D2F0E2F202F8312031390
:100E200065080319142F152F702F0230B9003908E7
:100E3000B4003C300A128A15D9200A128A11702F88
:100E4000831203135E08803AFF0080307F02031D87
:100E50002B2FC8305D0203182E2F2F2F412F831206
:100E6000031365080319352F362F702F0330B9008F
:100E70003908B4003C300A128A15D9200A128A11A6
:100E8000702FFD30831203135B06033003195C06D9
:100E9000031D4B2F4C2F5A2F65080319502F512F2C
:100EA000702FB401B40A64300A128A15D9200A12CC
:100EB0008A11702F5B085C04031D5F2F602F6E2F5B
:100EC00065080319642F652F702FB401B40A6430CC
:100ED0000A128A15D9200A128A11702FE501E50A33
:100EE0000800083083120313A8000030A9000A1676
:100EF0008A11DD220A128A11743083120313A800AA
:100F00008430A9000830AA000030AB000A168A110C
:100F1000D4230A128A11083083120313A800003068
:100F2000A90043300A168A1111230A128A110830C7
:100F300083120313B0000030B1000A30A700003064
:100F4000A8006408B400B5013408A2003508A30065
:100F50006430A0000030A1000A128A1502200A1293
:100F60008A11831203132108AA002008A9000A1677
:100F70008A11B3260A128A11831203132708303EFE
:100F80000A168A11A0220A128A110830831203134A
:100F9000B0000030B1000A30A0000030A1006408A9
:100FA000B400B5013408A2003508A3000A128A155E
:100FB00002200A128A11831203132008303E0A16F7
:100FC0008A11A0220A128A118B3083120313A800FF
:100FD0008430A9000830AA000030AB000A168A113C
:100FE000D4230A128A11080083120313A000201FC1
:100FF000FA2FFB2FFE2F2008D03EFF2F20080800DD
:1010040083120313A601A31F082809281028A20984
:10101400A309A20A0319A30AA601A60AA11F132859
:1010240014281928A009A109A00A0319A10A200853
:10103400210403191E281F284E28A501A50A2D28BE
:1010440001300310A00DA10DFF3E031D2328013024
:10105400A4002408A507A11F30283128222821082C
:101064002302031D372820082202031C3A283B28A8
:1010740041282008A2022108031CA303A302013073
:101084000310A10CA00CFF3E031D42280130A50251
:10109400031D4D284E2831282608031952285328A9
:1010A4005828A209A309A20A0319A30A2308A10024
:1010B4002208A0000800843083120313A8008330A0
:1010C400A9000830AA000030AB000A168A11D42304
:1010D4000A128A15633083120313A8008330A9000F
:1010E4000530AA000030AB000A168A11D4230A1274
:1010F4008A15053083120313A8000030A90040307C
:101104000A168A1111230A128A15673083120313EF
:10111400A8008430A9000530AA000030AB000A16EC
:101124008A11D4230A128A1583120313861A9B2860
:101134009C2896280830A0000030A1000A168A11C5
:10114400C4220A128A1583120313861EAA28AB2806
:10115400A5280830A0000030A1000A168A11C42274
:101164000A128A15053083120313A8000030A9005F
:101174000A168A11DD220A128A1508308312031313
:10118400A8000030A9000A168A11DD220A128A1565
:1011940083120313E401E3010A128A1594220A124A
:1011A4008A150A168A113F240A128A150800831226
:1011B4000313B700E5013708B5003508FA00202904
:1011C4004030B5003508E90633290F30B50035083D
:1011D400E90033294F30B5003508E90033290130DF
:1011E400E90233296908B500B6013608003A031943
:1011F400FC28F1283508003A0319E728403A031976
:10120400EC28F128E90133294030B5003508E9001C
:1012140033290130B5003508E90733296908B500D9
:10122400B6013608003A031918290B2935080F3A74
:1012340003190429403A031906290B293408B50077
:10124400B6013608003A0319282933293508013A2A
:101254000319E228033A0319F428013A031910295F
:1012640033290530B0000030B10068080A168A112D
:10127400A0220A128A15053083120313A800003035
:10128400A90069080A168A1111230A128A150A1676
:101294008A11B2220A128A15831203136703031DEB
:1012A400542955296B290530B0000030B100203095
:1012B4000A168A11A0220A128A1505308312031312
:1012C400A8000030A90069080A168A1111230A121D
:1012D4008A150800831203130D1C712972298829A9
:1012E400831603130D1C772978298829760883121D
:1012F40003139B0703189C0A77089C071D1C83296A
:10130400842986291D1087291D140D1083120C1F92
:101314008C298D29E9291F083C39F0007008F50053
:10132400C330F00070089F052C30750603199B2903
:101334009C29A22928307506031DA129A229C529A3
:101344001E08DE00831603131E0883120313DD0038
:10135400B5292430F00070089F04E8293030F000EB
:1013640070089F04E8296008F000F1017108003A50
:101374000319BD29E8297008003A0319AB29013A79
:101384000319B029E8291E08DC00831603131E087C
:1013940083120313DB00D8292C30F00070089F045B
:1013A400E8292830F00070089F04E8296008F0005C
:1013B400F1017108003A0319E029E8297008003A9C
:1013C4000319CE29013A0319D329E8290C138C1CDB
:1013D400EC29ED29F7290130FA027A08031DF329D3
:1013E400F429F629E501E50A8C1074088A007308CB
:1013F4008400720E8300FE0E7E0E09004A308312B2
:101404000313A8008330A900AA010530AB00003003
:10141400AC000A168A11FF250A128A15423083127B
:101424000313A8008330A900AA01AA0A0530AB005F
:101434000030AC000A168A11FF250A128A153A30C8
:1014440083120313A8008330A9000230B0003008CF
:10145400AA000530AB000030AC000A168A11FF2543
:101464000A128A15323083120313A8008330A900AC
:101474000330B0003008AA000530AB000030AC00E7
:101484000A168A11FF250A128A152A3083120313B9
:10149400A8008330A9000430B0003008AA00053049
:1014A400AB000030AC000A168A11FF250A128A1517
:1014B400223083120313A8008330A9000530B00042
:1014C4003008AA000530AB000030AC000A168A11BF
:1014D400FF250A128A151A3083120313A8008330D9
:1014E400A9000630B0003008AA000530AB00003077
:1014F400AC000A168A11FF250A128A1512308312CB
:101504000313A8008330A9000730B0003008AA00F4
:101514000530AB000030AC000A168A11FF250A1210
:101524008A150800743083120313A8008430A900BC
:101534000830AA000030AB000A168A11D4230A121C
:101544008A15083083120313A8000030A900403024
:101554000A168A1111230A128A159B308312031367
:10156400A8008430A9000830AA000030AB000A1695
:101574008A11D4230A128A15083083120313B00087
:101584000030B1000A30A7000030A8006408B4009D
:10159400B5013408A2003508A3006430A00000306F
:1015A400A1000A128A1502200A128A158312031353
:1015B4002108AA002008A9000A168A11B3260A12D3
:1015C4008A15831203132708303E0A168A11A022B3
:1015D4000A128A15083083120313B0000030B100D8
:1015E4000A30A0000030A1006408B400B50134083A
:1015F400A2003508A3000A128A1502200A128A15CD
:10160400831203132008303E0A168A11A0220A12FC
:101614008A15943083120313A8008430A90008307B
:10162400AA000030AB000A168A11D4230A128A15C4
:10163400083083120313B0000030B1000A30A70051
:101644000030A8006308B400B5013408A2003508CE
:10165400A3006430A0000030A1000A128A15022001
:101664000A128A15831203132108AA002008A9006C
:101674000A168A11B3260A128A158312031327083D
:10168400303E0A168A11A0220A128A1508308312E3
:101694000313B0000030B1000A30A0000030A100F4
:1016A4006308B400B5013408A2003508A3000A1287
:1016B4008A1502200A128A15831203132008303E69
:1016C4000A168A11A0220A128A150800831203132B
:1016D400B800620A031D6F2B702B752B6908B600C6
:1016E4003608E200762C69080A128A11F4270A12D5
:1016F4008A15B03E84008317000883120313B600D2
:1017040062080A128A11F4270A128A15B03E84006C
:1017140083170008831203133606031D922B932BA1
:10172400012C3808031D972B982B9D2B0130B600F4
:101734003608E407A12B0130B6003608E307013070
:101744000A168A1104240A128A1599308312031383
:10175400A0000630A1000F30B6003608A2000A1619
:101764008A112F230A128A158312031307138C304C
:10177400A0000530A1000530B6003608A2000A1604
:101784008A112F230A128A1501300A168A11042499
:101794000A128A15993083120313A0000630A1009F
:1017A4000F30B6003608A2000A168A112F230A1237
:1017B4008A158312031307138C30A0000530A1008F
:1017C4000530B6003608A2000A168A112F230A1221
:1017D4008A158312031364086307B600B701B70DB3
:1017E400023036063704031DF82BF92BFB2BDF01DF
:1017F400DF0A0A128A1594220A128A15612C0A1623
:101804008A113F240A128A1500300A168A11042408
:101814000A128A15EB3083120313A0008C30A10046
:101824001E30B6003608A2000A168A112F230A12A7
:101834008A158312031387126430A0000030A100BC
:101844000A168A11C4220A128A1500300A168A114D
:1018540004240A128A15EB3083120313A0008C307F
:10186400A1001E30B6003608A2000A168A112F23E2
:101874000A128A15831203138712FF30B600620816
:101884000A128A11F4270A128A15A03E84008312D0
:101894000313360883138000FF30B60069080A1268
:1018A4008A11F4270A128A15A03E840083120313B6
:1018B400360883138000FF30B6003608E800FF3096
:1018C40083120313B6003608E2000130B60036086E
:1018D400E006E101E10A6430A0000030A1000A162C
:1018E4008A11C4220A128A1508005A30831203137B
:1018F400A8008430A9000530AA000030AB000A1605
:101904008A11D4230A128A15053083120313A800FE
:101914000030A90040300A168A1111230A128A15D0
:10192400FC3083120313A8008330A9000530AA00F9
:101934000030AB000A168A11D4230A128A158312C6
:101944000313B501592D0430A7000030A800350851
:10195400B000B1013008A9003108AA000A168A11A2
:10196400B3260A128A15831203132708C03E840083
:10197400831300080339B2003208B400462D043042
:10198400A7000030A8003508B000B1013008A90054
:101994003108AA000A168A11B3260A128A1583127C
:1019A40003132708C03E840083130008B2000230EA
:1019B4000310B20CFF3E031DDA2C32080339B300C6
:1019C4003308B400462D0430A7000030A8003508C1
:1019D400B000B1013008A9003108AA000A168A1122
:1019E400B3260A128A15831203132708C03E840003
:1019F40083130008B20004300310B20CFF3E031D31
:101A0400FE2C32080339B3003308B400462D0430E9
:101A1400A7000030A8003508B000B1013008A900C3
:101A24003108AA000A168A11B3260A128A158312EB
:101A340003132708C03E840083130008B200063055
:101A44000310B20CFF3E031D222D32080339B300EC
:101A54003308B400462D8312031335080339B0004C
:101A6400B1013108003A0319382D462D3008003AE7
:101A74000319A52C013A0319C12C033A0319E52CC7
:101A8400013A0319092D462D0A128A158A250A12CC
:101A94008A158312031334060319512D522D552D23
:101AA400DF01DF0A6B2D0130B0003008B507640890
:101AB400013EB000003003180130B1003108803A13
:101AC400803C031D672D30083502031C6A2D6B2DE5
:101AD4002D2D053083120313A8000030A9000A1627
:101AE4008A11DD220A128A15831203135F08031D6B
:101AF4007C2D7D2D812D0130B0003008E407143099
:101B04006406031D862D872D892DDF01DF0A080059
:101B1400831203139F188F2D902D912D9F145E080F
:101B2400803AFF0083307F02031D9A2DE9305D0265
:101B3400031C9D2D9E2DC82D831603130D18A32D54
:101B4400A42DC02D8230F6004230F7008312031317
:101B54000E08823EA3000F080318013E423EA40073
:101B640023089B0024089C000D10831603130D14F6
:101B740000300A168A1104240A128A1583120313E8
:101B8400861AC52DC62D8A2DA501852E8312031311
:101B94005E08803AFF0080307F02031DD32D14308D
:101BA4005D020318D62DD72D022E831603130D18AC
:101BB400DC2DDD2DF92D4130F6002130F7008312A4
:101BC40003130E08413EA3000F080318013E213EF3
:101BD400A40023089B0024089C000D108316031303
:101BE4000D1401300A168A1104240A128A1583126C
:101BF4000313861AFE2DFF2D8A2DA501A50A852E15
:101C0400831203135C08803AFF0083307F02031DB4
:101C14000D2EE9305B02031C102E112E3E2E83166E
:101C240003130D18162E172E332EA130F600103084
:101C3400F700831203130E08A13EA3000F08031834
:101C4400013E103EA40023089B0024089C000D10B4
:101C5400831603130D1402300A168A1104240A127F
:101C64008A1583120313861A382E392E8A2D0230D0
:101C7400A3002308A500852E831203135C08803A71
:101C8400FF0080307F02031D492E14305B020318CD
:101C94004C2E4D2E7A2E831603130D18522E532ECE
:101CA4006F2E5030F6000830F700831203130E082D
:101CB400503EA3000F080318013E083EA400230869
:101CC4009B0024089C000D10831603130D1405308B
:101CD4000A168A1104240A128A1583120313861A17
:101CE400742E752E842E0330A3002308A500852EA0
:101CF400831603130D101F3083120313A30023084C
:101D040087058A2D8A2D831603130D101F30831225
:101D14000313A300230887050830A0000030A100A6
:101D24000A168A11C4220A128A1583120313861E04
:101D34009C2E9D2E972E9F14F430A0000130A100FC
:101D44000A168A11C4220A128A158312031325085B
:101D54000800943083120313A8008330A9000530CF
:101D6400AA000030AB000A168A11D4230A128A157D
:101D740083120313B501E22F0430A7000030A8003A
:101D84003508B000B1013008A9003108AA000A16CC
:101D94008A11B3260A128A15831203132708C03E38
:101DA4008400831300080339B2003208B400B72F4B
:101DB4000430A7000030A8003508B000B101300895
:101DC400A9003108AA000A168A11B3260A128A1534
:101DD400831203132708C03E840083130008B20053
:101DE40002300310B20CFF3E031DF32E32080339F8
:101DF400B3003308B400B72F0430A7000030A800A4
:101E04003508B000B1013008A9003108AA000A164B
:101E14008A11B3260A128A15831203132708C03EB7
:101E2400840083130008B20004300310B20CFF3E98
:101E3400031D172F32080339B3003308B400B72F3A
:101E44000430A7000030A8003508B000B101300804
:101E5400A9003108AA000A168A11B3260A128A15A3
:101E6400831203132708C03E840083130008B200C2
:101E740006300310B20CFF3E031D3B2F320803391A
:101E8400B3003308B400B72F8312031335080339A2
:101E9400B000B1013108003A0319512FB72F3008AF
:101EA400003A0319BE2E013A0319DA2E033A031934
:101EB400FE2E013A0319222FB72F00300A168A1179
:101EC40004240A128A15823083120313A0004230BC
:101ED400A1003F30B0003008A2000A168A112F2357
:101EE4000A128A15CD2F01300A168A1104240A1207
:101EF4008A15413083120313A0002130A1003F3022
:101F0400B0003008A2000A168A112F230A128A157B
:101F1400CD2F02300A168A1104240A128A15A13020
:101F240083120313A0001030A1003F30B00030082A
:101F3400A2000A168A112F230A128A15CD2F053002
:101F44000A168A1104240A128A15503083120313C4
:101F5400A0000830A1003F30B0003008A2000A16EB
:101F64008A112F230A128A15CD2F3408B000B1012B
:101F74003108003A0319BF2FCD2F3008003A031956
:101F84005F2F013A0319752F033A03198B2F013A76
:101F94000319A12FCD2F1F3083120313B000300873
:101FA4008705FA30A0000030A1000A168A11C42265
:101FB4000A128A15013083120313B0003008B507E2
:101FC4006408013EB000003003180130B10031084C
:101FD400803A803C031DF02F30083502031CF32F98
:101FE400F42F462F053083120313A8000030A900F4
:0C1FF4000A168A11DD220A128A15080064
:1024F40000340334013404340234053464008001AC
:10250400840A0406031900340406812AC0308312A5
:102514000313A00020088316031381050115080086
:1025240083120313A1010130A0002008A107083081
:102534002102031C9E2A9F2A952A08008312031352
:10254400B3003308B2003208A2003008A3003108F7
:10255400A40010300A168A115E250A168A11080092
:102564008312031369080A128A11F4270A168A11BE
:10257400A03E84008313000883120313A1002108E2
:10258400E8000800D42A643081000B110B1DCB2A0B
:10259400CC2AC82A013083120313A0020030031C82
:1025A400A103A1028312031320082104031DDB2AC3
:1025B400DC2AC52A080083120313A201A20A2808F0
:1025C400A3002908A40000300A168A115E250A1601
:1025D4008A11023083120313A0000030A1000A16EE
:1025E4008A11C4220A168A1108000A128A11712754
:1025F4000A168A110A168A11C9240A168A110A129D
:102604008A113D220A168A110A128A15AB260A1665
:102614008A110A128A1577240A168A11080083126D
:102624000313AB002B08803EAA002A08A200280846
:10263400A3002908A40000300A168A115E250A1690
:102644008A11023083120313A0000030A1000A167D
:102654008A11C4220A168A1108008312031321085E
:10266400F7002008F60020080E07A300210803182D
:10267400210A0F07A40023089B0024089C000D10C6
:10268400831603130D14831203132208A3002308D3
:10269400FA00E50165080319502B512B4C2B8316C6
:1026A40003130D100800003083120313DD00023001
:1026B400DE000030DB000230DC00860183160313E9
:1026C4008113243095003F3086001E308316031793
:1026D40089008B170B17831203130C138316031330
:1026E4000C1780309F00A530831203139F00E10173
:1026F400E10A0800FF3083120313A0002008FA0047
:10270400E501E50AFA3083160313920083120313DA
:102714008C10831603138C14563083120313920007
:102724009715171197141710901010129012101378
:1027340010149D151D119D101D10FD30A0002008C2
:102744008316031387050800831203136708031D08
:10275400AC2BAD2BBC2B0530B0000030B1002030C9
:102764000A168A11A0220A168A1183120313E7019A
:10277400E70AC92B0530B0000030B10068080A161A
:102784008A11A0220A168A1183120313E701053065
:10279400A8000030A90069080A168A1111230A1634
:1027A4008A110800F32B2908FF00280884000A1264
:1027B4008A1100230A168A11AC002C08A2002A08E8
:1027C400A3002B08A40010300A168A115E250A16ED
:1027D4008A11013083120313A8070318A90A0030D1
:1027E400A907831203132908FF00280884000A128A
:1027F4008A1100230A168A11003A031D022C032CA5
:10280400D52B080083120313A2001F30A000200858
:1028140087051F2C87163E2C07173E2C87173E2C46
:10282400871607173E2C071787173E2C871787161E
:102834003E2C8716071787173E2C2208A000A101FB
:102844002108003A0319272C3E2C2008003A0319CA
:102854000C2C013A03190E2C033A0319102C013ADB
:102864000319122C073A0319152C013A0319182CD1
:10287400033A03191B2C3E2C080005308312031362
:10288400A8000030A9000A168A11DD220A168A114E
:1028940083120313B50110303506031D522C532C3B
:1028A4005D2C0530A8000030A90040300A168A11BA
:1028B40011230A168A11053083120313B000003065
:1028C400B1003508A03E8400831300080A168A115B
:1028D400A0220A168A11013083120313B4003408AB
:1028E400B50720303502031C782C792C4D2C05308B
:1028F400A8000030A90069080A168A1111230A16D3
:102904008A110800FF3083120313D5005508E20032
:102914000A128A1500220A168A1183120313D60199
:10292400FF30D5005608A03E84005508831380006C
:102934000130D5005508D60720305602031CA32CBD
:10294400A42C922C0530A8000030A9000A168A1184
:10295400DD220A168A1183120313E901E7010A161C
:102964008A11B2220A168A1183120313E601053072
:10297400A8000030A90069080A168A1111230A1652
:102984008A110A168A1154260A168A11080005307B
:1029940083120313A8000030A9000A168A11DD224D
:1029A4000A168A11033083120313B4003408B500E5
:1029B4000530A8000030A90007300A168A11112337
:1029C4000A168A11053083120313B0000030B100D7
:1029D4003508303E0A168A11A0220A168A11E830F8
:1029E40083120313A0000330A1000A168A11C42223
:1029F4000A168A11FF3083120313B4003408B50792
:102A0400B51F052D062DDA2C0530A8000030A900CD
:102A14000A168A11DD220A168A110800E830831288
:102A24000313A0000330A1000A168A11C4220A1657
:102A34008A1183120313640863020318222D232DC1
:102A4400312D2630AD008430AE004030AF008430EC
:102A5400B0000A128A1155200A168A11522D6308F1
:102A640064020318362D372D452D2630AD008430F1
:102A7400AE004D30AF008430B0000A128A115520E8
:102A84000A168A11522DD230AD008330AE00803048
:102A9400AF008430B0000A128A1155200A168A1138
:102AA400E83083120313A0000330A1000A168A1130
:102AB400C4220A168A11080083120313A7002208ED
:102AC400A50004300310A50CFF3E031D642D25084A
:102AD400203E2704A600230884008317241C8313A4
:102AE400260880000A168A1192220A168A11831275
:102AF4000313230884008317241C83130008DF397D
:102B0400A500230884008317241C83132508800050
:102B140022080F39203E2704A500230884008317C8
:102B2400241C8313250880000A168A1192220A168F
:102B34008A1183120313230884008317241C83132C
:102B44000008DF39A500230884008317241C83139D
:102B54002508800008000A168A1188220A168A119C
:102B6400831203132A08840083172B1C8313800108
:102B74000F30A0000030A1000A168A11C4220A16E0
:102B84008A11283083120313AC002C08A2002A08EF
:102B9400A3002B08A40000300A168A115E250A1629
:102BA4008A110C3083120313AC002C08A2002A08EB
:102BB400A3002B08A40000300A168A115E250A1609
:102BC4008A11831203132A08A8002B08A9000A16E5
:102BD4008A11DD220A168A11063083120313AC000F
:102BE4002C08A2002A08A3002B08A40000300A160F
:102BF4008A115E250A168A11080083120313AF0195
:102C04002A08AD0002300310AD0DFF3E031D052E52
:102C140003102D0D2F044038AE002E08A2002B08FF
:102C2400A3002C08A40000300A168A115E250A1697
:102C34008A11831203132908FF00280884000A124A
:102C44008A1100230A168A11AD002D08A2002B0850
:102C5400A3002C08A40010300A168A115E250A1657
:102C64008A11013083120313A8070318A90A00303C
:102C7400A9070130AD002D08AF0708302F02031C4F
:102C8400442E452E022E8030AD002D08A2002B08C4
:102C9400A3002C08A40000300A168A115E250A1627
:102CA4008A110800333084002030FF008313800130
:102CB400840AFF0B582E83120313D301AC2E110880
:102CC400B0000E080339023E013E6A2E0310B00C18
:102CD400FF3E031D682E3008B100B2013108A00088
:102CE4003208A1000A168A11C4220A168A11831214
:102CF40003130E081F39B0003008D4005408333EC3
:102D0400840083130008031D882E892EAC2E5408DA
:102D1400333E84008001800A0430A7000030A800FC
:102D24005308B000B1013008A9003108AA000A16FE
:102D34008A11B3260A168A11831203132708B200D4
:102D44005408B03E84003208831780000130B0007C
:102D54003008D30720305306031DB12EB22E612E46
:102D6400080083120313AD01A81FB92EBA2EC12E79
:102D7400A709A809A70A0319A80AAD01AD0AAA1F41
:102D8400C42EC52ECE2EA909AA09A90A0319AA0A76
:102D94000130AB002B08AD06AE01AF0127082804B3
:102DA4000319D52ED62E0D2FAC01AC0AE42E01301A
:102DB4000310A70DA80DFF3E031DDA2E0130AB0052
:102DC4002B08AC07A81FE72EE82ED92E01300310DC
:102DD400AE0DAF0DFF3E031DE92E28082A02031D88
:102DE400F52E27082902031CF82EF92E002F270898
:102DF400A9022808031CAA03AA022E1401300310F6
:102E0400A80CA70CFF3E031D012F0130AC02031DCB
:102E14000C2F0D2FE82E2D080319112F122F172F09
:102E2400AE09AF09AE0A0319AF0A2F08A8002E088D
:102E3400A7000800183083120313A8008430A900E7
:102E44000830AA000030AB000A168A11D4230A16EF
:102E54008A11633083120313A8008330A90005305C
:102E6400AA000030AB000A168A11D4230A168A116C
:102E7400053083120313A8000030A90040300A165D
:102E84008A1111230A168A11673083120313A800CA
:102E94008430A9000530AA000030AB000A168A115C
:102EA400D4230A168A1183120313861A5A2F5B2F0E
:102EB400552F0830A0000030A1000A168A11C42240
:102EC4000A168A1183120313861E692F6A2F642F30
:102ED4000830A0000030A1000A168A11C4220A1684
:102EE4008A11083083120313A8000030A9000A16BF
:102EF4008A11DD220A168A11053083120313A800F1
:102F04000030A9000A168A11DD220A168A118312DA
:102F14000313E4010800831203136408031D932FB1
:102F2400942FA22F0A30AD008430AE00EE30AF00F3
:102F34008330B0000A128A1155200A168A11FF2F15
:102F4400063064020318A72FA82FB62F0A30AD004D
:102F54008430AE005230AF008330B0000A128A11C0
:102F640055200A168A11FF2F0B3064020318BB2F59
:102F7400BC2FCA2F0A30AD008430AE003330AF000E
:102F84008430B0000A128A1155200A168A11FF2FC4
:102F9400103064020318CF2FD02FDE2F0A30AD007B
:102FA4008430AE00E030AF008330B0000A128A11E2
:102FB40055200A168A11FF2F143064020318E32FD8
:102FC400E42FF22F0A30AD008430AE007430AF002D
:102FD4008330B0000A128A1155200A168A11FF2F75
:102FE4000A30AD008430AE00C430AF008330B0008E
:0C2FF4000A128A1155200A168A110800E2
:04400E00F2E0FFFEDF
:00000001FF
