:020000040000FA
:100000000A128A110E280134FE00030EF2000408C1
:10001000F3000A08F4000A128A15D82E0A128A116F
:1000200011288313E630FD000930FE003630FF0052
:10003000E03084000A128A157E210A128A116E307D
:10004000FD000930FE003230FF006A3084000A12E1
:100050008A157E210A128A110A128A1103200A12B5
:100060008A11FB00831790308400B0300A128A1581
:100070003C210A128A118313A0308400E0300A1256
:100080008A153C210A128A115B3084006A300A12F8
:100090008A153C210A128A11F601F701F801F901CB
:1000A000FA0183010A128A11982B83120313E101CA
:1000B000E10A343084008316031360088313800040
:1000C000840A61088000840A62088000840A630848
:1000D0008000840A64088000840A65088000831216
:1000E0000313BB01BA013B08343E840083130008AC
:1000F0000A128A158D220A128A1101308312031303
:10010000B1003108BB070630A0000030A1003B0859
:10011000B100B2013108A2003208A3000A128A1508
:100120008F240A128A11831203132008B3003308A4
:10013000BB00D930A0000730A1001E30B10031084B
:10014000A2000A128A11DA270A128A1183120313F3
:100150003B08343E8400831300080A128A158D225E
:100160000A128A11013083120313B1003108BB0750
:100170000630A0000030A1003B08B100B2013108F8
:10018000A2003208A3000A128A158F240A128A11CB
:10019000831203132008B3003308BB006830A000AB
:1001A0000730A1001E30B1003108A2000A128A11E6
:1001B000DA270A128A11831203133B08343E8400A3
:1001C000831300080A128A158D220A128A1101303F
:1001D00083120313B1003108BB070630A0000030C2
:1001E000A1003B08B100B2013108A2003208A3000F
:1001F0000A128A158F240A128A1183120313200807
:10020000B3003308BB003A30A0000630A1001E3016
:10021000B1003108A2000A128A11DA270A128A11E3
:10022000831203133B08343E8400831300080A1230
:100230008A158D220A128A11013083120313B1002C
:100240003108BB070630A0000030A1003B08B10018
:10025000B2013108A2003208A3000A128A158F24C5
:100260000A128A11831203132008B3003308BB005B
:10027000FA30A0000030A1000A128A158D210A125E
:100280008A11013083120313B1003108BA07033019
:100290003A02031C4C294D2973283B08343E840044
:1002A000831300080A128A158D220A128A1101305E
:1002B00083120313B1003108BB070630A0000030E1
:1002C000A1003B08B100B2013108A2003208A3002E
:1002D0000A128A158F240A128A1183120313200826
:1002E000B3003308BB005530A0000930A1003C30FA
:1002F000B1003108A2000A128A11DA270A128A1103
:10030000352A0530A8000030A9000A128A15A62156
:100310000A128A11831203132D08A8002E08A900BF
:100320000530AA000030AB000A128A155D220A12BD
:100330008A1183120313E5017830B1003108FA0005
:10034000AA29861EA429A529A9290619A829A92907
:10035000AA29E10165080319AE29AF29A1293B08A3
:10036000343E8400831300080A128A158D220A1273
:100370008A11013083120313B1003108BB07063024
:10038000A0000030A1003B08B100B2013108A2007A
:100390003208A3000A128A158F240A128A118312C6
:1003A00003132008B3003308BB000530A800003059
:1003B000A9000A128A15A6210A128A110530831291
:1003C0000313A8000030A90040300A128A15C0218A
:1003D0000A128A11831203132F08A8003008A900FB
:1003E0000530AA000030AB000A128A155D220A12FD
:1003F0008A1183120313E5017830B1003108FA0045
:100400000A2A861E042A052A092A0619082A092A00
:100410000A2AE101650803190E2A0F2A012A3B085E
:10042000343E8400831300080A128A158D220A12B2
:100430008A11013083120313B1003108BB07063063
:10044000A0000030A1003B08B100B2013108A200B9
:100450003208A3000A128A158F240A128A11831205
:1004600003132008B3003308BB0083120313610396
:1004700003193B2A3C2A81290800831203139F1881
:10048000422A432A442A9F14861A472A482A4D2A78
:10049000600803194C2A4D2A562A0619502A512A57
:1004A000AC2A6003031D552A562AAC2A6103031D9A
:1004B0005A2A5B2AAC2A0630A0000030A1000A129A
:1004C0008A158D210A128A1183120313E10169082A
:1004D0000A128A154E210A128A11A03E8400831343
:1004E000000A031D742A752AC02A8312031369089F
:1004F0000A128A154E210A128A11C03E8400831303
:10050000000883120313B90069080A128A154E21E4
:100510000A128A11A03E8400831203133908831340
:10052000800069080A128A154E210A128A11C03EFB
:1005300084008313000883120313B9003908E8000C
:1005400060080A128A11DF240A128A110A128A1517
:1005500006230A128A11C02A861EAF2AB02AB52A9B
:1005600060080319B42AB52ABE2A061DB82AB92A7A
:10057000C02A6003031DBD2ABE2AC02AE101E10A88
:10058000831203130C1DC52AC62AE62A6608031D1A
:10059000CA2ACB2AD52A1930B9003908E6000A122E
:1005A0008A152F220A128A11D72A0130E6028312F5
:1005B00003130E08503EB9000F080318013EC33E56
:1005C000BA00390895003A0896000C115E08803A86
:1005D000FF0083307F02031DEF2A85305D02031C7C
:1005E000F22AF32A052B8312031365080319F92A4B
:1005F000FA2A972B0230B9003908B4001E300A12CB
:100600008A1545260A128A11972B831203135E0856
:10061000803AFF0080307F02031D102B64305D02A2
:100620000318132B142B262B8312031365080319AD
:100630001A2B1B2B972B0330B9003908B4001E303E
:100640000A128A1545260A128A11972B8312031360
:100650005E08803AFF0083307F02031D312B21307A
:100660005D02031C342B352B472B831203136508C3
:1006700003193B2B3C2B972B0230B9003908B400EF
:100680003C300A128A1545260A128A11972B8312CA
:1006900003135E08803AFF0080307F02031D522B57
:1006A000C8305D020318552B562B682B8312031399
:1006B000650803195C2B5D2B972B0330B9003908B3
:1006C000B4003C300A128A1545260A128A11972B6B
:1006D000FD30831203135B06033003195C06031D10
:1006E000722B732B812B65080319772B782B972B93
:1006F000B401B40A64300A128A1545260A128A1116
:10070000972B5B085C04031D862B872B952B6508B4
:1007100003198B2B8C2B972BB401B40A64300A126B
:100720008A1545260A128A11972BE501E50A080069
:10073000831603130F1088018501831603178801A0
:10074000053083120313AA000030AB000A128A1589
:10075000E8230A128A11083083120313AA0000301A
:10076000AB000A128A15E8230A128A110A128A15A6
:10077000DE210A128A111F3083120313D700570893
:100780008316031387058312031387010A128A1540
:1007900005220A128A1183120313E0018330A80094
:1007A0008630A9000830AA000030AB000A128A1572
:1007B0005D220A128A11733083120313A800863057
:1007C000A9000530AA000030AB000A128A155D228C
:1007D0000A128A11053083120313A8000030A90001
:1007E00040300A128A15C0210A128A11C8308312B9
:1007F0000313A8008630A9000530AA000030AB0022
:100800000A128A155D220A128A1105308312031317
:10081000A8000030A90000300A128A15C0210A126F
:100820008A11053083120313B0000030B1007E300E
:100830000A128A11EE250A128A11FF30831203135D
:10084000D7005708D900DA019F14B42C9F18292C1F
:100850002A2C2C2C07179F1465080319302C312CD7
:10086000B42C861A342C352C492C5A08D70057083A
:10087000D9000830A0000030A1000A128A158D218D
:100880000A128A1183120313861E472C482C422C0D
:10089000BB2C5C08803AFF0080307F02031D522C85
:1008A00064305B02031C552C562C652C83120313F9
:1008B0005C08803AFF0083307F02031D612C853085
:1008C0005B02031C642C652CB42C053083120313CB
:1008D000A8000030A9005A080A128A15C0210A127D
:1008E0008A11053083120313B0000030B1002030AC
:1008F0000A128A11EE250A128A11852C4030D7007F
:100900005708DA00972CDA01972C831203135A0840
:10091000D700D8015808003A03198F2C972C570894
:10092000003A03197E2C403A0319832C972C05308A
:10093000A8000030A9005A080A128A15C0210A121C
:100940008A11053083120313B0000030B1007E30ED
:100950000A128A11EE250A128A1183120313E50185
:100960003E30D7005708FA0083120313590A0319BF
:10097000BA2CBB2C262C5908031DBF2CC02CDC2CF8
:100980000A128A15C1220A128A110A128A15B22580
:100990000A128A11D02C0A128A113D220A128A11D7
:1009A000831203135F080319D62CD72CCB2C0A1201
:1009B0008A154B230A128A110A128A110E288312F1
:1009C0000313B800620A031DE62CE72CEC2C69081F
:1009D000B6003608E200ED2D69080A128A154E218C
:1009E0000A128A11C03E8400831300088312031385
:1009F000B60062080A128A154E210A128A11C03EF8
:100A0000840083130008831203133606031D092D87
:100A10000A2D782D3808031D0E2D0F2D142D0130B1
:100A2000B6003608E407182D0130B6003608E30793
:100A300001300A128A158D220A128A119930831206
:100A40000313A0000630A1000F30B6003608A20044
:100A50000A128A11DA270A128A1183120313071362
:100A60008C30A0000530A1000530B6003608A20089
:100A70000A128A11DA270A128A1101300A128A151B
:100A80008D220A128A11993083120313A0000630B6
:100A9000A1000F30B6003608A2000A128A11DA2728
:100AA0000A128A118312031307138C30A000053039
:100AB000A1000530B6003608A2000A128A11DA2712
:100AC0000A128A118312031364086307B600B70180
:100AD000B70D023036063704031D6F2D702D722DB1
:100AE000DF01DF0A0A128A1106270A128A11D82D9D
:100AF0000A128A1506230A128A1100300A128A1570
:100B00008D220A128A11EB3083120313A0008C305D
:100B1000A1001E30B6003608A2000A128A11DA2798
:100B20000A128A118312031387126430A000003066
:100B3000A1000A128A158D210A128A1100300A12A8
:100B40008A158D220A128A11EB3083120313A0003A
:100B50008C30A1001E30B6003608A2000A128A119D
:100B6000DA270A128A11831203138712FF30B600A4
:100B700062080A128A154E210A128A11A03E8400C8
:100B800083120313360883138000FF30B600690810
:100B90000A128A154E210A128A11A03E840083127D
:100BA0000313360883138000FF30B6003608E800D0
:100BB000FF3083120313B6003608E2000130B6009E
:100BC0003608E006E101E10A6430A0000030A1002F
:100BD0000A128A158D210A128A1108008312031342
:100BE000B3003308B2003208A2003008A300310875
:100BF000A40010300A128A1599230A128A110800DB
:100C0000FF1B0A2E83137F1883170008840A031919
:100C1000FF0A08007F087F398A000408840A031944
:100C2000FF0A8200183418341434043404340334B2
:100C3000023403341C3414341834143400340534AE
:100C4000073405340E34153415341F340A340E3489
:100C50000E34003400340E340E341F341F341F346D
:100C600004340E34003404340E341F341F340E3474
:100C700004340E34003400340A341F341F340E346C
:100C800004340034003404340E341F340E3404347D
:100C90000034003400340A340A340034153411347A
:100CA0000E34003450347234653473347334203469
:100CB0007434683465342034623475347434743474
:100CC0006F346E340034203443346F346E34633404
:100CD00065346E34743472346134743469346F340E
:100CE0006E34213400342034203443346F346E3475
:100CF000633465346E3474347234613474346934FA
:100D00006F346E3400342034473461346D346534CC
:100D10002034533465346C3465346334743469344A
:100D20006F346E3400342034203420344E344F3449
:100D30002034573449344E344E34453452342134FF
:100D400000342034203420342034573449344E3495
:100D50004E3445345234213421340034203420348C
:100D60002034203450344C344134593445345234D6
:100D700020343134003420342034203420345034B2
:100D80004C344134593445345234203432340034F4
:100D900020342034533469346D346F346E3420344D
:100DA00053346134793473340034203420342034A3
:100DB000203474346F3420347334743461347234B6
:100DC000743400342034203420342034203453341C
:100DD00063346F34723465343A3400342034203450
:100DE00020342034203420345434493445344434BD
:100DF000003420342034503432343A342034003437
:100E00002034503431343A3420340034E230831208
:100E10000313A8008630A9000830AA000030AB00F8
:100E20000A128A155D220A128A11083083120313EE
:100E3000A8000030A90040300A128A15C0210A1209
:100E40008A11003083120313A8008730A9000830EC
:100E5000AA000030AB000A128A155D220A128A111C
:100E6000083083120313B0000030B1000A30A7002D
:100E70000030A8006408B400B5013408A2003508A9
:100E8000A3006430A0000030A1000A128A158F244C
:100E90000A128A11831203132108AA002008A9004C
:100EA0000A128A1549250A128A1183120313270888
:100EB000303E0A128A11EE250A128A110830831276
:100EC0000313B0000030B1000A30A0000030A100D0
:100ED0006408B400B5013408A2003508A3000A1262
:100EE0008A158F240A128A11831203132008303EB8
:100EF0000A128A11EE250A128A11F930831203139D
:100F0000A8008630A9000830AA000030AB000A1201
:100F10008A155D220A128A11083083120313B00069
:100F20000030B1000A30A7000030A8006308B40008
:100F3000B5013408A2003508A3006430A0000030D9
:100F4000A1000A128A158F240A128A118312031330
:100F50002108AA002008A9000A128A1549250A12A8
:100F60008A11831203132708303E0A128A11EE25D4
:100F70000A128A11083083120313B0000030B10046
:100F80000A30A0000030A1006308B400B5013408A5
:100F9000A2003508A3000A128A158F240A128A11AA
:100FA000831203132008303E0A128A11EE250A121A
:100FB0008A110800831203132108F7002008F600A5
:100FC00020080E07A30021080318210A0F07A40018
:100FD00023089B0024089C000D10831603130D1496
:100FE000831203132208A3002308FA00E501650811
:100FF0000319FB2FFC2FF72F831603130D10080086
:1012640008340034053400340034033401340434C5
:101274000234053464008001840A0406031900342E
:1012840004063D29C03083120313A00020088316EE
:10129400031381050115080083120313A000201F06
:1012A4005429552958292008D03E592920080800D6
:1012B40083120313A1010130A0002008A107083004
:1012C4002102031C662967295D2908008312031380
:1012D40069080A128A154E210A128A15A03E840052
:1012E4008313000883120313A1002108E8000800F7
:1012F4007E088A007F0882000A128A157A210A125F
:101304008A158000840A04087D0603190034FF0A44
:101314000319FE0A7E299D29643081000B110B1DDF
:10132400942995299129013083120313A0020030D6
:10133400031CA103A1028312031320082104031D2B
:10134400A429A5298E29080083120313A201A20A45
:101354002808A3002908A40000300A128A1599233A
:101364000A128A15023083120313A0000030A10070
:101374000A128A158D210A128A1508008312031392
:10138400AB002B08803EAA002A08A2002808A3006C
:101394002908A40000300A128A1599230A128A1512
:1013A400023083120313A0000030A1000A128A1530
:1013B4008D210A128A150800003083120313DD0000
:1013C4000230DE000030DB000230DC0086018316D0
:1013D40003138113243095003F3086001E3083169A
:1013E400031789008B170B17831203130C1383162F
:1013F40003130C1780309F00A530831203139F0042
:10140400E101E10A0800FF3083120313A000200861
:10141400FA00E501E50AFA308316031392008312F9
:1014240003138C10831603138C1456308312031386
:10143400920097151711971417109010101290120C
:10144400101310149D151D119D101D10FD30A000CA
:101454002008831603138705080083120313670803
:10146400031D352A362A452A0530B0000030B10064
:1014740020300A128A11EE250A128A1583120313E8
:10148400E701E70A522A0530B0000030B1006808CD
:101494000A128A11EE250A128A1583120313E70130
:1014A4000530A8000030A90069080A128A15C02175
:1014B4000A128A1508007C2A2908FF0028088400DB
:1014C4000A128A1100260A128A15AC002C08A200FE
:1014D4002A08A3002B08A40010300A128A159923A5
:1014E4000A128A15013083120313A8070318A90AE4
:1014F4000030A907831203132908FF002808840079
:101504000A128A1100260A128A15003A031D8B2A30
:101514008C2A5E2A080083120313A2001F30A00045
:1015240020088705A42A8716C02A0717C02A871708
:10153400C02A87160717C02A07178717C02A8717D4
:101544008716C02A2208A000A1012108003A031925
:10155400AC2AC02A2008003A0319952A013A031933
:10156400972A033A0319992A013A03199B2A073A3D
:1015740003199E2A013A0319A12AC02A0800FF3040
:1015840083120313D5005508E2000A128A156C274A
:101594000A128A1583120313D601FF30D5005608A8
:1015A400A03E84005508831380000130D5005508FF
:1015B400D60720305602031CE02AE12ACF2A053040
:1015C400A8000030A9000A128A15A6210A128A1559
:1015D40083120313E901E7010A128A1568210A122A
:1015E4008A1583120313E6010530A8000030A90010
:1015F40069080A128A15C0210A128A150A128A1564
:10160400EA240A128A150800053083120313A8007D
:101614000030A9000A128A15A6210A128A1583121B
:101624000313B50110303506031D192B1A2B242B77
:101634000530A8000030A90040300A128A15C021E4
:101644000A128A15053083120313B0000030B1006A
:101654003508A03E8400831300080A128A11EE257F
:101664000A128A15013083120313B4003408B50733
:1016740020303502031C3F2B402B142B0530A800CF
:101684000030A90069080A128A15C0210A128A15B5
:101694000800E83083120313A0000330A1000A12EB
:1016A4008A158D210A128A158312031364086302B2
:1016B40003185D2B5E2B6C2BA130AD008630AE0081
:1016C400AE30AF008630B0000A128A1155200A12DB
:1016D4008A158D2B630864020318712B722B802BDF
:1016E400A130AD008630AE00BB30AF008630B00014
:1016F4000A128A1155200A128A158D2B9330AD00D7
:101704008630AE00EE30AF008630B0000A128A1187
:1017140055200A128A15E83083120313A0000330FF
:10172400A1000A128A158D210A128A150800831253
:101734000313A7002208A50004300310A50CFF3EE4
:10174400031D9F2B2508203E2704A60023088400A0
:101754008317241C8313260880000A128A155A2131
:101764000A128A1583120313230884008317241C86
:1017740083130008DF39A500230884008317241C81
:1017840083132508800022080F39203E2704A50072
:10179400230884008317241C8313250880000A125D
:1017A4008A155A210A128A15831203132308840006
:1017B4008317241C83130008DF39A5002308840041
:1017C4008317241C83132508800008000A128A1535
:1017D40044210A128A15831203132A0884008317EA
:1017E4002B1C831380010F30A0000030A1000A12CB
:1017F4008A158D210A128A15283083120313AC002E
:101804002C08A2002A08A3002B08A40000300A1206
:101814008A1599230A128A150C3083120313AC001B
:101824002C08A2002A08A3002B08A40000300A12E6
:101834008A1599230A128A15831203132A08A80009
:101844002B08A9000A128A15A6210A128A15063045
:1018540083120313AC002C08A2002A08A3002B084F
:10186400A40000300A128A1599230A128A15080066
:1018740083120313AF012A08AD0002300310AD0D2B
:10188400FF3E031D402C03102D0D2F044038AE00E5
:101894002E08A2002B08A3002C08A40000300A1272
:1018A4008A1599230A128A15831203132908FF0043
:1018B400280884000A128A1100260A128A15AD002B
:1018C4002D08A2002B08A3002C08A40010300A1233
:1018D4008A1599230A128A15013083120313A80763
:1018E4000318A90A0030A9070130AD002D08AF077D
:1018F40008302F02031C7F2C802C3D2C8030AD003F
:101904002D08A2002B08A3002C08A40000300A1202
:101914008A1599230A128A15080083120313A60153
:10192400A31F952C962C9D2CA209A309A20A031986
:10193400A30AA601A60AA11FA02CA12CA62CA009CB
:10194400A109A00A0319A10A200821040319AB2C38
:10195400AC2CDB2CA501A50ABA2C01300310A00D78
:10196400A10DFF3E031DB02C0130A4002408A507DF
:10197400A11FBD2CBE2CAF2C21082302031DC42C97
:1019840020082202031CC72CC82CCE2C2008A2023B
:101994002108031CA303A30201300310A10CA00C13
:1019A400FF3E031DCF2C0130A502031DDA2CDB2CD6
:1019B400BE2C26080319DF2CE02CE52CA209A30970
:1019C400A20A0319A30A2308A1002208A000080000
:1019D400333084002030FF0083138001840AFF0B1E
:1019E400EE2C83120313D301422D1108B0000E080C
:1019F4000339023E013E002D0310B00CFF3E031DCF
:101A0400FE2C3008B100B2013108A0003208A10058
:101A14000A128A158D210A128A15831203130E08DD
:101A24001F39B0003008D4005408333E84008313B7
:101A34000008031D1E2D1F2D422D5408333E840023
:101A44008001800A0430A7000030A8005308B000C9
:101A5400B1013008A9003108AA000A128A154925E3
:101A64000A128A15831203132708B2005408C03ED1
:101A740084003208831380000130B0003008D3079B
:101A840020305306031D472D482DF72C08008312E0
:101A94000313AD01A81F4F2D502D572DA709A809D9
:101AA400A70A0319A80AAD01AD0AAA1F5A2D5B2D76
:101AB400642DA909AA09A90A0319AA0A0130AB00CD
:101AC4002B08AD06AE01AF012708280403196B2DBE
:101AD4006C2DA32DAC01AC0A7A2D01300310A70D97
:101AE400A80DFF3E031D702D0130AB002B08AC0781
:101AF400A81F7D2D7E2D6F2D01300310AE0DAF0D6F
:101B0400FF3E031D7F2D28082A02031D8B2D270865
:101B14002902031C8E2D8F2D962D2708A902280833
:101B2400031CAA03AA022E1401300310A80CA70C4C
:101B3400FF3E031D972D0130AC02031DA22DA32DE2
:101B44007E2D2D080319A72DA82DAD2DAE09AF09A3
:101B5400AE0A0319AF0A2F08A8002E08A700080030
:101B640083120313DF010530A8000030A9000A1214
:101B74008A15A6210A128A15083083120313A800B5
:101B84000030A9000A128A15A6210A128A156330A8
:101B940083120313A8008630A9000830AA0000307D
:101BA400AB000A128A155D220A128A15523083127A
:101BB4000313A8008630A9000530AA000030AB004A
:101BC4000A128A155D220A128A150530831203133C
:101BD400A8000030A90040300A128A15C0210A1258
:101BE4008A15D53083120313A8008630A900053066
:101BF400AA000030AB000A128A155D220A128A1567
:101C040083120313861A072E082E022E0830A00012
:101C14000030A1000A128A158D210A128A15831236
:101C24000313861E162E172E112E0830A000003026
:101C3400A1000A128A158D210A128A150530831211
:101C44000313A8000030A9000A128A15A6210A125B
:101C54008A15083083120313A8000030A9000A1261
:101C64008A15A6210A128A1583120313E401E301DB
:101C74000A128A1106270A128A150A128A150623DD
:101C84000A128A15080083120313B700E501370806
:101C9400B5003508FA008C2E4030B5003508E90649
:101CA4009F2E0F30B5003508E9009F2E4F30B50048
:101CB4003508E9009F2E0130E9029F2E6908B5001E
:101CC400B6013608003A0319682E5D2E3508003A2D
:101CD4000319532E403A0319582E5D2EE9019F2E05
:101CE4004030B5003508E9009F2E0130B5003508B5
:101CF400E9079F2E6908B500B6013608003A0319B2
:101D0400842E772E35080F3A0319702E403A0319A2
:101D1400722E772E3408B500B6013608003A03193E
:101D2400942E9F2E3508013A03194E2E033A0319B7
:101D3400602E013A03197C2E9F2E0530B00000302E
:101D4400B10068080A128A11EE250A128A150530B4
:101D540083120313A8000030A90069080A128A1527
:101D6400C0210A128A150A128A1568210A128A15D4
:101D7400831203136703031DC02EC12ED72E053013
:101D8400B0000030B10020300A128A11EE250A1288
:101D94008A15053083120313A8000030A9006908CE
:101DA4000A128A15C0210A128A1508008312031325
:101DB4000D1CDD2EDE2EF42E831603130D1CE32ED4
:101DC400E42EF42E7608831203139B0703189C0A4F
:101DD40077089C071D1CEF2EF02EF22E1D10F32EFB
:101DE4001D140D1083120C1FF82EF92E552F1F08E9
:101DF4003C39F0007008F500C330F00070089F050E
:101E04002C3075060319072F082F0E2F283075065E
:101E1400031D0D2F0E2F312F1E08DE008316031312
:101E24001E0883120313DD00212F2430F0007008F4
:101E34009F04542F3030F00070089F04542F600822
:101E4400F000F1017108003A0319292F542F70088A
:101E5400003A0319172F013A03191C2F542F1E0897
:101E6400DC00831603131E0883120313DB00442FC4
:101E74002C30F00070089F04542F2830F0007008B4
:101E84009F04542F6008F000F1017108003A03190F
:101E94004C2F542F7008003A03193A2F013A0319B2
:101EA4003F2F542F0C138C1C582F592F632F0130A4
:101EB400FA027A08031D5F2F602F622FE501E50AFD
:101EC4008C1074088A0073088400720E8300FE0E5E
:101ED4007E0E09004A3083120313A8008630A9003D
:101EE400AA010530AB000030AC000A128A153A246E
:101EF4000A128A15423083120313A8008630A900FF
:101F0400AA01AA0A0530AB000030AC000A128A15F7
:101F14003A240A128A153A3083120313A800863031
:101F2400A9000230B0003008AA000530AB00003030
:101F3400AC000A128A153A240A128A153230831226
:101F44000313A8008630A9000330B0003008AA00AB
:101F54000530AB000030AC000A128A153A240A128C
:101F64008A152A3083120313A8008630A90004308E
:101F7400B0003008AA000530AB000030AC000A12F3
:101F84008A153A240A128A15223083120313A800F0
:101F94008630A9000530B0003008AA000530AB0037
:101FA4000030AC000A128A153A240A128A151A3033
:101FB40083120313A8008630A9000630B00030084D
:101FC400AA000530AB000030AC000A128A153A248E
:101FD4000A128A15123083120313A8008630A9004E
:101FE4000730B0003008AA000530AB000030AC0068
:0C1FF4000A128A153A240A128A15080005
:04400E00F2E0FFFEDF
:00000001FF
