:020000040000FA
:060000000A128A110E280D
:10000800FE00030EF2000408F3000A08F4000A12C6
:100018008A11982E0A128A11112883137030FD0054
:100028000A30FE00C730FF00663084000A128A15C5
:10003800F9220A128A110A128A11FF270A128A1152
:10004800FB00831790308400B0300A128A15B5225D
:100058000A128A118313A0308400E0300A128A152C
:10006800B5220A128A115730840066300A128A159E
:10007800B5220A128A11F601F701F801F901FA010D
:1000880083010A128A159F2C83120313B600DD011F
:10009800DD0A30308400660883138000840A67080C
:1000A8008000840A68088000840A69088000840A3D
:1000B8006A088000840A6B088000B801B701380814
:1000C800303E8400831300080A128A11BF270A12DF
:1000D8008A11013083120313AD002D08B8070630CA
:1000E800A0000030A1003808AD00AE012D08A20024
:1000F8002E08A3000A128A15E0250A128A11831213
:1001080003132008AF002F08B800D930A00007302B
:10011800A1001E30AD002D08A2000A128A156F2317
:100128000A128A11831203133808303E840083139D
:1001380000080A128A11BF270A128A110130831295
:100148000313AD002D08B8070630A0000030A10049
:100158003808AD00AE012D08A2002E08A3000A122F
:100168008A15E0250A128A11831203132008AF00AA
:100178002F08B8006830A0000730A1001E30AD007D
:100188002D08A2000A128A156F230A128A118312F7
:1001980003133808303E8400831300080A128A11BA
:1001A800BF270A128A11013083120313AD002D08EC
:1001B800B8070630A0000030A1003808AD00AE0135
:1001C8002D08A2002E08A3000A128A15E0250A129B
:1001D8008A11831203132008AF002F08B8003A30A1
:1001E800A0000630A1001E30AD002D08A2000A12A2
:1001F8008A156F230A128A11831203133808303EB6
:100208008400831300080A128A11BF270A128A1170
:10021800013083120313AD002D08B8070630A00083
:100228000030A1003808AD00AE012D08A2002E084C
:10023800A3000A128A15E0250A128A1183120313F1
:100248002008AF002F08B800FA30A0000030A10045
:100258000A128A151E230A128A1101308312031307
:10026800AD002D08B70703303702031C3C293D2990
:1002780063283808303E8400831300080A128A1164
:10028800BF270A128A11013083120313AD002D080B
:10029800B8070630A0000030A1003808AD00AE0154
:1002A8002D08A2002E08A3000A128A15E0250A12BA
:1002B8008A11831203132008AF002F08B8005530A5
:1002C800A0000930A1003C30AD002D08A2000A12A0
:1002D8008A156F230A128A11172A0530A8000030E0
:1002E800A9000A128A1537230A128A1105308312C7
:1002F8000313A8000030A90036080A128A15BC2387
:100308000A128A1183120313E1017830AD002D0817
:10031800FA009329861A912992299329DD01610807
:100328000319972998298E293808303E84008313A9
:1003380000080A128A11BF270A128A110130831293
:100348000313AD002D08B8070630A0000030A10047
:100358003808AD00AE012D08A2002E08A3000A122D
:100368008A15E0250A128A11831203132008AF00A8
:100378002F08B8000530A8000030A9000A128A1515
:1003880037230A128A11053083120313A80000309C
:10039800A90040300A128A1551230A128A11053021
:1003A80083120313A8000030A9002C080A128A152A
:1003B800BC230A128A1183120313E1017830AD00BD
:1003C8002D08FA00EC29861AEA29EB29EC29DD0127
:1003D80061080319F029F129E7293808303E84001B
:1003E800831300080A128A11BF270A128A110130E2
:1003F80083120313AD002D08B8070630A0000030A3
:10040800A1003808AD00AE012D08A2002E08A300F7
:100418000A128A15E0250A128A118312031320088A
:10042800AF002F08B800831203135D0303191D2AB8
:100438001E2A71290800831203139F18242A252ACB
:10044800262A9F14861A292A2A2A2F2A5C08031981
:100458002E2A2F2A382A0619322A332A8E2A5C0392
:10046800031D372A382A8E2A5D03031D3C2A3D2A9C
:100478008E2A0630A0000030A1000A128A151E2319
:100488000A128A1183120313DD0165080A128A1100
:10049800F3270A128A11A03E84008313000A031D61
:1004A800562A572AA22A8312031365080A128A11A8
:1004B800F3270A128A11C03E8400831300088312AE
:1004C8000313B90065080A128A11F3270A128A1160
:1004D800A03E840083120313390883138000650843
:1004E8000A128A11F3270A128A11C03E8400831364
:1004F800000883120313B9003908E4005C080A12E3
:100508008A117A230A128A110A128A155A240A129F
:100518008A11A22A861E912A922A972A5C08031910
:10052800962A972AA02A061D9A2A9B2AA22A5C03A1
:10053800031D9F2AA02AA22ADD01DD0A83120313C4
:100548000C1DA72AA82AC82A6208031DAC2AAD2AAE
:10055800B72A1930B9003908E2000A128A15E723C8
:100568000A128A11B92A0130E202831203130E0813
:10057800503EB9000F080318013EC33EBA003908BF
:1005880095003A0896000C115A08803AFF0083300B
:100598007F02031DD12A85305902031CD42AD52A8B
:1005A800E72A8312031361080319DB2ADC2A792B53
:1005B8000230B9003908B4001E300A128A112C27FB
:1005C8000A128A11792B831203135A08803AFF0002
:1005D80080307F02031DF22A643059020318F52A7D
:1005E800F62A082B8312031361080319FC2AFD2A33
:1005F800792B0330B9003908B4001E300A128A1169
:100608002C270A128A11792B831203135A08803A6D
:10061800FF0082307F02031D132BBD305902031CDB
:10062800162B172B292B83120313610803191D2B73
:100638001E2B792B0230B9003908B4003C300A125D
:100648008A112C270A128A11792B831203135A084C
:10065800803AFF0081307F02031D342B2C30590271
:100668000318372B382B4A2B8312031361080319FD
:100678003E2B3F2B792B0330B9003908B4003C30AE
:100688000A128A112C270A128A11792BFD3083123B
:1006980003135706033003195806031D542B552B13
:1006A800632B61080319592B5A2B792BB401B40A0F
:1006B80064300A128A112C270A128A11792B5708DA
:1006C8005804031D682B692B772B610803196D2BC0
:1006D8006E2B792BB401B40A64300A128A112C27C4
:1006E8000A128A11792BE101E10A08008312031327
:1006F800B8005E0A031D812B822B872B6508B60084
:100708003608DE00882C65080A128A11F3270A12B7
:100718008A11C03E84008313000883120313B600B5
:100728005E080A128A11F3270A128A11C03E840051
:1007380083130008831203133606031DA42BA52B6D
:10074800132C3808031DA92BAA2BAF2B0130B60098
:100758003608E007B32B0130B6003608DF07013052
:100768000A128A11BF270A128A11993083120313B9
:10077800A0000630A1000F30B6003608A2000A1209
:100788008A156F230A128A118312031307138C30F8
:10079800A0000530A1000530B6003608A2000A12F4
:1007A8008A156F230A128A1101300A128A11BF278B
:1007B8000A128A11993083120313A0000630A1008F
:1007C8000F30B6003608A2000A128A156F230A12E3
:1007D8008A118312031307138C30A0000530A1007F
:1007E8000530B6003608A2000A128A156F230A12CD
:1007F8008A118312031360085F07B600B701B70DAB
:10080800023036063704031D0A2C0B2C0D2CDB0195
:10081800DB0A0A128A11CD250A128A11732C0A12D0
:100828008A155A240A128A1100300A128A11BF271F
:100838000A128A11EB3083120313A0008C30A10036
:100848001E30B6003608A2000A128A156F230A1253
:100858008A118312031387126430A0000030A100AC
:100868000A128A151E230A128A1100300A128A11E6
:10087800BF270A128A11EB3083120313A0008C30B1
:10088800A1001E30B6003608A2000A128A156F238E
:100898000A128A11831203138712FF30B6005E080A
:1008A8000A128A11F3270A128A11A03E84008312C1
:1008B8000313360883138000FF30B60065080A1258
:1008C8008A11F3270A128A11A03E840083120313A7
:1008D800360883138000FF30B6003608E400FF3086
:1008E80083120313B6003608DE000130B60036085E
:1008F800DC06DD01DD0A6430A0000030A1000A1228
:100908008A151E230A128A11080083120313AD01E7
:10091800A81F8F2C902C972CA709A809A70A0319A0
:10092800A80AAD01AD0AAA1F9A2C9B2CA42CA909D0
:10093800AA09A90A0319AA0A0130AB002B08AD06B7
:10094800AE01AF01270828040319AB2CAC2CE32C0B
:10095800AC01AC0ABA2C01300310A70DA80DFF3E5C
:10096800031DB02C0130AB002B08AC07A81FBD2C11
:10097800BE2CAF2C01300310AE0DAF0DFF3E031D92
:10098800BF2C28082A02031DCB2C27082902031C88
:10099800CE2CCF2CD62C2708A9022808031CAA0382
:1009A800AA022E1401300310A80CA70CFF3E031D49
:1009B800D72C0130AC02031DE22CE32CBE2C2D08F1
:1009C8000319E72CE82CED2CAE09AF09AE0A031980
:1009D800AF0A2F08A8002E08A700080083120313E7
:1009E800A1010130A0002008A10708302102031C42
:1009F800FE2CFF2CF52C080005308A000408840A18
:100A0800820700341834183414340434043403349A
:100A1800023403341C3414341834143400340534C8
:100A2800073405340E34153415341F340A340E34A3
:100A38000E34003400340E340E341F341F341F3487
:100A480004340E34003404340E341F341F340E348E
:100A580004340E34003400340A341F341F340E3486
:100A680004340034003404340E341F340E34043497
:100A78000034003400340A340A3400341534113494
:100A88000E34003450347234653473347334203483
:100A9800743468346534203462347534743474348E
:100AA8006F346E340034203443346F346E3463341E
:100AB80065346E34743472346134743469346F3428
:100AC8006E34213400342034203420344E344F34F2
:100AD8002034573449344E344E344534523421345A
:100AE80000342034203420342034573449344E34F0
:100AF8004E344534523421342134003420342034E7
:100B08002034203450344C34413459344534523430
:100B1800203431340034203420342034203450340C
:100B28004C3441345934453452342034323400344E
:100B3800203420342034203474346F342034733417
:100B480074346134723474340034203420342034E2
:100B580020342034533463346F34723465343A3477
:100B680000342034203420342034203420345434C9
:100B78004934453444340034203420345034323439
:100B88003A34203400342034503431343A34203468
:100B98000034083083120313A8000030A900A430E1
:100BA8000A128A15BC230A128A1108308312031309
:100BB800A8000030A90040300A128A1551230A12F1
:100BC8008A11083083120313A8000030A900C2302C
:100BD8000A128A15BC230A128A11083083120313D9
:100BE800B0000030B1000A30A7000030A80060084B
:100BF800B400B5013408A2003508A3006430A00091
:100C08000030A1000A128A15E0250A128A118312FF
:100C180003132108AA002008A9000A128A118924AE
:100C28000A128A11831203132708303E0A128A1502
:100C3800E3220A128A11083083120313B00000302D
:100C4800B1000A30A0000030A1006008B400B5016E
:100C58003408A2003508A3000A128A15E0250A12F2
:100C68008A11831203132008303E0A128A15E322E0
:100C78000A128A11083083120313A8000030A90051
:100C8800BB300A128A15BC230A128A110830831253
:100C98000313B0000030B1000A30A7000030A800EC
:100CA8005F08B400B5013408A2003508A300643019
:100CB800A0000030A1000A128A15E0250A128A1144
:100CC800831203132108AA002008A9000A128A1116
:100CD80089240A128A11831203132708303E0A1244
:100CE8008A15E3220A128A11083083120313B0000E
:100CF8000030B1000A30A0000030A1005F08B40045
:100D0800B5013408A2003508A3000A128A15E025A7
:100D18000A128A11831203132008303E0A128A1518
:100D2800E3220A128A110800831203130D1C9D2E58
:100D38009E2EB42E831603130D1CA32EA42EB42EA0
:100D48007608831203139B0703189C0A77089C07ED
:100D58001D1CAF2EB02EB22E1D10B32E1D140D105B
:100D680083120C1FB82EB92E152F1F083C39F0001E
:100D78007008F500C330F00070089F052C30750628
:100D88000319C72EC82ECE2E28307506031DCD2E6A
:100D9800CE2EF12E1E08DA00831603131E088312C6
:100DA8000313D900E12E2430F00070089F04142F9B
:100DB8003030F00070089F04142F5C08F000F10137
:100DC8007108003A0319E92E142F7008003A031924
:100DD800D72E013A0319DC2E142F1E08D8008316CB
:100DE80003131E0883120313D700042F2C30F000BE
:100DF80070089F04142F2830F00070089F04142FE7
:100E08005C08F000F1017108003A03190C2F142F47
:100E18007008003A0319FA2E013A0319FF2E142F0D
:100E28000C138C1C182F192F232F0130FA027A0863
:100E3800031D1F2F202F222FE101E10A8C107408B7
:100E48008A0073088400720E8300FE0E7E0E09006D
:100E580083120313B700E1013708B5003508FA001B
:100E6800732F4030B5003508E506862F0F30B500E2
:100E78003508E500862F4F30B5003508E500862F88
:100E88000130E502862F6508B500B6013608003A3C
:100E980003194F2F442F3508003A03193A2F403AC7
:100EA80003193F2F442FE501862F4030B500350840
:100EB800E500862F0130B5003508E507862F65085F
:100EC800B500B6013608003A03196B2F5E2F3508B6
:100ED8000F3A0319572F403A0319592F5E2F340838
:100EE800B500B6013608003A03197B2F862F35085E
:100EF800013A0319352F033A0319472F013A031909
:100F0800632F862F0530B0000030B10064080A1244
:100F18008A15E3220A128A11053083120313A800E6
:100F28000030A90065080A128A1551230A128A118D
:100F38000A128A15D1220A128A1183120313630333
:100F4800031DA72FA82FBE2F0530B0000030B10019
:100F580020300A128A15E3220A128A1105308312F8
:100F68000313A8000030A90065080A128A15512346
:100F78000A128A11080083120313A2001F30A0006E
:100F880020088705D62F8716F22F0717F22F871705
:100F9800F22F87160717F22F07178717F22F8717D1
:100FA8008716F22F2208A000A1012108003A031990
:100FB800DE2FF22F2008003A0319C72F013A031930
:100FC800C92F033A0319CB2F013A0319CD2F073A3A
:100FD8000319D02F013A0319D32FF22F08008312D7
:100FE8000313A000201FF92FFA2FFD2F2008D03E51
:080FF800FE2F2008080001345F
:10156A0064008001840A0406031900340406B62ABA
:10157A00C03083120313A0002008831603138105C9
:10158A0001150800003403340134043402340534EC
:10159A0008340034053400348312031365080A1230
:1015AA008A11F3270A128A15A03E840083130008C1
:1015BA0083120313A1002108E40008008312031315
:1015CA00B3003308B2003208A2003008A300310881
:1015DA00A40010300A128A15ED240A128A1508008E
:1015EA007E088A007F0882000A128A15F5220A12EA
:1015FA008A158000840A04087D0603190034FF0A4C
:10160A000319FE0AF92A831203139715171197145F
:10161A001710901010129012101310149D151D110E
:10162A009D101D10FD30A0002008831603138705A6
:10163A0008002E2B643081000B110B1D252B262B45
:10164A00222B013083120313A0020030031CA103D2
:10165A00A1028312031320082104031D352B362B04
:10166A001F2B080083120313A201A20A2808A30051
:10167A002908A40000300A128A15ED240A128A15D4
:10168A00023083120313A0000030A1000A128A1547
:10169A001E230A128A15080083120313AB002B08B3
:1016AA00803EAA002A08A2002808A3002908A4004C
:1016BA0000300A128A15ED240A128A1502308312A2
:1016CA000313A0000030A1000A128A151E230A1271
:1016DA008A150800831203132108F7002008F60070
:1016EA0020080E07A30021080318210A0F07A400E7
:1016FA0023089B0024089C000D10831603130D1465
:10170A00831203132208A3002308FA00E1016108E7
:10171A000319902B912B8C2B831603130D100800A1
:10172A00003083120313D9000230DA000030D700E8
:10173A000230D800860183160313811324309500E2
:10174A003F3086001E308316031789008B170B174C
:10175A00831203130C13831603130C1780309F0094
:10176A00A530831203139F00DD01DD0A08008312EE
:10177A000313AB00DA2B2B0884000A128A11002506
:10178A000A128A15AA002A08A2002808A300290812
:10179A00A40010300A128A15ED240A128A150130A3
:1017AA0083120313AA002A08AB072B0884000A1223
:1017BA008A1100250A128A15003A031DE52BE62B29
:1017CA00C02B0800831203136308031DED2BEE2BB5
:1017DA00FD2B0530B0000030B10020300A128A1506
:1017EA00E3220A128A1583120313E301E30A0A2C7D
:1017FA000530B0000030B10064080A128A15E322ED
:10180A000A128A1583120313E3010530A800003077
:10181A00A90065080A128A1551230A128A150800B6
:10182A00E83083120313A0000330A1000A128A15BC
:10183A001E230A128A158312031360085F02031813
:10184A00272C282C332C7D30B9003908AC00703095
:10185A000A128A1148200A128A154E2C5F08600261
:10186A000318382C392C442C8A30B9003908AC00BA
:10187A0070300A128A1148200A128A154E2CB0308A
:10188A00B9003908AC0062300A128A1148200A12DB
:10189A008A15E83083120313A0000330A1000A124C
:1018AA008A151E230A128A150800053083120313AB
:1018BA00A8000030A9000A128A1537230A128A15CD
:1018CA0083120313B50110303506031D6D2C6E2CDF
:1018DA00782C0530A8000030A90040300A128A1579
:1018EA0051230A128A15053083120313B0000030FF
:1018FA00B1003508A03E8400831300080A128A1535
:10190A00E3220A128A15013083120313B400340841
:10191A00B50720303502031C932C942C682C053013
:10192A00A8000030A90065080A128A1551230A1274
:10193A008A150800831603130F1088018501831680
:10194A0003178801053083120313AA000030AB0085
:10195A000A128A158E250A128A1508308312031371
:10196A00AA000030AB000A128A158E250A128A15BF
:10197A000A128A1595230A128A150A128A159A26B4
:10198A000A128A150A128A1576270A128A158312EA
:10199A000313DC011F3083160313E0006008870578
:1019AA00831203138701DE2C0A128A111F220A12DC
:1019BA008A15831203135B080319E42CE52CD92C2E
:1019CA000A128A1515240A128A150A128A110E2871
:1019DA0083120313A7002208A50004300310A50CE4
:1019EA00FF3E031DF32C2508203E2704A6002308EA
:1019FA0084008317241C8313260880000A128A1184
:101A0A00F2240A128A158312031323088400831707
:101A1A00241C83130008DF39A500230884008317D8
:101A2A00241C83132508800022080F39203E27042E
:101A3A00A500230884008317241C8313250880002B
:101A4A000A128A11F2240A128A158312031323082E
:101A5A0084008317241C83130008DF39A500230898
:101A6A0084008317241C831325088000080083122E
:101A7A000313AE00AD012808AB0002300310AB0D12
:101A8A00FF3E031D432D03102B0D2D044038AC00DF
:101A9A002C08A2002908A3002A08A40000300A1270
:101AAA008A15ED240A128A15831203132E0884005C
:101ABA000A128A1100250A128A15AB002B08A20005
:101ACA002908A3002A08A40010300A128A15ED2456
:101ADA000A128A15013083120313AB002B08AE07D2
:101AEA000130AB002B08AD0708302D02031C7E2DF8
:101AFA007F2D402D8030AB002B08A2002908A300BF
:101B0A002A08A40000300A128A15ED240A128A153E
:101B1A0008000A128A15BD220A128A1583120313B3
:101B2A002A08840083172B1C831380010F30A0001E
:101B3A000030A1000A128A151E230A128A152830BB
:101B4A0083120313AC002C08A2002A08A3002B0856
:101B5A00A40000300A128A15ED240A128A150C30E4
:101B6A0083120313AC002C08A2002A08A3002B0836
:101B7A00A40000300A128A15ED240A128A1583126B
:101B8A0003132A08A8002B08A9000A128A1537236A
:101B9A000A128A15063083120313AC002C08A2001D
:101BAA002A08A3002B08A40000300A128A15ED2483
:101BBA000A128A15080083120313A601A31FE62D31
:101BCA00E72DEE2DA209A309A20A0319A30AA60169
:101BDA00A60AA11FF12DF22DF72DA009A109A00A2D
:101BEA000319A10A200821040319FC2DFD2D2C2E0E
:101BFA00A501A50A0B2E01300310A00DA10DFF3E71
:101C0A00031D012E0130A4002408A507A11F0E2ED2
:101C1A000F2E002E21082302031D152E2008220252
:101C2A00031C182E192E1F2E2008A2022108031C9D
:101C3A00A303A30201300310A10CA00CFF3E031D55
:101C4A00202E0130A502031D2B2E2C2E0F2E260826
:101C5A000319302E312E362EA209A309A20A03191E
:101C6A00A30A2308A1002208A00008003330840038
:101C7A002030FF0083138001840AFF0B3F2E83125A
:101C8A000313D301932E1108B0000E080339023E44
:101C9A00013E512E0310B00CFF3E031D4F2E30089B
:101CAA00B100B2013108A0003208A1000A128A1557
:101CBA001E230A128A15831203130E081F39B00055
:101CCA003008D4005408333E840083130008031DEF
:101CDA006F2E702E932E5408333E84008001800AA2
:101CEA000430A7000030A8005308B000B101300842
:101CFA00A9003108AA000A128A1189240A128A152F
:101D0A00831203132708B2005408C03E8400320825
:101D1A00831380000130B0003008D3072030530607
:101D2A00031D982E992E482E0800FF3083120313A4
:101D3A00D5005508DE000A128A1508230A128A15E8
:101D4A000A128A15FA260A128A1583120313D60171
:101D5A00FF30D5005608A03E840055088313800042
:101D6A000130D5005508D60720305602031CBE2E76
:101D7A00BF2EAD2E0530A8000030A9000A128A1520
:101D8A0037230A128A1583120313E501E3010A12A3
:101D9A008A15D1220A128A1583120313E201E1017C
:101DAA00E10A0530A8000030A90065080A128A1560
:101DBA0051230A128A15FF3083120313D5005508DE
:101DCA00FA00FA30831603139200831203138C105D
:101DDA00831603138C1456308312031392000A12CB
:101DEA008A153B260A128A15080083120313A801D2
:101DFA000530A9000030AA0039300A128A153C259C
:101E0A000A128A1583120313A801A80A0530A90029
:101E1A000030AA0031300A128A153C250A128A15A6
:101E2A00023083120313AF002F08A8000530A9005F
:101E3A000030AA0029300A128A153C250A128A158E
:101E4A00033083120313AF002F08A8000530A9003E
:101E5A000030AA0021300A128A153C250A128A1576
:101E6A00043083120313AF002F08A8000530A9001D
:101E7A000030AA0019300A128A153C250A128A155E
:101E8A00053083120313AF002F08A8000530A900FC
:101E9A000030AA0011300A128A153C250A128A1546
:101EAA00063083120313AF002F08A8000530A900DB
:101EBA000030AA0009300A128A153C250A128A152E
:101ECA00073083120313AF002F08A8000530A900BA
:101EDA000030AA0001300A128A153C250A128A1516
:101EEA00080083120313DB010530A8000030A900A3
:101EFA000A128A1537230A128A1508308312031325
:101F0A00A8000030A9000A128A1537230A128A1576
:101F1A00083083120313A8000030A90052300A12B5
:101F2A008A15BC230A128A15053083120313A800E6
:101F3A000030A90041300A128A15BC230A128A15F8
:101F4A00053083120313A8000030A90040300A129A
:101F5A008A1551230A128A15053083120313A80021
:101F6A000030A90097300A128A15BC230A128A1572
:101F7A0083120313861AC22FC32FBD2F0830A00065
:101F8A000030A1000A128A151E230A128A1583122A
:101F9A000313861ED12FD22FCC2F0830A000003079
:101FAA00A1000A128A151E230A128A150530831205
:101FBA000313A8000030A9000A128A1537230A124F
:101FCA008A15083083120313A8000030A9000A12E8
:101FDA008A1537230A128A1583120313E001DF01D7
:101FEA000A128A11CD250A128A150A128A155A244A
:061FFA000A128A1508001E
:04400E00F2E0FFFEDF
:00000001FF
