:020000040000FA
:060000000A128A110C280F
:10000800FE00030EF0000A08F1000A128A11FF2907
:100018000A128A110F280A128A11B6220A128A11A4
:10002800AB000A128A11B7220A128A11AC000A120E
:100038008A11B8220A128A11AD000A128A11B9224D
:100048000A128A11AE00A701A801A901AA01FA01A2
:10005800FB0183010A128A113128831603130F103A
:10006800880185018316031788010830831203135A
:10007800A2000030A3000A128A1111210A128A1163
:10008800053083120313A2000030A3000A128A115C
:1000980011210A128A110A128A1124220A128A11BB
:1000A800083083120313A0000030A1000A128A113D
:1000B80061220A128A11083083120313A00000304B
:1000C800A10012300A128A11AC210A128A110830D2
:1000D80083120313A0000030A10040300A128A11D5
:1000E80045220A128A11083083120313A000003037
:1000F800A10001300A128A11AC210A128A1141307A
:1001080083120313A5002508FB000830A000003067
:10011800A1007B080A128A1145220A128A117B085B
:1001280083120313A50004300310A50CFF3E031D22
:10013800982804302506031DA228A328B0287B0888
:100148000F39013E84000A128A11D7210A128A1136
:10015800A5002508FA00BC287B080F39123E840048
:100168000A128A11D7210A128A11A5002508FA0055
:100178000830A0000030A100FF300A128A11902236
:100188000A128A11FA30F2000030F3000A128A11BA
:1001980079220A128A11083083120313A000003052
:1001A800A1007B080A128A1145220A128A11083016
:1001B80083120313A0000030A1007A080A128A11E2
:1001C80090220A128A11FA30F2000030F3000A1263
:1001D8008A1179220A128A11013083120313A500A9
:1001E8002508FB07FE284030A5002508FB008928C4
:1001F800FB0189287B08A500A6012608003A0319F7
:10020800062989282508103A0319F728403A0319BE
:10021800FC2889280A128A110C280A128A11AE228F
:100228000A128A1183120313220884008317231CDD
:10023800831380010F30F2000030F3000A128A1194
:1002480079220A128A11283083120313A400240881
:10025800F4002208F5002308F60000300A128A117B
:1002680063210A128A110C3083120313A400240894
:10027800F4002208F5002308F60000300A128A115B
:1002880063210A128A11831203132208A00023088B
:10029800A1000A128A1161220A128A1106308312F9
:1002A8000313A4002408F4002208F5002308F6002C
:1002B80000300A128A1163210A128A110800F90013
:1002C8007408F70004300310F70CFF3E031D67297C
:1002D8007708203E7904F800750884008317761C97
:1002E8008313780880000A128A11A2220A128A113E
:1002F800750884008317761C83130008DF39F7001C
:10030800750884008317761C8313770880007408A7
:100318000F39203E7904F700750884008317761C8E
:100328008313770880000A128A11A2220A128A11FE
:10033800750884008317761C83130008DF39F700DB
:10034800750884008317761C8313770880000800DB
:1003580083120313A300CA29230884000A128A11EE
:10036800D7210A128A11A2002208F4002008F500F9
:100378002108F60010300A128A1163210A128A1124
:10038800013083120313A2002208A3072308840064
:100398000A128A11D7210A128A11003A031DD52997
:1003A800D629B029080001308A000408840A820787
:1003B80000345434483449345334203449345334A1
:1003C800203452344F345734203432342E342E34BF
:1003D8002E34003430343134323433343434353418
:1003E800363437343834393441344234433444347D
:1003F800453446340034831203130C1F042A052A9B
:100408001D2A9F1D082A092A132A1E08AA008316D6
:1004180003131E0883120313A9009F111C2A1E0828
:10042800A800831603131E0883120313A7009F1541
:100438000C1371088A00700E8300FE0E7E0E0900F0
:1004480083120313A901AA01A701A8018601831633
:100458000313811320309500383086000A30831644
:10046800031789008B170B17831203130C138316BA
:1004780003130C1780309F00A530831203139F00CD
:10048800080083120313A3002308803EA200220859
:10049800F4002008F5002108F60000300A128A113D
:1004A80063210A128A110230F2000030F3000A12A6
:1004B8008A1179220A128A110800F401F40A8312B7
:1004C80003132008F5002108F60000300A128A11EB
:1004D80063210A128A110230F2000030F3000A1276
:1004E8008A1179220A128A110800892A6430831233
:1004F800031381000B110B1D822A832A7F2A0130E6
:10050800F2020030031CF303F30272087304031DA4
:100518008E2A8F2A7A2A080083120313A30023083D
:10052800A2002208F4002008F5002108F600103087
:100538000A128A1163210A128A110800F301013094
:10054800F2007208F30708307302031CAC2AAD2AC4
:10055800A32A0800C030F20072088316031381052D
:0C0568000115080005340034083400348C
:04400E00F2E0FFFEDF
:00000001FF
