:020000040000FA
:060000000A128A1110280B
:10000800FE00030E83120313A1000408A2000A08CD
:10001800A3000A128A11442B0A128A1113280A1201
:100028008A11FE240A128A11BF000A128A11FF24BB
:100038000A128A11C0000A128A1100250A128A11AE
:10004800C1000A128A1101250A128A11C200B501DB
:10005800B601B701B801B901BA01BB01BC01BD01C4
:10006800BE01FC01FD0183010A128A11FB298312DA
:1000780003139F184028412842289F140C1D452827
:10008800462866283B08031D4A284B28552819305E
:10009800B3003308BB000A128A118B230A128A1193
:1000A80057280130BB02831203130E08503EB300D9
:1000B8000F080318013EC33EB40033089500340806
:1000C80096000C113808803AFF0083307F02031D28
:1000D8006F2885303702031C7228732883288312FF
:1000E80003133A08031979287A282A290130BE020D
:1000F8001E300A128A112B210A128A112A29831208
:1001080003133808803AFF0080307F02031D8E28D1
:1001180064303702031891289228A4288312031305
:100128003A080319982899282A290130B300330876
:10013800BE071E300A128A112B210A128A112A2997
:10014800831203133808803AFF0082307F02031DB0
:10015800AF2859303702031CB228B328C3288312AA
:1001680003133A080319B928BA282A290130BE020C
:100178003C300A128A112B210A128A112A29831269
:1001880003133808803AFF0081307F02031DCE2810
:10019800903037020318D128D228E4288312031399
:1001A8003A080319D828D9282A290130B300330876
:1001B800BE073C300A128A112B210A128A112A29F9
:1001C800831203133608803AFF0082307F02031D32
:1001D800EF28BD303502031CF228F32805298312C5
:1001E80003133A080319F928FA282A294030B300DA
:1001F8003308BE063E300A128A112B210A128A11D0
:100208002A29831203133608803AFF0081307F02BF
:10021800031D10292C303502031813291429262907
:10022800831203133A0803191A291B292A29403073
:10023800B3003308BE063E300A128A112B210A1277
:100248008A112A2983120313BA01BA0A08008312F1
:100258000313B200BA013208B0003008FD00452986
:10026800BE015B294030B0003008BE005B290F306A
:10027800B0003008BE005B294F30B0003008BE0027
:100288005B293E08B000B1013108003A03194D2935
:100298005B293008103A031934292F3A03194029E9
:1002A8006F3A03193629AF3A03193B295B294108EC
:1002B800AC004208AD003D080A128A11AC240A12AB
:1002C8008A11831203134108AC004208AD003E08AE
:1002D8000A128A115B240A128A110A128A11E4236B
:1002E8000A128A11831203133C03031D7C297D29FA
:1002F80093294108AC004208AD00FF300A128A1168
:10030800AC240A128A11831203134108AC00420874
:10031800AD003E080A128A115B240A128A110800ED
:1003280083120313B1000A128A11DC240A128A11FB
:10033800831203134108AC004208AD000A128A1167
:1003480079240A128A11831203134108AC00420867
:10035800AD0012300A128A11B9230A128A118312C7
:1003680003134108AC004208AD0040300A128A115C
:100378005B240A128A11831203134108AC00420855
:10038800AD0001300A128A11B9230A128A118312A8
:1003980003133108B0003008BE00BC010A128A11EC
:1003A800E4230A128A1183120313BB01BA01BA0AA1
:1003B8004108AC004208AD003E080A128A115B24CD
:1003C8000A128A11FF3083120313B0003008FD00AF
:1003D800FA30831603139200831203138C108316CA
:1003E80003138C14563083120313920008008316EB
:1003F80003130F10880185018316031788018312E0
:1004080003134108AE004208AF000A128A115A22AB
:100418000A128A11053083120313AE000030AF00B0
:100428000A128A115A220A128A110A128A113624C9
:100438000A128A1145300A128A1194210A128A1165
:10044800FC01803083160313870098168312031368
:100458001816831603138C1618121815831603170B
:1004680087110A3083160313990083120313410876
:10047800AC004208AD0058300A128A11AC240A12A6
:100488008A11053083120313AC000030AD005830D8
:100498000A128A11AC240A128A110A128A113B2004
:1004A8000A128A11512A0A128A1110280A128A116C
:1004B800F4240A128A11831203132E088400831766
:1004C8002F1C831380010F30A4000030A5000A12EE
:1004D8008A1193240A128A11283083120313B00058
:1004E8003008A6002E08A7002F08A80000300A121E
:1004F8008A11AC220A128A110C3083120313B0003D
:100508003008A6002E08A7002F08A80000300A12FD
:100518008A11AC220A128A11831203132E08AC0026
:100528002F08AD000A128A1179240A128A1106309E
:1005380083120313B0003008A6002E08A7002F0866
:10054800A80000300A128A11AC220A128A11080087
:1005580083120313AB002608A90004300310A90C6A
:10056800FF3E031DB22A2908203E2B04AA002708B3
:1005780084008317281C83132A0880000A128A1112
:10058800CE240A128A1183120313270884008317C2
:10059800281C83130008DF39A90027088400831763
:1005A800281C83132908800026080F39203E2B04B5
:1005B800A900270884008317281C831329088000B2
:1005C8000A128A11CE240A128A11831203132708E9
:1005D80084008317281C83130008DF39A900270823
:1005E80084008317281C8313290880000800F7005B
:1005F8007208F50004300310F50CFF3E031DFF2AB6
:100608007508203E7704F600730884008317741C6D
:100618008313760880000A128A11E8240A128A11C4
:10062800730884008317741C83130008DF39F500EE
:10063800730884008317741C83137508800072087C
:100648000F39203E7704F500730884008317741C63
:100658008313750880000A128A11E8240A128A1185
:10066800730884008317741C83130008DF39F500AE
:10067800730884008317741C8313750880000800AE
:100688000C1F472B482B602B9F1D4B2B4C2B562B9D
:100698001E08B800831603131E0883120313B7003D
:1006A8009F115F2B1E08B600831603131E088312C2
:1006B8000313B5009F150C138C1C632B642B6E2B36
:1006C8000130FD027D08031D6A2B6B2B6D2BBA01CF
:1006D800BA0A8C108C1E712B722B802B1A08A00062
:1006E8002008FC004108F8004208F9007C080A12BA
:1006F8008A11BE240A128A118312031323088A005E
:1007080022088400210E8300FE0E7E0E090083124B
:1007180003133C08031D912B922BA12B4108AC001D
:100728004208AD00FF300A128A11AC240A128A115D
:1007380083120313BC01BC0AAE2B4108AC0042086B
:10074800AD003D080A128A11AC240A128A118312DC
:100758000313BC014108AC004208AD003E080A1270
:100768008A115B240A128A11080083120313AF004E
:10077800D72B2F0884000A128A110E240A128A1114
:10078800AE002E08A6002C08A7002D08A8001030DF
:100798000A128A11AC220A128A1101308312031339
:1007A800AE002E08AF072F0884000A128A110E2403
:1007B8000A128A11003A031DE22BE32BBD2B080015
:1007C800831203133E08A40004300310A40CFF3E58
:1007D800031DE92B04302406031DF32BF42B012CF5
:1007E8003E080F39013E84000A128A110E240A12AB
:1007F8008A11A4002408BD000D2C3E080F39123EB2
:1008080084000A128A110E240A128A11A4002408EC
:10081800BD00080004308A000408840A82070034F6
:10082800543448344934533420344934533420340C
:1008380052344F345734203432342E342E342E343C
:10084800003430343134323433343434353436349B
:1008580037343834393441344234433444344534F9
:1008680046340034003083120313B7000230B80056
:100878000030B5000230B6008601831603138113D9
:1008880020309500383086000A3083160317890017
:100898008B170B17831203130C13831603130C17F0
:1008A80080309F00A530831203139F000800831235
:1008B8000313AF002F08803EAE002E08A6002C08B8
:1008C800A7002D08A80000300A128A11AC220A12CB
:1008D8008A11023083120313A4000030A5000A1203
:1008E8008A1193240A128A11080083120313A6019D
:1008F800A60A2C08A7002D08A80000300A128A11A1
:10090800AC220A128A11023083120313A4000030A9
:10091800A5000A128A1193240A128A110800A32C2E
:10092800643081000B110B1D9A2C9B2C972C0130E5
:1009380083120313A4020030031CA503A50283122B
:10094800031324082504031DAA2CAB2C942C08009F
:1009580083120313AF002F08AE002E08A6002C0840
:10096800A7002D08A80010300A128A11AC220A121A
:100978008A110800FB007B08FA007A08F200780860
:10098800F3007908F40010300A128A11FB220A12C7
:100998008A11080083120313A5010130A40024085A
:1009A800A50708302502031CDA2CDB2CD12C080003
:1009B800831203139715171197141710901010121C
:1009C8009012101310140800F1010130F0007008A3
:1009D800F10708307102031CF22CF32CE92C0800F3
:1009E800C03083120313A40024088316031381055F
:0C09F800011508000534003408340034F8
:04400E00F2E0FFFEDF
:00000001FF
